{
  "_format": "hh-sol-artifact-1",
  "contractName": "LimitOrderBook",
  "sourceName": "contracts/advanced/LimitOrderBook.sol",
  "abi": [
    {
      "inputs": [
        {
          "internalType": "address",
          "name": "_feeCollector",
          "type": "address"
        }
      ],
      "stateMutability": "nonpayable",
      "type": "constructor"
    },
    {
      "inputs": [
        {
          "internalType": "address",
          "name": "owner",
          "type": "address"
        }
      ],
      "name": "OwnableInvalidOwner",
      "type": "error"
    },
    {
      "inputs": [
        {
          "internalType": "address",
          "name": "account",
          "type": "address"
        }
      ],
      "name": "OwnableUnauthorizedAccount",
      "type": "error"
    },
    {
      "inputs": [],
      "name": "ReentrancyGuardReentrantCall",
      "type": "error"
    },
    {
      "inputs": [
        {
          "internalType": "address",
          "name": "token",
          "type": "address"
        }
      ],
      "name": "SafeERC20FailedOperation",
      "type": "error"
    },
    {
      "anonymous": false,
      "inputs": [
        {
          "indexed": true,
          "internalType": "uint256",
          "name": "orderId",
          "type": "uint256"
        },
        {
          "indexed": true,
          "internalType": "address",
          "name": "maker",
          "type": "address"
        }
      ],
      "name": "OrderCancelled",
      "type": "event"
    },
    {
      "anonymous": false,
      "inputs": [
        {
          "indexed": true,
          "internalType": "uint256",
          "name": "orderId",
          "type": "uint256"
        },
        {
          "indexed": true,
          "internalType": "address",
          "name": "maker",
          "type": "address"
        },
        {
          "indexed": false,
          "internalType": "address",
          "name": "tokenIn",
          "type": "address"
        },
        {
          "indexed": false,
          "internalType": "address",
          "name": "tokenOut",
          "type": "address"
        },
        {
          "indexed": false,
          "internalType": "uint256",
          "name": "amountIn",
          "type": "uint256"
        },
        {
          "indexed": false,
          "internalType": "uint256",
          "name": "minAmountOut",
          "type": "uint256"
        },
        {
          "indexed": false,
          "internalType": "uint256",
          "name": "deadline",
          "type": "uint256"
        }
      ],
      "name": "OrderCreated",
      "type": "event"
    },
    {
      "anonymous": false,
      "inputs": [
        {
          "indexed": true,
          "internalType": "uint256",
          "name": "orderId",
          "type": "uint256"
        },
        {
          "indexed": true,
          "internalType": "address",
          "name": "filler",
          "type": "address"
        },
        {
          "indexed": false,
          "internalType": "uint256",
          "name": "amountOut",
          "type": "uint256"
        }
      ],
      "name": "OrderFilled",
      "type": "event"
    },
    {
      "anonymous": false,
      "inputs": [
        {
          "indexed": true,
          "internalType": "address",
          "name": "previousOwner",
          "type": "address"
        },
        {
          "indexed": true,
          "internalType": "address",
          "name": "newOwner",
          "type": "address"
        }
      ],
      "name": "OwnershipTransferred",
      "type": "event"
    },
    {
      "inputs": [
        {
          "internalType": "uint256",
          "name": "orderId",
          "type": "uint256"
        }
      ],
      "name": "cancelOrder",
      "outputs": [],
      "stateMutability": "nonpayable",
      "type": "function"
    },
    {
      "inputs": [
        {
          "internalType": "address",
          "name": "tokenIn",
          "type": "address"
        },
        {
          "internalType": "address",
          "name": "tokenOut",
          "type": "address"
        },
        {
          "internalType": "uint256",
          "name": "amountIn",
          "type": "uint256"
        },
        {
          "internalType": "uint256",
          "name": "minAmountOut",
          "type": "uint256"
        },
        {
          "internalType": "uint256",
          "name": "deadline",
          "type": "uint256"
        }
      ],
      "name": "createOrder",
      "outputs": [
        {
          "internalType": "uint256",
          "name": "",
          "type": "uint256"
        }
      ],
      "stateMutability": "nonpayable",
      "type": "function"
    },
    {
      "inputs": [],
      "name": "feeCollector",
      "outputs": [
        {
          "internalType": "address",
          "name": "",
          "type": "address"
        }
      ],
      "stateMutability": "view",
      "type": "function"
    },
    {
      "inputs": [],
      "name": "feePercentage",
      "outputs": [
        {
          "internalType": "uint256",
          "name": "",
          "type": "uint256"
        }
      ],
      "stateMutability": "view",
      "type": "function"
    },
    {
      "inputs": [
        {
          "internalType": "uint256",
          "name": "orderId",
          "type": "uint256"
        },
        {
          "internalType": "uint256",
          "name": "amountOut",
          "type": "uint256"
        }
      ],
      "name": "fillOrder",
      "outputs": [],
      "stateMutability": "nonpayable",
      "type": "function"
    },
    {
      "inputs": [
        {
          "internalType": "uint256",
          "name": "orderId",
          "type": "uint256"
        }
      ],
      "name": "getOrder",
      "outputs": [
        {
          "components": [
            {
              "internalType": "uint256",
              "name": "orderId",
              "type": "uint256"
            },
            {
              "internalType": "address",
              "name": "maker",
              "type": "address"
            },
            {
              "internalType": "address",
              "name": "tokenIn",
              "type": "address"
            },
            {
              "internalType": "address",
              "name": "tokenOut",
              "type": "address"
            },
            {
              "internalType": "uint256",
              "name": "amountIn",
              "type": "uint256"
            },
            {
              "internalType": "uint256",
              "name": "minAmountOut",
              "type": "uint256"
            },
            {
              "internalType": "uint256",
              "name": "feeAmount",
              "type": "uint256"
            },
            {
              "internalType": "uint256",
              "name": "deadline",
              "type": "uint256"
            },
            {
              "internalType": "bool",
              "name": "filled",
              "type": "bool"
            },
            {
              "internalType": "bool",
              "name": "cancelled",
              "type": "bool"
            }
          ],
          "internalType": "struct LimitOrderBook.Order",
          "name": "",
          "type": "tuple"
        }
      ],
      "stateMutability": "view",
      "type": "function"
    },
    {
      "inputs": [
        {
          "internalType": "address",
          "name": "user",
          "type": "address"
        }
      ],
      "name": "getUserOrders",
      "outputs": [
        {
          "internalType": "uint256[]",
          "name": "",
          "type": "uint256[]"
        }
      ],
      "stateMutability": "view",
      "type": "function"
    },
    {
      "inputs": [],
      "name": "nextOrderId",
      "outputs": [
        {
          "internalType": "uint256",
          "name": "",
          "type": "uint256"
        }
      ],
      "stateMutability": "view",
      "type": "function"
    },
    {
      "inputs": [
        {
          "internalType": "uint256",
          "name": "",
          "type": "uint256"
        }
      ],
      "name": "orders",
      "outputs": [
        {
          "internalType": "uint256",
          "name": "orderId",
          "type": "uint256"
        },
        {
          "internalType": "address",
          "name": "maker",
          "type": "address"
        },
        {
          "internalType": "address",
          "name": "tokenIn",
          "type": "address"
        },
        {
          "internalType": "address",
          "name": "tokenOut",
          "type": "address"
        },
        {
          "internalType": "uint256",
          "name": "amountIn",
          "type": "uint256"
        },
        {
          "internalType": "uint256",
          "name": "minAmountOut",
          "type": "uint256"
        },
        {
          "internalType": "uint256",
          "name": "feeAmount",
          "type": "uint256"
        },
        {
          "internalType": "uint256",
          "name": "deadline",
          "type": "uint256"
        },
        {
          "internalType": "bool",
          "name": "filled",
          "type": "bool"
        },
        {
          "internalType": "bool",
          "name": "cancelled",
          "type": "bool"
        }
      ],
      "stateMutability": "view",
      "type": "function"
    },
    {
      "inputs": [],
      "name": "owner",
      "outputs": [
        {
          "internalType": "address",
          "name": "",
          "type": "address"
        }
      ],
      "stateMutability": "view",
      "type": "function"
    },
    {
      "inputs": [],
      "name": "renounceOwnership",
      "outputs": [],
      "stateMutability": "nonpayable",
      "type": "function"
    },
    {
      "inputs": [
        {
          "internalType": "address",
          "name": "newCollector",
          "type": "address"
        }
      ],
      "name": "setFeeCollector",
      "outputs": [],
      "stateMutability": "nonpayable",
      "type": "function"
    },
    {
      "inputs": [
        {
          "internalType": "uint256",
          "name": "newFee",
          "type": "uint256"
        }
      ],
      "name": "setFeePercentage",
      "outputs": [],
      "stateMutability": "nonpayable",
      "type": "function"
    },
    {
      "inputs": [
        {
          "internalType": "address",
          "name": "newOwner",
          "type": "address"
        }
      ],
      "name": "transferOwnership",
      "outputs": [],
      "stateMutability": "nonpayable",
      "type": "function"
    },
    {
      "inputs": [
        {
          "internalType": "address",
          "name": "",
          "type": "address"
        },
        {
          "internalType": "uint256",
          "name": "",
          "type": "uint256"
        }
      ],
      "name": "userOrders",
      "outputs": [
        {
          "internalType": "uint256",
          "name": "",
          "type": "uint256"
        }
      ],
      "stateMutability": "view",
      "type": "function"
    }
  ],
  "bytecode": "0x6080346100d057601f610fa138819003918201601f19168301916001600160401b038311848410176100d4578084926020946040528339810103126100d057516001600160a01b0390818116908190036100d05733156100b8575f5460018060a01b03199033828216175f55604051933391167f8be0079c531659141344cd1fd0a4f28419497f9722a3daafe3b4186f6b6457e05f80a3600180556001600255600a6003556004541617600455610eb890816100e98239f35b604051631e4fbdf760e01b81525f6004820152602490fd5b5f80fd5b634e487b7160e01b5f52604160045260245ffdfe60808060405260049081361015610014575f80fd5b5f3560e01c9081632a58b33014610c3657508063514fcac714610b02578063518e62db146107d357806363c69f08146106f8578063715018a6146106a1578063856652e91461064a5780638da5cb5b14610623578063a001ecdd14610606578063a42dce801461058e578063a85c38ef146104eb578063ae06c1b71461048d578063c37dfc5b146102ec578063c415b95c146102c5578063d09ef241146101515763f2fde38b146100c3575f80fd5b3461014d57602036600319011261014d576100dc610c50565b6100e4610df2565b6001600160a01b0390811691821561013657505f54826bffffffffffffffffffffffff60a01b8216175f55167f8be0079c531659141344cd1fd0a4f28419497f9722a3daafe3b4186f6b6457e05f80a3005b6024905f60405191631e4fbdf760e01b8352820152fd5b5f80fd5b503461014d57602036600319011261014d57610140905f61012060405161017781610cf3565b8281528260208201528260408201528260608201528260808201528260a08201528260c08201528260e082015282610100820152015280355f52600560205261012060405f2060ff6008604051926101ce84610cf3565b80549586855260018060a01b03600183015416602086015260018060a01b03600283015416604086015260018060a01b0360038301541660608601528101546080850152600581015460a0850152600681015460c0850152600781015460e08501520154818116151561010084015260081c1615158282015260405192835260018060a01b03602082015116602084015260018060a01b03604082015116604084015260018060a01b0360608201511660608401526080810151608084015260a081015160a084015260c081015160c084015260e081015160e0840152610100810151151561010084015201511515610120820152f35b503461014d575f36600319011261014d57546040516001600160a01b039091168152602090f35b503461014d57604036600319011261014d5780356024359161030c610d24565b815f52600560205260405f209060088201805461032c60ff821615610c8f565b60ff8160081c16610457576007840154421161042357600584015486106103e95760019060ff191617905560018060a01b0390610379858360038601541684600187015416903390610d99565b600660028401936103938486541684830154903390610d47565b015491826103d0575b85856040519182527f1e7abafb1a786c4e6394b5c494f50a97e3802ff2ce462eca4fe6a2dd4e1f92e860203393a360018055005b806103e094541691541690610d47565b5f80808061039c565b60405162461bcd60e51b81526020818501526013602482015272125b9cdd59999a58da595b9d081bdd5d1c1d5d606a1b6044820152606490fd5b60405162461bcd60e51b8152602081850152600d60248201526c13dc99195c88195e1c1a5c9959609a1b6044820152606490fd5b60405162461bcd60e51b8152602081850152600f60248201526e13dc99195c8818d85b98d95b1b1959608a1b6044820152606490fd5b503461014d57602036600319011261014d578035906104aa610df2565b606482116104b85750600355005b60649060206040519162461bcd60e51b8352820152600c60248201526b08ccaca40e8dede40d0d2ced60a31b6044820152fd5b503461014d57602036600319011261014d578061014091355f52600560205260ff60405f209182549260018060a01b0380600183015416928160028401541691600384015416908301546005840154916006850154936008600787015496015496604051998a5260208a015260408901526060880152608087015260a086015260c085015260e0840152818116151561010084015260081c161515610120820152f35b503461014d57602036600319011261014d576105a8610c50565b6105b0610df2565b6001600160a01b031680156105d05781546001600160a01b031916179055005b60405162461bcd60e51b8152602081840152600f60248201526e496e76616c6964206164647265737360881b6044820152606490fd5b3461014d575f36600319011261014d576020600354604051908152f35b3461014d575f36600319011261014d575f546040516001600160a01b039091168152602090f35b3461014d57604036600319011261014d57610663610c50565b6001600160a01b03165f9081526006602052604090208054602435919082101561014d5760209161069391610c66565b90546040519160031b1c8152f35b3461014d575f36600319011261014d576106b9610df2565b5f80546001600160a01b0319811682556001600160a01b03167f8be0079c531659141344cd1fd0a4f28419497f9722a3daafe3b4186f6b6457e08280a3005b503461014d5760208060031936011261014d576001600160a01b0361071b610c50565b165f526006815260405f2090604051908181845491828152019081945f52825f20905f5b848282106107bf5750505050829003601f01601f191682019367ffffffffffffffff8511838610176107ac57508392918360405281840190828552518091526040840192915f5b82811061079557505050500390f35b835185528695509381019392810192600101610786565b604190634e487b7160e01b5f525260245ffd5b83548552909301926001928301920161073f565b503461014d5760a036600319011261014d576107ed610c50565b6001600160a01b039060249081358381169081900361014d5760443560643591856084359461081a610d24565b1694818614610ace578215610a96578315610a5a5742851115610a24576003548084029084820403610a11576127109004906108616108598386610cd2565b30338a610d99565b600254975f1992838a146109ff5760088992898c938a8f600187016002558b8b6040519661088e88610cf3565b8988526020880190338252604089019b8c52606089019283526080890193845260a0890195865260c0890196875260e0890197885261010089019b5f8d526101208a019b5f8d525f52600560205260405f2099518a558160018b01935116926bffffffffffffffffffffffff60a01b93848254161790558160028b01915116838254161790556003890192511690825416179055519085015551600584015551600683015551600782015501915115159060ff61ff0084549251151560081b1692169061ffff191617179055335f52600660205260405f2090815499680100000000000000008b10156109ee5750508861098f91600160209b018155610c66565b819291549060031b9189831b921b191617905560405194855286850152604084015260608301526080820152817fdb932a34c9c681f70d4d797e099a8752999c25f9c9ffa2009c5f39c8f8dee4b460a03393a360018055604051908152f35b604190634e487b7160e01b5f52525ffd5b8260118c634e487b7160e01b5f52525ffd5b50634e487b7160e01b5f90815260118952fd5b87601060649260206040519362461bcd60e51b85528401528201526f496e76616c696420646561646c696e6560801b6044820152fd5b87601660649260206040519362461bcd60e51b85528401528201527504d696e20616d6f756e74206d757374206265203e20360541b6044820152fd5b87601260649260206040519362461bcd60e51b8552840152820152710416d6f756e74206d757374206265203e20360741b6044820152fd5b87600e60649260206040519362461bcd60e51b85528401528201526d496e76616c696420746f6b656e7360901b6044820152fd5b503461014d57602036600319011261014d578035610b1e610d24565b5f81815260056020526040902060018101546001600160a01b03919082163303610c0057600881018054610b5560ff821615610c8f565b60ff8160081c16610bbc5794610b8391610100610b90969761ff001916179055820154600683015490610cd2565b9160023392015416610d47565b33907fc0362da6f2ff36b382b34aec0814f6b3cdf89f5ef282a1d1f114d0c0b036d5965f80a360018055005b60405162461bcd60e51b8152602081880152601760248201527f4f7264657220616c72656164792063616e63656c6c65640000000000000000006044820152606490fd5b60405162461bcd60e51b8152602081860152600f60248201526e2737ba1037b93232b91036b0b5b2b960891b6044820152606490fd5b3461014d575f36600319011261014d576020906002548152f35b600435906001600160a01b038216820361014d57565b8054821015610c7b575f5260205f2001905f90565b634e487b7160e01b5f52603260045260245ffd5b15610c9657565b60405162461bcd60e51b815260206004820152601460248201527313dc99195c88185b1c9958591e48199a5b1b195960621b6044820152606490fd5b91908201809211610cdf57565b634e487b7160e01b5f52601160045260245ffd5b610140810190811067ffffffffffffffff821117610d1057604052565b634e487b7160e01b5f52604160045260245ffd5b600260015414610d35576002600155565b604051633ee5aeb560e01b8152600490fd5b60405163a9059cbb60e01b60208201526001600160a01b039092166024830152604480830193909352918152608081019167ffffffffffffffff831182841017610d1057610d9792604052610e1d565b565b6040516323b872dd60e01b60208201526001600160a01b03928316602482015292909116604483015260648083019390935291815260a081019181831067ffffffffffffffff841117610d1057610d9792604052610e1d565b5f546001600160a01b03163303610e0557565b60405163118cdaa760e01b8152336004820152602490fd5b905f602091828151910182855af115610e77575f513d610e6e57506001600160a01b0381163b155b610e4c5750565b604051635274afe760e01b81526001600160a01b039091166004820152602490fd5b60011415610e45565b6040513d5f823e3d90fdfea2646970667358221220d0f52205edb6ec56cfefb4aea1ee71a293683dc22402e1af669050f515a6857364736f6c63430008180033",
  "linkReferences": {},
  "deployedLinkReferences": {}
}