{
  "_format": "hh-sol-artifact-1",
  "contractName": "SimpleLiquidityPool",
  "sourceName": "contracts/BianDEX.sol",
  "abi": [
    {
      "inputs": [
        {
          "internalType": "address",
          "name": "_token0",
          "type": "address"
        },
        {
          "internalType": "address",
          "name": "_token1",
          "type": "address"
        }
      ],
      "stateMutability": "nonpayable",
      "type": "constructor"
    },
    {
      "inputs": [
        {
          "internalType": "address",
          "name": "spender",
          "type": "address"
        },
        {
          "internalType": "uint256",
          "name": "allowance",
          "type": "uint256"
        },
        {
          "internalType": "uint256",
          "name": "needed",
          "type": "uint256"
        }
      ],
      "name": "ERC20InsufficientAllowance",
      "type": "error"
    },
    {
      "inputs": [
        {
          "internalType": "address",
          "name": "sender",
          "type": "address"
        },
        {
          "internalType": "uint256",
          "name": "balance",
          "type": "uint256"
        },
        {
          "internalType": "uint256",
          "name": "needed",
          "type": "uint256"
        }
      ],
      "name": "ERC20InsufficientBalance",
      "type": "error"
    },
    {
      "inputs": [
        {
          "internalType": "address",
          "name": "approver",
          "type": "address"
        }
      ],
      "name": "ERC20InvalidApprover",
      "type": "error"
    },
    {
      "inputs": [
        {
          "internalType": "address",
          "name": "receiver",
          "type": "address"
        }
      ],
      "name": "ERC20InvalidReceiver",
      "type": "error"
    },
    {
      "inputs": [
        {
          "internalType": "address",
          "name": "sender",
          "type": "address"
        }
      ],
      "name": "ERC20InvalidSender",
      "type": "error"
    },
    {
      "inputs": [
        {
          "internalType": "address",
          "name": "spender",
          "type": "address"
        }
      ],
      "name": "ERC20InvalidSpender",
      "type": "error"
    },
    {
      "inputs": [],
      "name": "EnforcedPause",
      "type": "error"
    },
    {
      "inputs": [],
      "name": "ExpectedPause",
      "type": "error"
    },
    {
      "inputs": [
        {
          "internalType": "address",
          "name": "owner",
          "type": "address"
        }
      ],
      "name": "OwnableInvalidOwner",
      "type": "error"
    },
    {
      "inputs": [
        {
          "internalType": "address",
          "name": "account",
          "type": "address"
        }
      ],
      "name": "OwnableUnauthorizedAccount",
      "type": "error"
    },
    {
      "inputs": [],
      "name": "ReentrancyGuardReentrantCall",
      "type": "error"
    },
    {
      "inputs": [
        {
          "internalType": "address",
          "name": "token",
          "type": "address"
        }
      ],
      "name": "SafeERC20FailedOperation",
      "type": "error"
    },
    {
      "anonymous": false,
      "inputs": [
        {
          "indexed": true,
          "internalType": "address",
          "name": "owner",
          "type": "address"
        },
        {
          "indexed": true,
          "internalType": "address",
          "name": "spender",
          "type": "address"
        },
        {
          "indexed": false,
          "internalType": "uint256",
          "name": "value",
          "type": "uint256"
        }
      ],
      "name": "Approval",
      "type": "event"
    },
    {
      "anonymous": false,
      "inputs": [
        {
          "indexed": true,
          "internalType": "address",
          "name": "provider",
          "type": "address"
        },
        {
          "indexed": false,
          "internalType": "uint256",
          "name": "amount0",
          "type": "uint256"
        },
        {
          "indexed": false,
          "internalType": "uint256",
          "name": "amount1",
          "type": "uint256"
        },
        {
          "indexed": false,
          "internalType": "uint256",
          "name": "liquidity",
          "type": "uint256"
        }
      ],
      "name": "LiquidityAdded",
      "type": "event"
    },
    {
      "anonymous": false,
      "inputs": [
        {
          "indexed": true,
          "internalType": "address",
          "name": "provider",
          "type": "address"
        },
        {
          "indexed": false,
          "internalType": "uint256",
          "name": "amount0",
          "type": "uint256"
        },
        {
          "indexed": false,
          "internalType": "uint256",
          "name": "amount1",
          "type": "uint256"
        },
        {
          "indexed": false,
          "internalType": "uint256",
          "name": "liquidity",
          "type": "uint256"
        }
      ],
      "name": "LiquidityRemoved",
      "type": "event"
    },
    {
      "anonymous": false,
      "inputs": [
        {
          "indexed": true,
          "internalType": "address",
          "name": "previousOwner",
          "type": "address"
        },
        {
          "indexed": true,
          "internalType": "address",
          "name": "newOwner",
          "type": "address"
        }
      ],
      "name": "OwnershipTransferred",
      "type": "event"
    },
    {
      "anonymous": false,
      "inputs": [
        {
          "indexed": false,
          "internalType": "address",
          "name": "account",
          "type": "address"
        }
      ],
      "name": "Paused",
      "type": "event"
    },
    {
      "anonymous": false,
      "inputs": [
        {
          "indexed": true,
          "internalType": "address",
          "name": "user",
          "type": "address"
        },
        {
          "indexed": false,
          "internalType": "address",
          "name": "tokenIn",
          "type": "address"
        },
        {
          "indexed": false,
          "internalType": "uint256",
          "name": "amountIn",
          "type": "uint256"
        },
        {
          "indexed": false,
          "internalType": "uint256",
          "name": "amountOut",
          "type": "uint256"
        }
      ],
      "name": "Swap",
      "type": "event"
    },
    {
      "anonymous": false,
      "inputs": [
        {
          "indexed": true,
          "internalType": "address",
          "name": "from",
          "type": "address"
        },
        {
          "indexed": true,
          "internalType": "address",
          "name": "to",
          "type": "address"
        },
        {
          "indexed": false,
          "internalType": "uint256",
          "name": "value",
          "type": "uint256"
        }
      ],
      "name": "Transfer",
      "type": "event"
    },
    {
      "anonymous": false,
      "inputs": [
        {
          "indexed": false,
          "internalType": "address",
          "name": "account",
          "type": "address"
        }
      ],
      "name": "Unpaused",
      "type": "event"
    },
    {
      "inputs": [],
      "name": "DEAD_ADDRESS",
      "outputs": [
        {
          "internalType": "address",
          "name": "",
          "type": "address"
        }
      ],
      "stateMutability": "view",
      "type": "function"
    },
    {
      "inputs": [],
      "name": "FEE_DENOMINATOR",
      "outputs": [
        {
          "internalType": "uint256",
          "name": "",
          "type": "uint256"
        }
      ],
      "stateMutability": "view",
      "type": "function"
    },
    {
      "inputs": [],
      "name": "FEE_PERCENT",
      "outputs": [
        {
          "internalType": "uint256",
          "name": "",
          "type": "uint256"
        }
      ],
      "stateMutability": "view",
      "type": "function"
    },
    {
      "inputs": [],
      "name": "MINIMUM_LIQUIDITY",
      "outputs": [
        {
          "internalType": "uint256",
          "name": "",
          "type": "uint256"
        }
      ],
      "stateMutability": "view",
      "type": "function"
    },
    {
      "inputs": [
        {
          "internalType": "uint256",
          "name": "amount0Desired",
          "type": "uint256"
        },
        {
          "internalType": "uint256",
          "name": "amount1Desired",
          "type": "uint256"
        },
        {
          "internalType": "uint256",
          "name": "amount0Min",
          "type": "uint256"
        },
        {
          "internalType": "uint256",
          "name": "amount1Min",
          "type": "uint256"
        },
        {
          "internalType": "uint256",
          "name": "deadline",
          "type": "uint256"
        },
        {
          "internalType": "address",
          "name": "to",
          "type": "address"
        }
      ],
      "name": "addLiquidity",
      "outputs": [
        {
          "internalType": "uint256",
          "name": "liquidity",
          "type": "uint256"
        }
      ],
      "stateMutability": "nonpayable",
      "type": "function"
    },
    {
      "inputs": [
        {
          "internalType": "address",
          "name": "owner",
          "type": "address"
        },
        {
          "internalType": "address",
          "name": "spender",
          "type": "address"
        }
      ],
      "name": "allowance",
      "outputs": [
        {
          "internalType": "uint256",
          "name": "",
          "type": "uint256"
        }
      ],
      "stateMutability": "view",
      "type": "function"
    },
    {
      "inputs": [
        {
          "internalType": "address",
          "name": "spender",
          "type": "address"
        },
        {
          "internalType": "uint256",
          "name": "value",
          "type": "uint256"
        }
      ],
      "name": "approve",
      "outputs": [
        {
          "internalType": "bool",
          "name": "",
          "type": "bool"
        }
      ],
      "stateMutability": "nonpayable",
      "type": "function"
    },
    {
      "inputs": [
        {
          "internalType": "address",
          "name": "account",
          "type": "address"
        }
      ],
      "name": "balanceOf",
      "outputs": [
        {
          "internalType": "uint256",
          "name": "",
          "type": "uint256"
        }
      ],
      "stateMutability": "view",
      "type": "function"
    },
    {
      "inputs": [],
      "name": "decimals",
      "outputs": [
        {
          "internalType": "uint8",
          "name": "",
          "type": "uint8"
        }
      ],
      "stateMutability": "view",
      "type": "function"
    },
    {
      "inputs": [
        {
          "internalType": "address",
          "name": "tokenIn",
          "type": "address"
        },
        {
          "internalType": "uint256",
          "name": "amountIn",
          "type": "uint256"
        }
      ],
      "name": "getAmountOut",
      "outputs": [
        {
          "internalType": "uint256",
          "name": "amountOut",
          "type": "uint256"
        }
      ],
      "stateMutability": "view",
      "type": "function"
    },
    {
      "inputs": [],
      "name": "getReserves",
      "outputs": [
        {
          "internalType": "uint256",
          "name": "_reserve0",
          "type": "uint256"
        },
        {
          "internalType": "uint256",
          "name": "_reserve1",
          "type": "uint256"
        }
      ],
      "stateMutability": "view",
      "type": "function"
    },
    {
      "inputs": [],
      "name": "name",
      "outputs": [
        {
          "internalType": "string",
          "name": "",
          "type": "string"
        }
      ],
      "stateMutability": "view",
      "type": "function"
    },
    {
      "inputs": [],
      "name": "owner",
      "outputs": [
        {
          "internalType": "address",
          "name": "",
          "type": "address"
        }
      ],
      "stateMutability": "view",
      "type": "function"
    },
    {
      "inputs": [],
      "name": "pause",
      "outputs": [],
      "stateMutability": "nonpayable",
      "type": "function"
    },
    {
      "inputs": [],
      "name": "paused",
      "outputs": [
        {
          "internalType": "bool",
          "name": "",
          "type": "bool"
        }
      ],
      "stateMutability": "view",
      "type": "function"
    },
    {
      "inputs": [
        {
          "internalType": "uint256",
          "name": "liquidity",
          "type": "uint256"
        },
        {
          "internalType": "uint256",
          "name": "amount0Min",
          "type": "uint256"
        },
        {
          "internalType": "uint256",
          "name": "amount1Min",
          "type": "uint256"
        },
        {
          "internalType": "uint256",
          "name": "deadline",
          "type": "uint256"
        },
        {
          "internalType": "address",
          "name": "to",
          "type": "address"
        }
      ],
      "name": "removeLiquidity",
      "outputs": [
        {
          "internalType": "uint256",
          "name": "amount0",
          "type": "uint256"
        },
        {
          "internalType": "uint256",
          "name": "amount1",
          "type": "uint256"
        }
      ],
      "stateMutability": "nonpayable",
      "type": "function"
    },
    {
      "inputs": [],
      "name": "renounceOwnership",
      "outputs": [],
      "stateMutability": "nonpayable",
      "type": "function"
    },
    {
      "inputs": [],
      "name": "reserve0",
      "outputs": [
        {
          "internalType": "uint256",
          "name": "",
          "type": "uint256"
        }
      ],
      "stateMutability": "view",
      "type": "function"
    },
    {
      "inputs": [],
      "name": "reserve1",
      "outputs": [
        {
          "internalType": "uint256",
          "name": "",
          "type": "uint256"
        }
      ],
      "stateMutability": "view",
      "type": "function"
    },
    {
      "inputs": [
        {
          "internalType": "address",
          "name": "tokenIn",
          "type": "address"
        },
        {
          "internalType": "uint256",
          "name": "amountIn",
          "type": "uint256"
        },
        {
          "internalType": "uint256",
          "name": "minAmountOut",
          "type": "uint256"
        },
        {
          "internalType": "uint256",
          "name": "deadline",
          "type": "uint256"
        }
      ],
      "name": "swap",
      "outputs": [
        {
          "internalType": "uint256",
          "name": "amountOut",
          "type": "uint256"
        }
      ],
      "stateMutability": "nonpayable",
      "type": "function"
    },
    {
      "inputs": [],
      "name": "symbol",
      "outputs": [
        {
          "internalType": "string",
          "name": "",
          "type": "string"
        }
      ],
      "stateMutability": "view",
      "type": "function"
    },
    {
      "inputs": [],
      "name": "sync",
      "outputs": [],
      "stateMutability": "nonpayable",
      "type": "function"
    },
    {
      "inputs": [],
      "name": "token0",
      "outputs": [
        {
          "internalType": "contract IERC20",
          "name": "",
          "type": "address"
        }
      ],
      "stateMutability": "view",
      "type": "function"
    },
    {
      "inputs": [],
      "name": "token1",
      "outputs": [
        {
          "internalType": "contract IERC20",
          "name": "",
          "type": "address"
        }
      ],
      "stateMutability": "view",
      "type": "function"
    },
    {
      "inputs": [],
      "name": "totalSupply",
      "outputs": [
        {
          "internalType": "uint256",
          "name": "",
          "type": "uint256"
        }
      ],
      "stateMutability": "view",
      "type": "function"
    },
    {
      "inputs": [
        {
          "internalType": "address",
          "name": "to",
          "type": "address"
        },
        {
          "internalType": "uint256",
          "name": "value",
          "type": "uint256"
        }
      ],
      "name": "transfer",
      "outputs": [
        {
          "internalType": "bool",
          "name": "",
          "type": "bool"
        }
      ],
      "stateMutability": "nonpayable",
      "type": "function"
    },
    {
      "inputs": [
        {
          "internalType": "address",
          "name": "from",
          "type": "address"
        },
        {
          "internalType": "address",
          "name": "to",
          "type": "address"
        },
        {
          "internalType": "uint256",
          "name": "value",
          "type": "uint256"
        }
      ],
      "name": "transferFrom",
      "outputs": [
        {
          "internalType": "bool",
          "name": "",
          "type": "bool"
        }
      ],
      "stateMutability": "nonpayable",
      "type": "function"
    },
    {
      "inputs": [
        {
          "internalType": "address",
          "name": "newOwner",
          "type": "address"
        }
      ],
      "name": "transferOwnership",
      "outputs": [],
      "stateMutability": "nonpayable",
      "type": "function"
    },
    {
      "inputs": [],
      "name": "unpause",
      "outputs": [],
      "stateMutability": "nonpayable",
      "type": "function"
    }
  ],
  "bytecode": "0x60c0346200046757601f90601f19906001600160401b0390620020cf388190038581018516830191908483118484101762000376578084926040948552833981010312620004675762000052816200048b565b936200006260208093016200048b565b926200006d6200046b565b91601083526f2134b0b72222ac102628102a37b5b2b760811b84840152620000946200046b565b9060078252660534445582d4c560cc1b85830152835191838311620003765760039283546001968782811c921680156200045c575b8983101462000448578185849311620003f5575b50889085831160011462000396575f926200038a575b50505f1982861b1c191690861b1783555b8051938411620003765760049788548681811c911680156200036b575b888210146200035857908184879695949311620002ff575b50879285116001146200029b57505f936200028f575b505082841b925f19911b1c19161784555b6005553315620002785760068054336001600160a01b031982168117909255604051936001600160a01b0392839283167f8be0079c531659141344cd1fd0a4f28419497f9722a3daafe3b4186f6b6457e05f80a316941692848414620002465750505060805260a052604051611c2e9081620004a1823960805181818161019e015281816104150152818161054401528181610be30152818161112d0152611545015260a0518181816101e9015281816103b9015281816104d9015281816105a7015281816106a7015281816108de0152818161090801528181610c11015261115e0152f35b62461bcd60e51b8352820152601060248201526f4964656e746963616c20746f6b656e7360801b604482015260649150fd5b604051631e4fbdf760e01b81525f81850152602490fd5b015191505f806200014f565b8695939291931692895f52875f20935f5b89828210620002e85750508511620002ce575b50505050811b01845562000160565b01519060f8845f19921b161c191690555f808080620002bf565b8385015187558998909601959384019301620002ac565b909192939450895f52875f208480880160051c8201928a89106200034e575b918991899897969594930160051c01915b8281106200033f57505062000139565b5f81558897508991016200032f565b925081926200031e565b60228a634e487b7160e01b5f525260245ffd5b90607f169062000121565b634e487b7160e01b5f52604160045260245ffd5b015190505f80620000f3565b908b89941691875f528a5f20925f5b8c828210620003de5750508411620003c6575b505050811b01835562000104565b01515f1983881b60f8161c191690555f8080620003b8565b8385015186558c97909501949384019301620003a5565b909150855f52885f208580850160051c8201928b86106200043e575b918a91869594930160051c01915b8281106200042f575050620000dd565b5f81558594508a91016200041f565b9250819262000411565b634e487b7160e01b5f52602260045260245ffd5b91607f1691620000c9565b5f80fd5b60408051919082016001600160401b038111838210176200037657604052565b51906001600160a01b0382168203620004675756fe6080604081815260049182361015610015575f80fd5b5f3560e01c90816306fdde031461163f575080630902f1ac1461161c578063095ea7b3146115745780630dfe16811461153157806318160ddd1461151357806323b872dd14611421578063313ce567146114065780633f4ba83a14611397578063443cb4bc146113795780634e6fd6c41461135d5780634e9ed27f1461104c5780635a76f25e1461102e5780635c975abb1461100857806370a0823114610fd2578063715018a614610f775780637973141314610ae85780638456cb5914610a895780638da5cb5b14610a6157806395d89b411461095f578063a9059cbb1461092f578063ba9a7a56146103a0578063c9ec924814610503578063ca706bcf146103e8578063d21220a7146103a5578063d73792a9146103a0578063dd62ed3e14610357578063eaf98d231461033c578063f2fde38b146102ad5763fff6cae91461015e575f80fd5b3461025d575f36600319011261025d57610176611a88565b80516370a0823160e01b80825230828501526001600160a01b039390919060209081836024817f00000000000000000000000000000000000000000000000000000000000000008a165afa9283156102a3575f93610271575b5060248394839460075586519788938492835230908301527f0000000000000000000000000000000000000000000000000000000000000000165afa92831561026857505f92610232575b610228838381600855611858565b6009556001600555005b90915082813d8311610261575b61024981836117c1565b8101031261025d576102289151905f61021a565b5f80fd5b503d61023f565b513d5f823e3d90fd5b9180935082813d831161029c575b61028981836117c1565b8101031261025d579051919060246101cf565b503d61027f565b85513d5f823e3d90fd5b50903461025d57602036600319011261025d576102c8611779565b906102d1611a5c565b6001600160a01b03918216928315610326575050600654826bffffffffffffffffffffffff60a01b821617600655167f8be0079c531659141344cd1fd0a4f28419497f9722a3daafe3b4186f6b6457e05f80a3005b905f6024925191631e4fbdf760e01b8352820152fd5b503461025d575f36600319011261025d576020905160038152f35b503461025d578060031936011261025d57602090610373611779565b61037b61178f565b9060018060a01b038091165f5260018452825f2091165f528252805f20549051908152f35b6117a5565b503461025d575f36600319011261025d57517f00000000000000000000000000000000000000000000000000000000000000006001600160a01b03168152602090f35b503461025d578060031936011261025d57610401611779565b6024359061044860018060a01b03809216827f000000000000000000000000000000000000000000000000000000000000000016811490819382156104d7575b505061190f565b61045382151561194b565b80156104ce57600754905b156104bf576104796104726008549361182d565b9283611858565b936103e8918281029281840414901517156104ac57509261049f6104a592602095611988565b9061186b565b9051908152f35b601190634e487b7160e01b5f525260245ffd5b6104796104726007549361182d565b6008549061045e565b7f0000000000000000000000000000000000000000000000000000000000000000161490505f80610441565b50903461025d57608036600319011261025d5761051e611779565b91602492833561052c611a88565b610534611afd565b6105424260643510156117f7565b7f00000000000000000000000000000000000000000000000000000000000000006001600160a01b038181169684821680891497929061058b9089908115610903575b5061190f565b61059685151561194b565b87156108dc57835b88156108d757507f00000000000000000000000000000000000000000000000000000000000000005b88156108ce57600754985b156108c557600854985b8015908115806108bc575b15610881576105f58861182d565b906106008c83611858565b926103e880830292830414171561086f5761061f929161049f91611988565b986044358a1061082d578915159081610823575b50156107f057886106629161065b8861065160075460085490611858565b9830903390611b1e565b3390611aab565b86516370a0823160e01b808252308583015260209a8b908390869082905afa9182156107e657908b915f936107b5575b5082600755848a5180958193825230898301527f0000000000000000000000000000000000000000000000000000000000000000165afa9081156107ab575f9161077a575b6106e5925081600855611858565b92831061074457505060095582516001600160a01b03909216825260208201526040810183905233907ffa2dda1cc1b86e41239702756b13effbc1a092b5c57e3ad320fbe4f3b13fe2359080606081015b0390a2600160055551908152f35b855162461bcd60e51b81529182018890526011908201527012c81d985b1d5948191958dc99585cd959607a1b6044820152606490fd5b90508982813d83116107a4575b61079181836117c1565b8101031261025d576106e59151906106d7565b503d610787565b88513d5f823e3d90fd5b8281939294503d83116107df575b6107cd81836117c1565b8101031261025d578a9051915f610692565b503d6107c3565b89513d5f823e3d90fd5b875162461bcd60e51b8152602081860152600e818501526d125b9d985b1a59081bdd5d1c1d5d60921b6044820152606490fd5b905089105f610633565b885162461bcd60e51b8152602081870152601a818601527f496e73756666696369656e74206f757470757420616d6f756e740000000000006044820152606490fd5b85601188634e487b7160e01b5f52525ffd5b895162461bcd60e51b815260208188015260168187015275496e73756666696369656e74206c697175696469747960501b6044820152606490fd5b508a15156105e7565b600754986105dc565b600854986105d2565b6105c7565b7f00000000000000000000000000000000000000000000000000000000000000009361059e565b9050827f000000000000000000000000000000000000000000000000000000000000000016145f610585565b503461025d578060031936011261025d5760209061095861094e611779565b6024359033611995565b5160018152f35b503461025d575f36600319011261025d578051905f9280549060018260011c9160018416938415610a57575b6020948585108114610a4457848852908115610a2257506001146109c9575b6109c586866109bb828b03836117c1565b5191829182611732565b0390f35b5f9081529295507f8a35acfbc15ff81a39ae7d344fd709f28e8600b4aa8c65c6b64bfe7fe36bd19b5b828410610a0f57505050826109c5946109bb92820101945f6109aa565b80548685018801529286019281016109f2565b60ff191687860152505050151560051b83010192506109bb826109c55f6109aa565b602283634e487b7160e01b5f525260245ffd5b92607f169261098b565b503461025d575f36600319011261025d5760065490516001600160a01b039091168152602090f35b503461025d575f36600319011261025d5760207f62e78cea01bee320cd4e420270b5ea74000d11b0c9f74754ebdbfc544b05a25891610ac6611a5c565b610ace611afd565b6006805460ff60a01b1916600160a01b17905551338152a1005b50903461025d5760c036600319011261025d576001600160a01b0360a43581811693916024803592909185359187900361025d57610b24611a88565b610b2c611afd565b610b3a4260843510156117f7565b81151580610f6e575b15610f3a5760025480610e8457610b5c83958094611858565b905f6003831115610e755750816001908060011c60018101809111610e635791905b848310610e43575050505b6103e89081831115610e0157818101809111610def576002555f5f80516020611bd9833981519152602061dead938484528382528a84208181540190558a51908152a36103e7198101908111610ddd57955b8615610d9b577f000000000000000000000000000000000000000000000000000000000000000093610c0f86303388611b1e565b7f000000000000000000000000000000000000000000000000000000000000000094610c3d85303389611b1e565b8915610d8657610c4f89600254611988565b600255895f526020995f8b52885f208a81540190555f5f80516020611bd98339815191528c8b518d8152a38751938a858481846370a0823160e01b96878352308a840152165afa9485156107e657908b949392915f96610d55575b50856007558951978894859384523090840152165afa9283156102a357908692915f94610d20575b5083610d02917f64b83944e79c3ce8d4c297411de637c3e102d064677aac0c163976ebdcd6f50e95600855611858565b60095584519384526020840152604083015233918060608101610736565b935091508683813d8111610d4e575b610d3981836117c1565b8101031261025d579151918591610d02610cd2565b503d610d2f565b8581969297503d8311610d7f575b610d6d81836117c1565b8101031261025d578a9351945f610caa565b503d610d63565b50905f87519163ec442f0560e01b8352820152fd5b606490601d85602089519362461bcd60e51b85528401528201527f496e73756666696369656e74206c6971756964697479206d696e7465640000006044820152fd5b83601188634e487b7160e01b5f52525ffd5b8560118a634e487b7160e01b5f52525ffd5b875162461bcd60e51b81526020818b0152601e818801527f496e73756666696369656e7420696e697469616c206c697175696469747900006044820152606490fd5b90919350610e5a84610e55818461186b565b611988565b821c9190610b7e565b8760118c634e487b7160e01b5f52525ffd5b9115610b895760019150610b89565b600854610e918185611858565b93610e9f600754809661186b565b96808811610ef1575090610ece610ed3610eda93610ec16064358b10156118cc565b98965b610ece868b611858565b61186b565b9386611858565b80821015610eea57505b95610bdb565b9050610ee4565b9650610f0182610ece878a611858565b908111610f285790610ece610ed3610eda93610f21604435821015611889565b9896610ec4565b8560018a634e487b7160e01b5f52525ffd5b845162461bcd60e51b8152602081880152600f818501526e496e76616c696420616d6f756e747360881b6044820152606490fd5b50831515610b43565b3461025d575f36600319011261025d57610f8f611a5c565b600680546001600160a01b031981169091555f906001600160a01b03167f8be0079c531659141344cd1fd0a4f28419497f9722a3daafe3b4186f6b6457e08280a3005b503461025d57602036600319011261025d576020906001600160a01b03610ff7611779565b165f525f8252805f20549051908152f35b503461025d575f36600319011261025d5760209060ff60065460a01c1690519015158152f35b503461025d575f36600319011261025d576020906008549051908152f35b50903461025d5760a036600319011261025d576024906001600160a01b038135608435828116810361025d57611080611a88565b61108e4260643510156117f7565b811561132757335f526020925f845282875f2054106112ee57600254956110cb6110be88610ece60075488611858565b97610ece60085487611858565b956110d98235891015611889565b6110e76044358810156118cc565b33156112db57335f525f8652885f20548581106112af578590335f525f885203895f205584600254036002555f89518681525f80516020611bd9833981519152883392a37f000000000000000000000000000000000000000000000000000000000000000091611158898685611aab565b611184887f00000000000000000000000000000000000000000000000000000000000000009687611aab565b89519287848381886370a0823160e01b958683523089840152165afa9485156112a55788945f96611274575b50856007558b51968794859384523090840152165afa90811561126a575f91611239575b6111e2925081600855611858565b6009557f1dc8bb69df2b8e91fbdcbfcf93d951b3f0000f085a95fe3f7946d6161439245d85518061122733948789846040919493926060820195825260208201520152565b0390a260016005558351928352820152f35b90508382813d8311611263575b61125081836117c1565b8101031261025d576111e29151906111d4565b503d611246565b87513d5f823e3d90fd5b8581969297503d831161129e575b61128c81836117c1565b8101031261025d57879351945f6111b0565b503d611282565b8b513d5f823e3d90fd5b895163391434e360e21b8152339281019283526020830191909152604082018690529081906060010390fd5b5f895191634b637e8f60e11b8352820152fd5b865162461bcd60e51b815280860185905260148188015273496e73756666696369656e742062616c616e636560601b6044820152606490fd5b855162461bcd60e51b815260208186015260118187015270496e76616c6964206c697175696469747960781b6044820152606490fd5b503461025d575f36600319011261025d576020905161dead8152f35b503461025d575f36600319011261025d576020906007549051908152f35b503461025d575f36600319011261025d576113b0611a5c565b6006549160ff8360a01c16156113f85760ff60a01b19831660065581513381527f5db9ee0a495bf2e6ff9c91a7834c1ba4fdd244a5e8aa4e537bd38aeae4b073aa90602090a1005b9051638dfc202b60e01b8152fd5b503461025d575f36600319011261025d576020905160128152f35b50903461025d57606036600319011261025d5761143c611779565b61144461178f565b906044359260018060a01b038216805f526001602052855f20335f52602052855f2054915f19831061147f575b602087610958888888611995565b8583106114e75781156114d15733156114bb57505f90815260016020908152868220338352815290869020918590039091558290610958611471565b6024905f885191634a1406b160e11b8352820152fd5b6024905f88519163e602df0560e01b8352820152fd5b8651637dc7a0d960e11b8152339181019182526020820193909352604081018690528291506060010390fd5b503461025d575f36600319011261025d576020906002549051908152f35b503461025d575f36600319011261025d57517f00000000000000000000000000000000000000000000000000000000000000006001600160a01b03168152602090f35b503461025d578060031936011261025d5761158d611779565b602435903315611606576001600160a01b03169081156115f05760209350335f5260018452825f20825f52845280835f205582519081527f8c5be1e5ebec7d5bd14f71427d1e84f3dd0314c0f7b2291e5b200ac8c7c3b925843392a35160018152f35b8251634a1406b160e11b81525f81860152602490fd5b825163e602df0560e01b81525f81860152602490fd5b503461025d575f36600319011261025d5760075460085482519182526020820152f35b9190503461025d575f36600319011261025d575f9260035460018160011c91600181168015611728575b602094858510821461171557508387529081156116f5575060011461169b575b5050506109bb826109c59403836117c1565b60035f9081529295507fc2575a0e9e593c00f959f8c92f12db2869c3395a3b0502d05e2516446f71f85b5b8284106116e257505050826109c5946109bb9282010194611689565b80548685018801529286019281016116c6565b60ff1916868501525050151560051b83010192506109bb826109c5611689565b602290634e487b7160e01b5f525260245ffd5b92607f1692611669565b602080825282518183018190529093925f5b82811061176557505060409293505f838284010152601f8019910116010190565b818101860151848201604001528501611744565b600435906001600160a01b038216820361025d57565b602435906001600160a01b038216820361025d57565b3461025d575f36600319011261025d5760206040516103e88152f35b90601f8019910116810190811067ffffffffffffffff8211176117e357604052565b634e487b7160e01b5f52604160045260245ffd5b156117fe57565b60405162461bcd60e51b8152602060048201526007602482015266115e1c1a5c995960ca1b6044820152606490fd5b906103e59182810292818404149015171561184457565b634e487b7160e01b5f52601160045260245ffd5b8181029291811591840414171561184457565b8115611875570490565b634e487b7160e01b5f52601260045260245ffd5b1561189057565b60405162461bcd60e51b81526020600482015260146024820152730496e73756666696369656e7420616d6f756e74360641b6044820152606490fd5b156118d357565b60405162461bcd60e51b8152602060048201526014602482015273496e73756666696369656e7420616d6f756e743160601b6044820152606490fd5b1561191657565b60405162461bcd60e51b815260206004820152600d60248201526c24b73b30b634b2103a37b5b2b760991b6044820152606490fd5b1561195257565b60405162461bcd60e51b815260206004820152600e60248201526d125b9d985b1a5908185b5bdd5b9d60921b6044820152606490fd5b9190820180921161184457565b916001600160a01b03808416928315611a445716928315611a2c57825f525f60205260405f2054908282106119fa5750815f80516020611bd983398151915292602092855f525f84520360405f2055845f5260405f20818154019055604051908152a3565b60405163391434e360e21b81526001600160a01b03919091166004820152602481019190915260448101829052606490fd5b60405163ec442f0560e01b81525f6004820152602490fd5b604051634b637e8f60e11b81525f6004820152602490fd5b6006546001600160a01b03163303611a7057565b60405163118cdaa760e01b8152336004820152602490fd5b600260055414611a99576002600555565b604051633ee5aeb560e01b8152600490fd5b60405163a9059cbb60e01b60208201526001600160a01b039092166024830152604480830193909352918152608081019167ffffffffffffffff8311828410176117e357611afb92604052611b73565b565b60ff60065460a01c16611b0c57565b60405163d93c066560e01b8152600490fd5b6040516323b872dd60e01b60208201526001600160a01b03928316602482015292909116604483015260648083019390935291815260a081019181831067ffffffffffffffff8411176117e357611afb926040525b905f602091828151910182855af115611bcd575f513d611bc457506001600160a01b0381163b155b611ba25750565b604051635274afe760e01b81526001600160a01b039091166004820152602490fd5b60011415611b9b565b6040513d5f823e3d90fdfeddf252ad1be2c89b69c2b068fc378daa952ba7f163c4a11628f55a4df523b3efa2646970667358221220ca4ece06a4e434077f01189bb72f1b0a1a2ad6224b154124e8bcffa3adcfaaff64736f6c63430008180033",
  "linkReferences": {},
  "deployedLinkReferences": {}
}