{"contracts/advanced/DEXAggregator.sol":{"DEXAggregator":{"abi":[{"inputs":[{"internalType":"address","name":"_feeCollector","type":"address"}],"stateMutability":"nonpayable","type":"constructor"},{"inputs":[{"internalType":"address","name":"owner","type":"address"}],"name":"OwnableInvalidOwner","type":"error"},{"inputs":[{"internalType":"address","name":"account","type":"address"}],"name":"OwnableUnauthorizedAccount","type":"error"},{"inputs":[],"name":"ReentrancyGuardReentrantCall","type":"error"},{"inputs":[{"internalType":"address","name":"token","type":"address"}],"name":"SafeERC20FailedOperation","type":"error"},{"anonymous":false,"inputs":[{"indexed":true,"internalType":"uint256","name":"dexId","type":"uint256"},{"indexed":false,"internalType":"address","name":"router","type":"address"},{"indexed":false,"internalType":"string","name":"name","type":"string"}],"name":"DEXAdded","type":"event"},{"anonymous":false,"inputs":[{"indexed":true,"internalType":"uint256","name":"dexId","type":"uint256"},{"indexed":false,"internalType":"bool","name":"isActive","type":"bool"}],"name":"DEXUpdated","type":"event"},{"anonymous":false,"inputs":[{"indexed":true,"internalType":"address","name":"previousOwner","type":"address"},{"indexed":true,"internalType":"address","name":"newOwner","type":"address"}],"name":"OwnershipTransferred","type":"event"},{"anonymous":false,"inputs":[{"indexed":true,"internalType":"address","name":"user","type":"address"},{"indexed":false,"internalType":"uint256","name":"dexId","type":"uint256"},{"indexed":false,"internalType":"address","name":"tokenIn","type":"address"},{"indexed":false,"internalType":"address","name":"tokenOut","type":"address"},{"indexed":false,"internalType":"uint256","name":"amountIn","type":"uint256"},{"indexed":false,"internalType":"uint256","name":"amountOut","type":"uint256"}],"name":"SwapExecuted","type":"event"},{"inputs":[{"internalType":"address","name":"router","type":"address"},{"internalType":"string","name":"name","type":"string"}],"name":"addDEX","outputs":[],"stateMutability":"nonpayable","type":"function"},{"inputs":[],"name":"dexCount","outputs":[{"internalType":"uint256","name":"","type":"uint256"}],"stateMutability":"view","type":"function"},{"inputs":[{"internalType":"uint256","name":"","type":"uint256"}],"name":"dexes","outputs":[{"internalType":"address","name":"router","type":"address"},{"internalType":"bool","name":"isActive","type":"bool"},{"internalType":"string","name":"name","type":"string"}],"stateMutability":"view","type":"function"},{"inputs":[{"internalType":"address","name":"token","type":"address"},{"internalType":"uint256","name":"amount","type":"uint256"}],"name":"emergencyWithdraw","outputs":[],"stateMutability":"nonpayable","type":"function"},{"inputs":[],"name":"feeCollector","outputs":[{"internalType":"address","name":"","type":"address"}],"stateMutability":"view","type":"function"},{"inputs":[],"name":"feePercentage","outputs":[{"internalType":"uint256","name":"","type":"uint256"}],"stateMutability":"view","type":"function"},{"inputs":[{"internalType":"address","name":"tokenIn","type":"address"},{"internalType":"address","name":"tokenOut","type":"address"},{"internalType":"uint256","name":"amountIn","type":"uint256"}],"name":"getAllQuotes","outputs":[{"components":[{"internalType":"uint256","name":"dexId","type":"uint256"},{"internalType":"uint256","name":"amountOut","type":"uint256"},{"internalType":"address[]","name":"path","type":"address[]"}],"internalType":"struct DEXAggregator.Quote[]","name":"quotes","type":"tuple[]"}],"stateMutability":"view","type":"function"},{"inputs":[{"internalType":"address","name":"tokenIn","type":"address"},{"internalType":"address","name":"tokenOut","type":"address"},{"internalType":"uint256","name":"amountIn","type":"uint256"}],"name":"getBestQuote","outputs":[{"components":[{"internalType":"uint256","name":"dexId","type":"uint256"},{"internalType":"uint256","name":"amountOut","type":"uint256"},{"internalType":"address[]","name":"path","type":"address[]"}],"internalType":"struct DEXAggregator.Quote","name":"bestQuote","type":"tuple"}],"stateMutability":"view","type":"function"},{"inputs":[{"internalType":"address","name":"tokenIn","type":"address"},{"internalType":"address","name":"tokenOut","type":"address"},{"internalType":"uint256","name":"amountIn","type":"uint256"},{"internalType":"address[]","name":"customPath","type":"address[]"}],"name":"getBestQuoteWithPath","outputs":[{"components":[{"internalType":"uint256","name":"dexId","type":"uint256"},{"internalType":"uint256","name":"amountOut","type":"uint256"},{"internalType":"address[]","name":"path","type":"address[]"}],"internalType":"struct DEXAggregator.Quote","name":"bestQuote","type":"tuple"}],"stateMutability":"view","type":"function"},{"inputs":[],"name":"owner","outputs":[{"internalType":"address","name":"","type":"address"}],"stateMutability":"view","type":"function"},{"inputs":[],"name":"renounceOwnership","outputs":[],"stateMutability":"nonpayable","type":"function"},{"inputs":[{"internalType":"uint256","name":"dexId","type":"uint256"},{"internalType":"bool","name":"isActive","type":"bool"}],"name":"setDEXStatus","outputs":[],"stateMutability":"nonpayable","type":"function"},{"inputs":[{"internalType":"address","name":"newCollector","type":"address"}],"name":"setFeeCollector","outputs":[],"stateMutability":"nonpayable","type":"function"},{"inputs":[{"internalType":"uint256","name":"newFee","type":"uint256"}],"name":"setFeePercentage","outputs":[],"stateMutability":"nonpayable","type":"function"},{"inputs":[{"internalType":"uint256","name":"dexId","type":"uint256"},{"internalType":"address","name":"tokenIn","type":"address"},{"internalType":"address","name":"tokenOut","type":"address"},{"internalType":"uint256","name":"amountIn","type":"uint256"},{"internalType":"uint256","name":"minAmountOut","type":"uint256"},{"internalType":"uint256","name":"deadline","type":"uint256"}],"name":"swapOnSpecificDEX","outputs":[{"internalType":"uint256","name":"amountOut","type":"uint256"}],"stateMutability":"nonpayable","type":"function"},{"inputs":[{"internalType":"address","name":"tokenIn","type":"address"},{"internalType":"address","name":"tokenOut","type":"address"},{"internalType":"uint256","name":"amountIn","type":"uint256"},{"internalType":"uint256","name":"minAmountOut","type":"uint256"},{"internalType":"uint256","name":"deadline","type":"uint256"}],"name":"swapWithBestRate","outputs":[{"internalType":"uint256","name":"amountOut","type":"uint256"}],"stateMutability":"nonpayable","type":"function"},{"inputs":[{"internalType":"address","name":"tokenIn","type":"address"},{"internalType":"address","name":"tokenOut","type":"address"},{"internalType":"uint256","name":"amountIn","type":"uint256"},{"internalType":"uint256","name":"minAmountOut","type":"uint256"},{"internalType":"uint256","name":"deadline","type":"uint256"},{"internalType":"address[]","name":"customPath","type":"address[]"}],"name":"swapWithBestRateAndPath","outputs":[{"internalType":"uint256","name":"amountOut","type":"uint256"}],"stateMutability":"nonpayable","type":"function"},{"inputs":[{"internalType":"address","name":"newOwner","type":"address"}],"name":"transferOwnership","outputs":[],"stateMutability":"nonpayable","type":"function"}],"evm":{"bytecode":{"linkReferences":{},"object":"6080346100cb57601f611d2538819003918201601f19168301916001600160401b038311848410176100cf578084926020946040528339810103126100cb57516001600160a01b0390818116908190036100cb5733156100b3575f5460018060a01b03199033828216175f55604051933391167f8be0079c531659141344cd1fd0a4f28419497f9722a3daafe3b4186f6b6457e05f80a360018055600a6004556005541617600555611c4190816100e48239f35b604051631e4fbdf760e01b81525f6004820152602490fd5b5f80fd5b634e487b7160e01b5f52604160045260245ffdfe604060808152600480361015610013575f80fd5b5f3560e01c806309f1578c14610fa55780631045ef5314610f4e578063228c04b814610f1b5780632e4e843814610cec5780634d541a5e14610c4f5780636338a7c014610b1b5780636a65f8af14610897578063715018a6146108405780638da5cb5b1461081957806395ccea67146107e0578063a001ecdd146107c3578063a42dce8014610748578063ab3046951461072a578063ae06c1b7146106cf578063c415b95c146106a7578063cc44969314610452578063dcbe43d9146101705763f2fde38b146100e1575f80fd5b3461016c57602036600319011261016c576100fa61119a565b90610103611b7b565b6001600160a01b039182169283156101565750505f54826bffffffffffffffffffffffff60a01b8216175f55167f8be0079c531659141344cd1fd0a4f28419497f9722a3daafe3b4186f6b6457e05f80a3005b905f6024925191631e4fbdf760e01b8352820152fd5b5f80fd5b50903461016c578060031936011261016c5761018a61119a565b67ffffffffffffffff929060243584811161016c573660238201121561016c57808301359085821161016c576024810190602483369201011161016c576101cf611b7b565b6001600160a01b0392831692831561041e57908592916003546101f190611587565b80600355845190610201826112d0565b8682526020978893848401936001948592838252601f199586601f8c01169b898d9a82519b01610231908c611300565b8c8b528c8c828d01378c8b01015f905284019889525f5260028d528d5f209251166bffffffffffffffffffffffff60a01b83541617825551151561028d90829081549060ff60a01b90151560a01b169060ff60a01b1916179055565b0193519081519b8c1161040b57508a6102a68554611298565b601f81116103c3575b50508891601f8c11600114610338575093606097969592938b807f26990cd2b13dcf3ef97299f3913751ca0b41d1ae4ca019c7273d5587969bb5cd9c9d8b9787965f9a8b9461032d575b50501b9188199060031b1c19161790555b816003549b8080519b8c9a8b528a015288015283870137840101528101030190a2005b015192505f806102f9565b8b92919b169a845f52895f209b5f5b8181106103ae575093837f26990cd2b13dcf3ef97299f3913751ca0b41d1ae4ca019c7273d5587969bb5cd9c9d5f989460609c9b9a979488978e9a9610610396575b505050811b01905561030a565b0151891960f88460031b161c191690555f8080610389565b838301518e559c85019c928b01928b01610347565b855f528a5f20908b601f840160051c83019310610401575b601f0160051c019084905b8281106103f657508c91506102af565b5f81550184906103e6565b90915081906103db565b604190634e487b7160e01b5f525260245ffd5b855162461bcd60e51b8152602081870152600e60248201526d24b73b30b634b2103937baba32b960911b6044820152606490fd5b503461016c5760a036600319011261016c5761046c61119a565b916104756111b0565b604435906064359460843594610489611abc565b61049542871015611322565b6104a08484846118ed565b956020976104b3818a8a01511015611361565b6127106104c18454886113ad565b04906104cd82886113d4565b916001600160a01b0390610538908c908590898516906104ef8d303385611adf565b80610692575b508d515f908152600284528d8120548e5163095ea7b360e01b81529087166001600160a01b03168b82019081526020810194909452948593849291839160400190565b03925af1801561068857905f9493929161065b575b508a51845260028c52898420541690838a8c0151916105828c51978896879586946338ed173960e01b865233928d8701611a83565b03925af1908115610651575f9161062f575b5080515f1981019290831161061c57506105d47f68edebf1045a55566772f499c77f50fcae79ebdd0534e73dead3a12ad2076fd794939261060f926114ff565b51965186519081526001600160a01b0392831660208201529290911660408301526060820193909352608081018590523392819060a0820190565b0390a26001805551908152f35b601190634e487b7160e01b5f525260245ffd5b61064b91503d805f833e6106438183611300565b810190611411565b5f610594565b86513d5f823e3d90fd5b61067a908d803d10610681575b6106728183611300565b8101906113e1565b505f61054d565b503d610668565b8a513d5f823e3d90fd5b6106a190866005541683611b3a565b5f6104f5565b823461016c575f36600319011261016c5760055490516001600160a01b039091168152602090f35b503461016c57602036600319011261016c578035916106ec611b7b565b606483116106f8575055005b906020606492519162461bcd60e51b8352820152600c60248201526b08ccaca40e8dede40d0d2ced60a31b6044820152fd5b823461016c575f36600319011261016c576020906003549051908152f35b503461016c57602036600319011261016c5761076261119a565b61076a611b7b565b6001600160a01b031691821561078e57600580546001600160a01b03191684179055005b906020606492519162461bcd60e51b8352820152600f60248201526e496e76616c6964206164647265737360881b6044820152fd5b50903461016c575f36600319011261016c57602091549051908152f35b823461016c5736600319011261016c576108176107fb61119a565b610803611b7b565b6024359033906001600160a01b0316611b3a565b005b823461016c575f36600319011261016c575f5490516001600160a01b039091168152602090f35b3461016c575f36600319011261016c57610858611b7b565b5f80546001600160a01b0319811682556001600160a01b03167f8be0079c531659141344cd1fd0a4f28419497f9722a3daafe3b4186f6b6457e08280a3005b503461016c5760c036600319011261016c578035916108b46111b0565b6001600160a01b0393604435858116949192909185830361016c576064359560a435906108df611abc565b85151580610b0f575b6108f190611a46565b855f5260209860028a5260ff885f205460a01c1615610adb576109739061091a42851015611322565b6109ba8b8b8b519561092b876112d0565b600287528c368489013761093e876114ce565b90858b1680925261094e886114ef565b5261271061095d8a54846113ad565b0461096881846113d4565b968793303385611adf565b80610ac6575b505f8c8152600284528d8120548e5163095ea7b360e01b81529087166001600160a01b03168b82019081526020810194909452948593849291839160400190565b03925af18015610688575f949260028e610a039896948894610aa9575b508c8452528b82205416928b51968795869485936338ed173960e01b85523391608435908d8701611a83565b03925af1908115610651575f91610a8f575b5080515f1981019290831161061c5750610a557f68edebf1045a55566772f499c77f50fcae79ebdd0534e73dead3a12ad2076fd794939261060f926114ff565b5186519586526001600160a01b039283166020870152919092166040850152606084019590955260808301859052339290819060a0820190565b610aa391503d805f833e6106438183611300565b5f610a15565b610abf90823d8411610681576106728183611300565b505f6109d7565b610ad590866005541683611b3a565b5f610979565b875162461bcd60e51b81528085018b9052600e60248201526d444558206e6f742061637469766560901b6044820152606490fd5b506003548611156108e8565b503461016c576020908160031936011261016c57355f5260028152815f2090815492600180930181519384915f91815491610b5583611298565b92838652876001821691825f14610c29575050600114610bea575b50505091610b8660609260ff9795940386611300565b805195869460018060a01b038116865260a01c161515838501528301528251908160608401525f935b828510610bd1575050608092505f838284010152601f80199101168101030190f35b8481018201518686016080015293810193859350610baf565b8693505f92919252825f20915f925b828410610c115750505082010181610b866060610b70565b8054848a018601528895508794909301928101610bf9565b60ff19168782015293151560051b86019093019350849250610b86915060609050610b70565b503461016c578160031936011261016c57359060243580151580820361016c577f8aec059dffcbe4e23758754ff21af91bd5fa84f758e08398cf230769d2f2986892610cd9602093610c9f611b7b565b86151580610ce0575b610cb190611a46565b5f87815260028652839020805460ff60a01b191691151560a01b60ff60a01b16919091179055565b51908152a2005b50600354871115610ca8565b503461016c57610cfb36611263565b9092918451610d09816112d0565b60029160028252602095873688850137610d22836114ce565b6001600160a01b03928316905281610d39846114ef565b911690525f94600194600354955b86811115610ee35750610d71610d5c886113f9565b97610d698b51998a611300565b8089526113f9565b601f1901885f5b828110610ecd575050505f946001955b87871115610dec578a8a8a825191808301818452825180915281858501958260051b8601019301915f955b828710610dc05785850386f35b909192938280610ddc600193603f198a8203018652885161120b565b9601920196019592919092610db3565b865f52818a528a5f2054908a8c60ff8460a01c1615610ec0579088825f610e8596959451809663d06ca61f60e01b82528a8c830152836024830152818d81610e3760448201896118b1565b0392165afa5f9581610ea4575b50610e8b57610e7f94505f815193610e5b856112d0565b8d8552840152820152610e6e828d6114ff565b52610e79818c6114ff565b50611587565b96611587565b95610d88565b610e97610e7f956114ef565b51815193610e5b856112d0565b610eb99196503d805f833e6106438183611300565b945f610e44565b505096610e859150611587565b610ed5611513565b82828c010152018990610d78565b805f5285895260ff8a5f205460a01c16610f06575b610f0190611587565b610d47565b96610f13610f0191611587565b979050610ef8565b823461016c57610f4a90610f37610f3136611263565b916118ed565b905191829160208352602083019061120b565b0390f35b50903461016c57608036600319011261016c57610f6961119a565b91610f726111b0565b926064359367ffffffffffffffff851161016c57610f99610f3793610f4a963691016111da565b929091604435916115d8565b503461016c5760c036600319011261016c57610fbf61119a565b91610fc86111b0565b60443590606435946084359460a43567ffffffffffffffff811161016c57610ff390369083016111da565b610ffb611abc565b61100742891015611322565b61101481838888886115d8565b97602099611027818c8c01511015611361565b89866110aa8d8c8c61271061103d8c54836113ad565b049161104983836113d4565b966001600160a01b039688949088169361106590303387611adf565b80611185575b50515f52600284525f8c87838320541692519687958694859363095ea7b360e01b8552840160209093929193604081019460018060a01b031681520152565b03925af1801561117b579160028f8f5f99989796948a9661115e575b50518552528c83205416936111018d51988997889687956338ed173960e01b87528d870152602486015260a0604486015260a485019161148b565b90336064840152608483015203925af1908115610651575f9161062f575080515f1981019290831161061c57506105d47f68edebf1045a55566772f499c77f50fcae79ebdd0534e73dead3a12ad2076fd794939261060f926114ff565b61117490833d8511610681576106728183611300565b505f6110c6565b8c513d5f823e3d90fd5b61119490886005541685611b3a565b5f61106b565b600435906001600160a01b038216820361016c57565b602435906001600160a01b038216820361016c57565b35906001600160a01b038216820361016c57565b9181601f8401121561016c5782359167ffffffffffffffff831161016c576020808501948460051b01011161016c57565b606082018151835260206080604082948381015184880152015194606060408201528551809452019301915f5b828110611246575050505090565b83516001600160a01b031685529381019392810192600101611238565b606090600319011261016c576001600160a01b0390600435828116810361016c5791602435908116810361016c579060443590565b90600182811c921680156112c6575b60208310146112b257565b634e487b7160e01b5f52602260045260245ffd5b91607f16916112a7565b6060810190811067ffffffffffffffff8211176112ec57604052565b634e487b7160e01b5f52604160045260245ffd5b90601f8019910116810190811067ffffffffffffffff8211176112ec57604052565b1561132957565b60405162461bcd60e51b815260206004820152601060248201526f4578706972656420646561646c696e6560801b6044820152606490fd5b1561136857565b60405162461bcd60e51b815260206004820152601a60248201527f496e73756666696369656e74206f757470757420616d6f756e740000000000006044820152606490fd5b818102929181159184041417156113c057565b634e487b7160e01b5f52601160045260245ffd5b919082039182116113c057565b9081602091031261016c5751801515810361016c5790565b67ffffffffffffffff81116112ec5760051b60200190565b602090818184031261016c5780519067ffffffffffffffff821161016c57019180601f8401121561016c578251611447816113f9565b936114556040519586611300565b818552838086019260051b82010192831161016c578301905b82821061147c575050505090565b8151815290830190830161146e565b9190808252602080920192915f5b8281106114a7575050505090565b909192938280600192838060a01b036114bf896111c6565b16815201950193929101611499565b8051156114db5760200190565b634e487b7160e01b5f52603260045260245ffd5b8051600110156114db5760400190565b80518210156114db5760209160051b010190565b60405190611520826112d0565b60606040835f81525f60208201520152565b1561153957565b60405162461bcd60e51b81526020600482015260126024820152710416d6f756e74206d757374206265203e20360741b6044820152606490fd5b356001600160a01b038116810361016c5790565b5f1981146113c05760010190565b1561159c57565b60405162461bcd60e51b8152602060048201526014602482015273139bc81d985b1a59081c9bdd5d1948199bdd5b9960621b6044820152606490fd5b9392906115e3611513565b506115ef831515611532565b600280851061187d5784156114db5761160783611573565b6001600160a01b0396871690871603611838575f19918583018681116113c057868110156114db578761163f819260051b8701611573565b92169116036117f3575f935f96600192600354935b848111156116dc5750505050505061166d841515611595565b6040519361167a856112d0565b8452602091602085015261168d836113f9565b9261169b6040519485611300565b808452602084019060051b82019136831161016c57905b8282106116c55750505050604082015290565b8380916116d1846111c6565b8152019101906116b2565b805f528160205283604088815f20548c60ff8260a01c16156117e557915f9184938961172b965180978195829463d06ca61f60e01b845260049b8c8501526024998a850152604484019161148b565b0392165afa5f92816117c9575b5061174e5750505061174990611587565b611654565b81518981019081116117b6576117658c91846114ff565b5111611778575b50505061174990611587565b9193995080929b5051928784019384116117a557505090611798916114ff565b5195886117495f8061176c565b601190634e487b7160e01b5f52525ffd5b50634e487b7160e01b5f90815260118452fd5b6117de9193503d805f833e6106438183611300565b915f611738565b505050505061174990611587565b60405162461bcd60e51b815260206004820152601b60248201527f50617468206d75737420656e64207769746820746f6b656e4f757400000000006044820152606490fd5b60405162461bcd60e51b815260206004820152601c60248201527f50617468206d757374207374617274207769746820746f6b656e496e000000006044820152606490fd5b60405162461bcd60e51b815260206004820152600c60248201526b092dcecc2d8d2c840e0c2e8d60a31b6044820152606490fd5b9081518082526020808093019301915f5b8281106118d0575050505090565b83516001600160a01b0316855293810193928101926001016118c2565b916118f6611513565b50611902811515611532565b604090815192611911846112d0565b600294600285526020918436602088013761192b866114ce565b6001600160a01b03928316905281611942876114ef565b911690525f925f96600193600354945b858111156119845750505050505061196b841515611595565b815193611977856112d0565b8452602084015282015290565b805f5282825288885f205460ff8160a01c1615611a3b576119ca915f918b89815180968195829463d06ca61f60e01b84528d6004850152602484015260448301906118b1565b0392165afa5f9181611a1f575b506119eb57506119e690611587565b611952565b876119f5826114ef565b5111611a06575b506119e690611587565b909950611a149196506114ef565b5194886119e66119fc565b611a349192503d805f833e6106438183611300565b905f6119d7565b50506119e690611587565b15611a4d57565b60405162461bcd60e51b815260206004820152600e60248201526d125b9d985b1a590811115608125160921b6044820152606490fd5b9192608093611aa892979695978452602084015260a0604084015260a08301906118b1565b6001600160a01b0390951660608201520152565b600260015414611acd576002600155565b604051633ee5aeb560e01b8152600490fd5b6040516323b872dd60e01b60208201526001600160a01b03928316602482015292909116604483015260648083019390935291815260a081019181831067ffffffffffffffff8411176112ec57611b3892604052611ba6565b565b60405163a9059cbb60e01b60208201526001600160a01b03929092166024830152604480830193909352918152611b3891611b76606483611300565b611ba6565b5f546001600160a01b03163303611b8e57565b60405163118cdaa760e01b8152336004820152602490fd5b905f602091828151910182855af115611c00575f513d611bf757506001600160a01b0381163b155b611bd55750565b604051635274afe760e01b81526001600160a01b039091166004820152602490fd5b60011415611bce565b6040513d5f823e3d90fdfea2646970667358221220d1d6d5a6f47e6e7036913603940f2294f46ec659a8da26410108697eee4db87264736f6c63430008180033","opcodes":"PUSH1 0x80 CALLVALUE PUSH2 0xCB JUMPI PUSH1 0x1F PUSH2 0x1D25 CODESIZE DUP2 SWAP1 SUB SWAP2 DUP3 ADD PUSH1 0x1F NOT AND DUP4 ADD SWAP2 PUSH1 0x1 PUSH1 0x1 PUSH1 0x40 SHL SUB DUP4 GT DUP5 DUP5 LT OR PUSH2 0xCF JUMPI DUP1 DUP5 SWAP3 PUSH1 0x20 SWAP5 PUSH1 0x40 MSTORE DUP4 CODECOPY DUP2 ADD SUB SLT PUSH2 0xCB JUMPI MLOAD PUSH1 0x1 PUSH1 0x1 PUSH1 0xA0 SHL SUB SWAP1 DUP2 DUP2 AND SWAP1 DUP2 SWAP1 SUB PUSH2 0xCB JUMPI CALLER ISZERO PUSH2 0xB3 JUMPI PUSH0 SLOAD PUSH1 0x1 DUP1 PUSH1 0xA0 SHL SUB NOT SWAP1 CALLER DUP3 DUP3 AND OR PUSH0 SSTORE PUSH1 0x40 MLOAD SWAP4 CALLER SWAP2 AND PUSH32 0x8BE0079C531659141344CD1FD0A4F28419497F9722A3DAAFE3B4186F6B6457E0 PUSH0 DUP1 LOG3 PUSH1 0x1 DUP1 SSTORE PUSH1 0xA PUSH1 0x4 SSTORE PUSH1 0x5 SLOAD AND OR PUSH1 0x5 SSTORE PUSH2 0x1C41 SWAP1 DUP2 PUSH2 0xE4 DUP3 CODECOPY RETURN JUMPDEST PUSH1 0x40 MLOAD PUSH4 0x1E4FBDF7 PUSH1 0xE0 SHL DUP2 MSTORE PUSH0 PUSH1 0x4 DUP3 ADD MSTORE PUSH1 0x24 SWAP1 REVERT JUMPDEST PUSH0 DUP1 REVERT JUMPDEST PUSH4 0x4E487B71 PUSH1 0xE0 SHL PUSH0 MSTORE PUSH1 0x41 PUSH1 0x4 MSTORE PUSH1 0x24 PUSH0 REVERT INVALID PUSH1 0x40 PUSH1 0x80 DUP2 MSTORE PUSH1 0x4 DUP1 CALLDATASIZE LT ISZERO PUSH2 0x13 JUMPI PUSH0 DUP1 REVERT JUMPDEST PUSH0 CALLDATALOAD PUSH1 0xE0 SHR DUP1 PUSH4 0x9F1578C EQ PUSH2 0xFA5 JUMPI DUP1 PUSH4 0x1045EF53 EQ PUSH2 0xF4E JUMPI DUP1 PUSH4 0x228C04B8 EQ PUSH2 0xF1B JUMPI DUP1 PUSH4 0x2E4E8438 EQ PUSH2 0xCEC JUMPI DUP1 PUSH4 0x4D541A5E EQ PUSH2 0xC4F JUMPI DUP1 PUSH4 0x6338A7C0 EQ PUSH2 0xB1B JUMPI DUP1 PUSH4 0x6A65F8AF EQ PUSH2 0x897 JUMPI DUP1 PUSH4 0x715018A6 EQ PUSH2 0x840 JUMPI DUP1 PUSH4 0x8DA5CB5B EQ PUSH2 0x819 JUMPI DUP1 PUSH4 0x95CCEA67 EQ PUSH2 0x7E0 JUMPI DUP1 PUSH4 0xA001ECDD EQ PUSH2 0x7C3 JUMPI DUP1 PUSH4 0xA42DCE80 EQ PUSH2 0x748 JUMPI DUP1 PUSH4 0xAB304695 EQ PUSH2 0x72A JUMPI DUP1 PUSH4 0xAE06C1B7 EQ PUSH2 0x6CF JUMPI DUP1 PUSH4 0xC415B95C EQ PUSH2 0x6A7 JUMPI DUP1 PUSH4 0xCC449693 EQ PUSH2 0x452 JUMPI DUP1 PUSH4 0xDCBE43D9 EQ PUSH2 0x170 JUMPI PUSH4 0xF2FDE38B EQ PUSH2 0xE1 JUMPI PUSH0 DUP1 REVERT JUMPDEST CALLVALUE PUSH2 0x16C JUMPI PUSH1 0x20 CALLDATASIZE PUSH1 0x3 NOT ADD SLT PUSH2 0x16C JUMPI PUSH2 0xFA PUSH2 0x119A JUMP JUMPDEST SWAP1 PUSH2 0x103 PUSH2 0x1B7B JUMP JUMPDEST PUSH1 0x1 PUSH1 0x1 PUSH1 0xA0 SHL SUB SWAP2 DUP3 AND SWAP3 DUP4 ISZERO PUSH2 0x156 JUMPI POP POP PUSH0 SLOAD DUP3 PUSH12 0xFFFFFFFFFFFFFFFFFFFFFFFF PUSH1 0xA0 SHL DUP3 AND OR PUSH0 SSTORE AND PUSH32 0x8BE0079C531659141344CD1FD0A4F28419497F9722A3DAAFE3B4186F6B6457E0 PUSH0 DUP1 LOG3 STOP JUMPDEST SWAP1 PUSH0 PUSH1 0x24 SWAP3 MLOAD SWAP2 PUSH4 0x1E4FBDF7 PUSH1 0xE0 SHL DUP4 MSTORE DUP3 ADD MSTORE REVERT JUMPDEST PUSH0 DUP1 REVERT JUMPDEST POP SWAP1 CALLVALUE PUSH2 0x16C JUMPI DUP1 PUSH1 0x3 NOT CALLDATASIZE ADD SLT PUSH2 0x16C JUMPI PUSH2 0x18A PUSH2 0x119A JUMP JUMPDEST PUSH8 0xFFFFFFFFFFFFFFFF SWAP3 SWAP1 PUSH1 0x24 CALLDATALOAD DUP5 DUP2 GT PUSH2 0x16C JUMPI CALLDATASIZE PUSH1 0x23 DUP3 ADD SLT ISZERO PUSH2 0x16C JUMPI DUP1 DUP4 ADD CALLDATALOAD SWAP1 DUP6 DUP3 GT PUSH2 0x16C JUMPI PUSH1 0x24 DUP2 ADD SWAP1 PUSH1 0x24 DUP4 CALLDATASIZE SWAP3 ADD ADD GT PUSH2 0x16C JUMPI PUSH2 0x1CF PUSH2 0x1B7B JUMP JUMPDEST PUSH1 0x1 PUSH1 0x1 PUSH1 0xA0 SHL SUB SWAP3 DUP4 AND SWAP3 DUP4 ISZERO PUSH2 0x41E JUMPI SWAP1 DUP6 SWAP3 SWAP2 PUSH1 0x3 SLOAD PUSH2 0x1F1 SWAP1 PUSH2 0x1587 JUMP JUMPDEST DUP1 PUSH1 0x3 SSTORE DUP5 MLOAD SWAP1 PUSH2 0x201 DUP3 PUSH2 0x12D0 JUMP JUMPDEST DUP7 DUP3 MSTORE PUSH1 0x20 SWAP8 DUP9 SWAP4 DUP5 DUP5 ADD SWAP4 PUSH1 0x1 SWAP5 DUP6 SWAP3 DUP4 DUP3 MSTORE PUSH1 0x1F NOT SWAP6 DUP7 PUSH1 0x1F DUP13 ADD AND SWAP12 DUP10 DUP14 SWAP11 DUP3 MLOAD SWAP12 ADD PUSH2 0x231 SWAP1 DUP13 PUSH2 0x1300 JUMP JUMPDEST DUP13 DUP12 MSTORE DUP13 DUP13 DUP3 DUP14 ADD CALLDATACOPY DUP13 DUP12 ADD ADD PUSH0 SWAP1 MSTORE DUP5 ADD SWAP9 DUP10 MSTORE PUSH0 MSTORE PUSH1 0x2 DUP14 MSTORE DUP14 PUSH0 KECCAK256 SWAP3 MLOAD AND PUSH12 0xFFFFFFFFFFFFFFFFFFFFFFFF PUSH1 0xA0 SHL DUP4 SLOAD AND OR DUP3 SSTORE MLOAD ISZERO ISZERO PUSH2 0x28D SWAP1 DUP3 SWAP1 DUP2 SLOAD SWAP1 PUSH1 0xFF PUSH1 0xA0 SHL SWAP1 ISZERO ISZERO PUSH1 0xA0 SHL AND SWAP1 PUSH1 0xFF PUSH1 0xA0 SHL NOT AND OR SWAP1 SSTORE JUMP JUMPDEST ADD SWAP4 MLOAD SWAP1 DUP2 MLOAD SWAP12 DUP13 GT PUSH2 0x40B JUMPI POP DUP11 PUSH2 0x2A6 DUP6 SLOAD PUSH2 0x1298 JUMP JUMPDEST PUSH1 0x1F DUP2 GT PUSH2 0x3C3 JUMPI JUMPDEST POP POP DUP9 SWAP2 PUSH1 0x1F DUP13 GT PUSH1 0x1 EQ PUSH2 0x338 JUMPI POP SWAP4 PUSH1 0x60 SWAP8 SWAP7 SWAP6 SWAP3 SWAP4 DUP12 DUP1 PUSH32 0x26990CD2B13DCF3EF97299F3913751CA0B41D1AE4CA019C7273D5587969BB5CD SWAP13 SWAP14 DUP12 SWAP8 DUP8 SWAP7 PUSH0 SWAP11 DUP12 SWAP5 PUSH2 0x32D JUMPI JUMPDEST POP POP SHL SWAP2 DUP9 NOT SWAP1 PUSH1 0x3 SHL SHR NOT AND OR SWAP1 SSTORE JUMPDEST DUP2 PUSH1 0x3 SLOAD SWAP12 DUP1 DUP1 MLOAD SWAP12 DUP13 SWAP11 DUP12 MSTORE DUP11 ADD MSTORE DUP9 ADD MSTORE DUP4 DUP8 ADD CALLDATACOPY DUP5 ADD ADD MSTORE DUP2 ADD SUB ADD SWAP1 LOG2 STOP JUMPDEST ADD MLOAD SWAP3 POP PUSH0 DUP1 PUSH2 0x2F9 JUMP JUMPDEST DUP12 SWAP3 SWAP2 SWAP12 AND SWAP11 DUP5 PUSH0 MSTORE DUP10 PUSH0 KECCAK256 SWAP12 PUSH0 JUMPDEST DUP2 DUP2 LT PUSH2 0x3AE JUMPI POP SWAP4 DUP4 PUSH32 0x26990CD2B13DCF3EF97299F3913751CA0B41D1AE4CA019C7273D5587969BB5CD SWAP13 SWAP14 PUSH0 SWAP9 SWAP5 PUSH1 0x60 SWAP13 SWAP12 SWAP11 SWAP8 SWAP5 DUP9 SWAP8 DUP15 SWAP11 SWAP7 LT PUSH2 0x396 JUMPI JUMPDEST POP POP POP DUP2 SHL ADD SWAP1 SSTORE PUSH2 0x30A JUMP JUMPDEST ADD MLOAD DUP10 NOT PUSH1 0xF8 DUP5 PUSH1 0x3 SHL AND SHR NOT AND SWAP1 SSTORE PUSH0 DUP1 DUP1 PUSH2 0x389 JUMP JUMPDEST DUP4 DUP4 ADD MLOAD DUP15 SSTORE SWAP13 DUP6 ADD SWAP13 SWAP3 DUP12 ADD SWAP3 DUP12 ADD PUSH2 0x347 JUMP JUMPDEST DUP6 PUSH0 MSTORE DUP11 PUSH0 KECCAK256 SWAP1 DUP12 PUSH1 0x1F DUP5 ADD PUSH1 0x5 SHR DUP4 ADD SWAP4 LT PUSH2 0x401 JUMPI JUMPDEST PUSH1 0x1F ADD PUSH1 0x5 SHR ADD SWAP1 DUP5 SWAP1 JUMPDEST DUP3 DUP2 LT PUSH2 0x3F6 JUMPI POP DUP13 SWAP2 POP PUSH2 0x2AF JUMP JUMPDEST PUSH0 DUP2 SSTORE ADD DUP5 SWAP1 PUSH2 0x3E6 JUMP JUMPDEST SWAP1 SWAP2 POP DUP2 SWAP1 PUSH2 0x3DB JUMP JUMPDEST PUSH1 0x41 SWAP1 PUSH4 0x4E487B71 PUSH1 0xE0 SHL PUSH0 MSTORE MSTORE PUSH1 0x24 PUSH0 REVERT JUMPDEST DUP6 MLOAD PUSH3 0x461BCD PUSH1 0xE5 SHL DUP2 MSTORE PUSH1 0x20 DUP2 DUP8 ADD MSTORE PUSH1 0xE PUSH1 0x24 DUP3 ADD MSTORE PUSH14 0x24B73B30B634B2103937BABA32B9 PUSH1 0x91 SHL PUSH1 0x44 DUP3 ADD MSTORE PUSH1 0x64 SWAP1 REVERT JUMPDEST POP CALLVALUE PUSH2 0x16C JUMPI PUSH1 0xA0 CALLDATASIZE PUSH1 0x3 NOT ADD SLT PUSH2 0x16C JUMPI PUSH2 0x46C PUSH2 0x119A JUMP JUMPDEST SWAP2 PUSH2 0x475 PUSH2 0x11B0 JUMP JUMPDEST PUSH1 0x44 CALLDATALOAD SWAP1 PUSH1 0x64 CALLDATALOAD SWAP5 PUSH1 0x84 CALLDATALOAD SWAP5 PUSH2 0x489 PUSH2 0x1ABC JUMP JUMPDEST PUSH2 0x495 TIMESTAMP DUP8 LT ISZERO PUSH2 0x1322 JUMP JUMPDEST PUSH2 0x4A0 DUP5 DUP5 DUP5 PUSH2 0x18ED JUMP JUMPDEST SWAP6 PUSH1 0x20 SWAP8 PUSH2 0x4B3 DUP2 DUP11 DUP11 ADD MLOAD LT ISZERO PUSH2 0x1361 JUMP JUMPDEST PUSH2 0x2710 PUSH2 0x4C1 DUP5 SLOAD DUP9 PUSH2 0x13AD JUMP JUMPDEST DIV SWAP1 PUSH2 0x4CD DUP3 DUP9 PUSH2 0x13D4 JUMP JUMPDEST SWAP2 PUSH1 0x1 PUSH1 0x1 PUSH1 0xA0 SHL SUB SWAP1 PUSH2 0x538 SWAP1 DUP13 SWAP1 DUP6 SWAP1 DUP10 DUP6 AND SWAP1 PUSH2 0x4EF DUP14 ADDRESS CALLER DUP6 PUSH2 0x1ADF JUMP JUMPDEST DUP1 PUSH2 0x692 JUMPI JUMPDEST POP DUP14 MLOAD PUSH0 SWAP1 DUP2 MSTORE PUSH1 0x2 DUP5 MSTORE DUP14 DUP2 KECCAK256 SLOAD DUP15 MLOAD PUSH4 0x95EA7B3 PUSH1 0xE0 SHL DUP2 MSTORE SWAP1 DUP8 AND PUSH1 0x1 PUSH1 0x1 PUSH1 0xA0 SHL SUB AND DUP12 DUP3 ADD SWAP1 DUP2 MSTORE PUSH1 0x20 DUP2 ADD SWAP5 SWAP1 SWAP5 MSTORE SWAP5 DUP6 SWAP4 DUP5 SWAP3 SWAP2 DUP4 SWAP2 PUSH1 0x40 ADD SWAP1 JUMP JUMPDEST SUB SWAP3 GAS CALL DUP1 ISZERO PUSH2 0x688 JUMPI SWAP1 PUSH0 SWAP5 SWAP4 SWAP3 SWAP2 PUSH2 0x65B JUMPI JUMPDEST POP DUP11 MLOAD DUP5 MSTORE PUSH1 0x2 DUP13 MSTORE DUP10 DUP5 KECCAK256 SLOAD AND SWAP1 DUP4 DUP11 DUP13 ADD MLOAD SWAP2 PUSH2 0x582 DUP13 MLOAD SWAP8 DUP9 SWAP7 DUP8 SWAP6 DUP7 SWAP5 PUSH4 0x38ED1739 PUSH1 0xE0 SHL DUP7 MSTORE CALLER SWAP3 DUP14 DUP8 ADD PUSH2 0x1A83 JUMP JUMPDEST SUB SWAP3 GAS CALL SWAP1 DUP2 ISZERO PUSH2 0x651 JUMPI PUSH0 SWAP2 PUSH2 0x62F JUMPI JUMPDEST POP DUP1 MLOAD PUSH0 NOT DUP2 ADD SWAP3 SWAP1 DUP4 GT PUSH2 0x61C JUMPI POP PUSH2 0x5D4 PUSH32 0x68EDEBF1045A55566772F499C77F50FCAE79EBDD0534E73DEAD3A12AD2076FD7 SWAP5 SWAP4 SWAP3 PUSH2 0x60F SWAP3 PUSH2 0x14FF JUMP JUMPDEST MLOAD SWAP7 MLOAD DUP7 MLOAD SWAP1 DUP2 MSTORE PUSH1 0x1 PUSH1 0x1 PUSH1 0xA0 SHL SUB SWAP3 DUP4 AND PUSH1 0x20 DUP3 ADD MSTORE SWAP3 SWAP1 SWAP2 AND PUSH1 0x40 DUP4 ADD MSTORE PUSH1 0x60 DUP3 ADD SWAP4 SWAP1 SWAP4 MSTORE PUSH1 0x80 DUP2 ADD DUP6 SWAP1 MSTORE CALLER SWAP3 DUP2 SWAP1 PUSH1 0xA0 DUP3 ADD SWAP1 JUMP JUMPDEST SUB SWAP1 LOG2 PUSH1 0x1 DUP1 SSTORE MLOAD SWAP1 DUP2 MSTORE RETURN JUMPDEST PUSH1 0x11 SWAP1 PUSH4 0x4E487B71 PUSH1 0xE0 SHL PUSH0 MSTORE MSTORE PUSH1 0x24 PUSH0 REVERT JUMPDEST PUSH2 0x64B SWAP2 POP RETURNDATASIZE DUP1 PUSH0 DUP4 RETURNDATACOPY PUSH2 0x643 DUP2 DUP4 PUSH2 0x1300 JUMP JUMPDEST DUP2 ADD SWAP1 PUSH2 0x1411 JUMP JUMPDEST PUSH0 PUSH2 0x594 JUMP JUMPDEST DUP7 MLOAD RETURNDATASIZE PUSH0 DUP3 RETURNDATACOPY RETURNDATASIZE SWAP1 REVERT JUMPDEST PUSH2 0x67A SWAP1 DUP14 DUP1 RETURNDATASIZE LT PUSH2 0x681 JUMPI JUMPDEST PUSH2 0x672 DUP2 DUP4 PUSH2 0x1300 JUMP JUMPDEST DUP2 ADD SWAP1 PUSH2 0x13E1 JUMP JUMPDEST POP PUSH0 PUSH2 0x54D JUMP JUMPDEST POP RETURNDATASIZE PUSH2 0x668 JUMP JUMPDEST DUP11 MLOAD RETURNDATASIZE PUSH0 DUP3 RETURNDATACOPY RETURNDATASIZE SWAP1 REVERT JUMPDEST PUSH2 0x6A1 SWAP1 DUP7 PUSH1 0x5 SLOAD AND DUP4 PUSH2 0x1B3A JUMP JUMPDEST PUSH0 PUSH2 0x4F5 JUMP JUMPDEST DUP3 CALLVALUE PUSH2 0x16C JUMPI PUSH0 CALLDATASIZE PUSH1 0x3 NOT ADD SLT PUSH2 0x16C JUMPI PUSH1 0x5 SLOAD SWAP1 MLOAD PUSH1 0x1 PUSH1 0x1 PUSH1 0xA0 SHL SUB SWAP1 SWAP2 AND DUP2 MSTORE PUSH1 0x20 SWAP1 RETURN JUMPDEST POP CALLVALUE PUSH2 0x16C JUMPI PUSH1 0x20 CALLDATASIZE PUSH1 0x3 NOT ADD SLT PUSH2 0x16C JUMPI DUP1 CALLDATALOAD SWAP2 PUSH2 0x6EC PUSH2 0x1B7B JUMP JUMPDEST PUSH1 0x64 DUP4 GT PUSH2 0x6F8 JUMPI POP SSTORE STOP JUMPDEST SWAP1 PUSH1 0x20 PUSH1 0x64 SWAP3 MLOAD SWAP2 PUSH3 0x461BCD PUSH1 0xE5 SHL DUP4 MSTORE DUP3 ADD MSTORE PUSH1 0xC PUSH1 0x24 DUP3 ADD MSTORE PUSH12 0x8CCACA40E8DEDE40D0D2CED PUSH1 0xA3 SHL PUSH1 0x44 DUP3 ADD MSTORE REVERT JUMPDEST DUP3 CALLVALUE PUSH2 0x16C JUMPI PUSH0 CALLDATASIZE PUSH1 0x3 NOT ADD SLT PUSH2 0x16C JUMPI PUSH1 0x20 SWAP1 PUSH1 0x3 SLOAD SWAP1 MLOAD SWAP1 DUP2 MSTORE RETURN JUMPDEST POP CALLVALUE PUSH2 0x16C JUMPI PUSH1 0x20 CALLDATASIZE PUSH1 0x3 NOT ADD SLT PUSH2 0x16C JUMPI PUSH2 0x762 PUSH2 0x119A JUMP JUMPDEST PUSH2 0x76A PUSH2 0x1B7B JUMP JUMPDEST PUSH1 0x1 PUSH1 0x1 PUSH1 0xA0 SHL SUB AND SWAP2 DUP3 ISZERO PUSH2 0x78E JUMPI PUSH1 0x5 DUP1 SLOAD PUSH1 0x1 PUSH1 0x1 PUSH1 0xA0 SHL SUB NOT AND DUP5 OR SWAP1 SSTORE STOP JUMPDEST SWAP1 PUSH1 0x20 PUSH1 0x64 SWAP3 MLOAD SWAP2 PUSH3 0x461BCD PUSH1 0xE5 SHL DUP4 MSTORE DUP3 ADD MSTORE PUSH1 0xF PUSH1 0x24 DUP3 ADD MSTORE PUSH15 0x496E76616C69642061646472657373 PUSH1 0x88 SHL PUSH1 0x44 DUP3 ADD MSTORE REVERT JUMPDEST POP SWAP1 CALLVALUE PUSH2 0x16C JUMPI PUSH0 CALLDATASIZE PUSH1 0x3 NOT ADD SLT PUSH2 0x16C JUMPI PUSH1 0x20 SWAP2 SLOAD SWAP1 MLOAD SWAP1 DUP2 MSTORE RETURN JUMPDEST DUP3 CALLVALUE PUSH2 0x16C JUMPI CALLDATASIZE PUSH1 0x3 NOT ADD SLT PUSH2 0x16C JUMPI PUSH2 0x817 PUSH2 0x7FB PUSH2 0x119A JUMP JUMPDEST PUSH2 0x803 PUSH2 0x1B7B JUMP JUMPDEST PUSH1 0x24 CALLDATALOAD SWAP1 CALLER SWAP1 PUSH1 0x1 PUSH1 0x1 PUSH1 0xA0 SHL SUB AND PUSH2 0x1B3A JUMP JUMPDEST STOP JUMPDEST DUP3 CALLVALUE PUSH2 0x16C JUMPI PUSH0 CALLDATASIZE PUSH1 0x3 NOT ADD SLT PUSH2 0x16C JUMPI PUSH0 SLOAD SWAP1 MLOAD PUSH1 0x1 PUSH1 0x1 PUSH1 0xA0 SHL SUB SWAP1 SWAP2 AND DUP2 MSTORE PUSH1 0x20 SWAP1 RETURN JUMPDEST CALLVALUE PUSH2 0x16C JUMPI PUSH0 CALLDATASIZE PUSH1 0x3 NOT ADD SLT PUSH2 0x16C JUMPI PUSH2 0x858 PUSH2 0x1B7B JUMP JUMPDEST PUSH0 DUP1 SLOAD PUSH1 0x1 PUSH1 0x1 PUSH1 0xA0 SHL SUB NOT DUP2 AND DUP3 SSTORE PUSH1 0x1 PUSH1 0x1 PUSH1 0xA0 SHL SUB AND PUSH32 0x8BE0079C531659141344CD1FD0A4F28419497F9722A3DAAFE3B4186F6B6457E0 DUP3 DUP1 LOG3 STOP JUMPDEST POP CALLVALUE PUSH2 0x16C JUMPI PUSH1 0xC0 CALLDATASIZE PUSH1 0x3 NOT ADD SLT PUSH2 0x16C JUMPI DUP1 CALLDATALOAD SWAP2 PUSH2 0x8B4 PUSH2 0x11B0 JUMP JUMPDEST PUSH1 0x1 PUSH1 0x1 PUSH1 0xA0 SHL SUB SWAP4 PUSH1 0x44 CALLDATALOAD DUP6 DUP2 AND SWAP5 SWAP2 SWAP3 SWAP1 SWAP2 DUP6 DUP4 SUB PUSH2 0x16C JUMPI PUSH1 0x64 CALLDATALOAD SWAP6 PUSH1 0xA4 CALLDATALOAD SWAP1 PUSH2 0x8DF PUSH2 0x1ABC JUMP JUMPDEST DUP6 ISZERO ISZERO DUP1 PUSH2 0xB0F JUMPI JUMPDEST PUSH2 0x8F1 SWAP1 PUSH2 0x1A46 JUMP JUMPDEST DUP6 PUSH0 MSTORE PUSH1 0x20 SWAP9 PUSH1 0x2 DUP11 MSTORE PUSH1 0xFF DUP9 PUSH0 KECCAK256 SLOAD PUSH1 0xA0 SHR AND ISZERO PUSH2 0xADB JUMPI PUSH2 0x973 SWAP1 PUSH2 0x91A TIMESTAMP DUP6 LT ISZERO PUSH2 0x1322 JUMP JUMPDEST PUSH2 0x9BA DUP12 DUP12 DUP12 MLOAD SWAP6 PUSH2 0x92B DUP8 PUSH2 0x12D0 JUMP JUMPDEST PUSH1 0x2 DUP8 MSTORE DUP13 CALLDATASIZE DUP5 DUP10 ADD CALLDATACOPY PUSH2 0x93E DUP8 PUSH2 0x14CE JUMP JUMPDEST SWAP1 DUP6 DUP12 AND DUP1 SWAP3 MSTORE PUSH2 0x94E DUP9 PUSH2 0x14EF JUMP JUMPDEST MSTORE PUSH2 0x2710 PUSH2 0x95D DUP11 SLOAD DUP5 PUSH2 0x13AD JUMP JUMPDEST DIV PUSH2 0x968 DUP2 DUP5 PUSH2 0x13D4 JUMP JUMPDEST SWAP7 DUP8 SWAP4 ADDRESS CALLER DUP6 PUSH2 0x1ADF JUMP JUMPDEST DUP1 PUSH2 0xAC6 JUMPI JUMPDEST POP PUSH0 DUP13 DUP2 MSTORE PUSH1 0x2 DUP5 MSTORE DUP14 DUP2 KECCAK256 SLOAD DUP15 MLOAD PUSH4 0x95EA7B3 PUSH1 0xE0 SHL DUP2 MSTORE SWAP1 DUP8 AND PUSH1 0x1 PUSH1 0x1 PUSH1 0xA0 SHL SUB AND DUP12 DUP3 ADD SWAP1 DUP2 MSTORE PUSH1 0x20 DUP2 ADD SWAP5 SWAP1 SWAP5 MSTORE SWAP5 DUP6 SWAP4 DUP5 SWAP3 SWAP2 DUP4 SWAP2 PUSH1 0x40 ADD SWAP1 JUMP JUMPDEST SUB SWAP3 GAS CALL DUP1 ISZERO PUSH2 0x688 JUMPI PUSH0 SWAP5 SWAP3 PUSH1 0x2 DUP15 PUSH2 0xA03 SWAP9 SWAP7 SWAP5 DUP9 SWAP5 PUSH2 0xAA9 JUMPI JUMPDEST POP DUP13 DUP5 MSTORE MSTORE DUP12 DUP3 KECCAK256 SLOAD AND SWAP3 DUP12 MLOAD SWAP7 DUP8 SWAP6 DUP7 SWAP5 DUP6 SWAP4 PUSH4 0x38ED1739 PUSH1 0xE0 SHL DUP6 MSTORE CALLER SWAP2 PUSH1 0x84 CALLDATALOAD SWAP1 DUP14 DUP8 ADD PUSH2 0x1A83 JUMP JUMPDEST SUB SWAP3 GAS CALL SWAP1 DUP2 ISZERO PUSH2 0x651 JUMPI PUSH0 SWAP2 PUSH2 0xA8F JUMPI JUMPDEST POP DUP1 MLOAD PUSH0 NOT DUP2 ADD SWAP3 SWAP1 DUP4 GT PUSH2 0x61C JUMPI POP PUSH2 0xA55 PUSH32 0x68EDEBF1045A55566772F499C77F50FCAE79EBDD0534E73DEAD3A12AD2076FD7 SWAP5 SWAP4 SWAP3 PUSH2 0x60F SWAP3 PUSH2 0x14FF JUMP JUMPDEST MLOAD DUP7 MLOAD SWAP6 DUP7 MSTORE PUSH1 0x1 PUSH1 0x1 PUSH1 0xA0 SHL SUB SWAP3 DUP4 AND PUSH1 0x20 DUP8 ADD MSTORE SWAP2 SWAP1 SWAP3 AND PUSH1 0x40 DUP6 ADD MSTORE PUSH1 0x60 DUP5 ADD SWAP6 SWAP1 SWAP6 MSTORE PUSH1 0x80 DUP4 ADD DUP6 SWAP1 MSTORE CALLER SWAP3 SWAP1 DUP2 SWAP1 PUSH1 0xA0 DUP3 ADD SWAP1 JUMP JUMPDEST PUSH2 0xAA3 SWAP2 POP RETURNDATASIZE DUP1 PUSH0 DUP4 RETURNDATACOPY PUSH2 0x643 DUP2 DUP4 PUSH2 0x1300 JUMP JUMPDEST PUSH0 PUSH2 0xA15 JUMP JUMPDEST PUSH2 0xABF SWAP1 DUP3 RETURNDATASIZE DUP5 GT PUSH2 0x681 JUMPI PUSH2 0x672 DUP2 DUP4 PUSH2 0x1300 JUMP JUMPDEST POP PUSH0 PUSH2 0x9D7 JUMP JUMPDEST PUSH2 0xAD5 SWAP1 DUP7 PUSH1 0x5 SLOAD AND DUP4 PUSH2 0x1B3A JUMP JUMPDEST PUSH0 PUSH2 0x979 JUMP JUMPDEST DUP8 MLOAD PUSH3 0x461BCD PUSH1 0xE5 SHL DUP2 MSTORE DUP1 DUP6 ADD DUP12 SWAP1 MSTORE PUSH1 0xE PUSH1 0x24 DUP3 ADD MSTORE PUSH14 0x444558206E6F7420616374697665 PUSH1 0x90 SHL PUSH1 0x44 DUP3 ADD MSTORE PUSH1 0x64 SWAP1 REVERT JUMPDEST POP PUSH1 0x3 SLOAD DUP7 GT ISZERO PUSH2 0x8E8 JUMP JUMPDEST POP CALLVALUE PUSH2 0x16C JUMPI PUSH1 0x20 SWAP1 DUP2 PUSH1 0x3 NOT CALLDATASIZE ADD SLT PUSH2 0x16C JUMPI CALLDATALOAD PUSH0 MSTORE PUSH1 0x2 DUP2 MSTORE DUP2 PUSH0 KECCAK256 SWAP1 DUP2 SLOAD SWAP3 PUSH1 0x1 DUP1 SWAP4 ADD DUP2 MLOAD SWAP4 DUP5 SWAP2 PUSH0 SWAP2 DUP2 SLOAD SWAP2 PUSH2 0xB55 DUP4 PUSH2 0x1298 JUMP JUMPDEST SWAP3 DUP4 DUP7 MSTORE DUP8 PUSH1 0x1 DUP3 AND SWAP2 DUP3 PUSH0 EQ PUSH2 0xC29 JUMPI POP POP PUSH1 0x1 EQ PUSH2 0xBEA JUMPI JUMPDEST POP POP POP SWAP2 PUSH2 0xB86 PUSH1 0x60 SWAP3 PUSH1 0xFF SWAP8 SWAP6 SWAP5 SUB DUP7 PUSH2 0x1300 JUMP JUMPDEST DUP1 MLOAD SWAP6 DUP7 SWAP5 PUSH1 0x1 DUP1 PUSH1 0xA0 SHL SUB DUP2 AND DUP7 MSTORE PUSH1 0xA0 SHR AND ISZERO ISZERO DUP4 DUP6 ADD MSTORE DUP4 ADD MSTORE DUP3 MLOAD SWAP1 DUP2 PUSH1 0x60 DUP5 ADD MSTORE PUSH0 SWAP4 JUMPDEST DUP3 DUP6 LT PUSH2 0xBD1 JUMPI POP POP PUSH1 0x80 SWAP3 POP PUSH0 DUP4 DUP3 DUP5 ADD ADD MSTORE PUSH1 0x1F DUP1 NOT SWAP2 ADD AND DUP2 ADD SUB ADD SWAP1 RETURN JUMPDEST DUP5 DUP2 ADD DUP3 ADD MLOAD DUP7 DUP7 ADD PUSH1 0x80 ADD MSTORE SWAP4 DUP2 ADD SWAP4 DUP6 SWAP4 POP PUSH2 0xBAF JUMP JUMPDEST DUP7 SWAP4 POP PUSH0 SWAP3 SWAP2 SWAP3 MSTORE DUP3 PUSH0 KECCAK256 SWAP2 PUSH0 SWAP3 JUMPDEST DUP3 DUP5 LT PUSH2 0xC11 JUMPI POP POP POP DUP3 ADD ADD DUP2 PUSH2 0xB86 PUSH1 0x60 PUSH2 0xB70 JUMP JUMPDEST DUP1 SLOAD DUP5 DUP11 ADD DUP7 ADD MSTORE DUP9 SWAP6 POP DUP8 SWAP5 SWAP1 SWAP4 ADD SWAP3 DUP2 ADD PUSH2 0xBF9 JUMP JUMPDEST PUSH1 0xFF NOT AND DUP8 DUP3 ADD MSTORE SWAP4 ISZERO ISZERO PUSH1 0x5 SHL DUP7 ADD SWAP1 SWAP4 ADD SWAP4 POP DUP5 SWAP3 POP PUSH2 0xB86 SWAP2 POP PUSH1 0x60 SWAP1 POP PUSH2 0xB70 JUMP JUMPDEST POP CALLVALUE PUSH2 0x16C JUMPI DUP2 PUSH1 0x3 NOT CALLDATASIZE ADD SLT PUSH2 0x16C JUMPI CALLDATALOAD SWAP1 PUSH1 0x24 CALLDATALOAD DUP1 ISZERO ISZERO DUP1 DUP3 SUB PUSH2 0x16C JUMPI PUSH32 0x8AEC059DFFCBE4E23758754FF21AF91BD5FA84F758E08398CF230769D2F29868 SWAP3 PUSH2 0xCD9 PUSH1 0x20 SWAP4 PUSH2 0xC9F PUSH2 0x1B7B JUMP JUMPDEST DUP7 ISZERO ISZERO DUP1 PUSH2 0xCE0 JUMPI JUMPDEST PUSH2 0xCB1 SWAP1 PUSH2 0x1A46 JUMP JUMPDEST PUSH0 DUP8 DUP2 MSTORE PUSH1 0x2 DUP7 MSTORE DUP4 SWAP1 KECCAK256 DUP1 SLOAD PUSH1 0xFF PUSH1 0xA0 SHL NOT AND SWAP2 ISZERO ISZERO PUSH1 0xA0 SHL PUSH1 0xFF PUSH1 0xA0 SHL AND SWAP2 SWAP1 SWAP2 OR SWAP1 SSTORE JUMP JUMPDEST MLOAD SWAP1 DUP2 MSTORE LOG2 STOP JUMPDEST POP PUSH1 0x3 SLOAD DUP8 GT ISZERO PUSH2 0xCA8 JUMP JUMPDEST POP CALLVALUE PUSH2 0x16C JUMPI PUSH2 0xCFB CALLDATASIZE PUSH2 0x1263 JUMP JUMPDEST SWAP1 SWAP3 SWAP2 DUP5 MLOAD PUSH2 0xD09 DUP2 PUSH2 0x12D0 JUMP JUMPDEST PUSH1 0x2 SWAP2 PUSH1 0x2 DUP3 MSTORE PUSH1 0x20 SWAP6 DUP8 CALLDATASIZE DUP9 DUP6 ADD CALLDATACOPY PUSH2 0xD22 DUP4 PUSH2 0x14CE JUMP JUMPDEST PUSH1 0x1 PUSH1 0x1 PUSH1 0xA0 SHL SUB SWAP3 DUP4 AND SWAP1 MSTORE DUP2 PUSH2 0xD39 DUP5 PUSH2 0x14EF JUMP JUMPDEST SWAP2 AND SWAP1 MSTORE PUSH0 SWAP5 PUSH1 0x1 SWAP5 PUSH1 0x3 SLOAD SWAP6 JUMPDEST DUP7 DUP2 GT ISZERO PUSH2 0xEE3 JUMPI POP PUSH2 0xD71 PUSH2 0xD5C DUP9 PUSH2 0x13F9 JUMP JUMPDEST SWAP8 PUSH2 0xD69 DUP12 MLOAD SWAP10 DUP11 PUSH2 0x1300 JUMP JUMPDEST DUP1 DUP10 MSTORE PUSH2 0x13F9 JUMP JUMPDEST PUSH1 0x1F NOT ADD DUP9 PUSH0 JUMPDEST DUP3 DUP2 LT PUSH2 0xECD JUMPI POP POP POP PUSH0 SWAP5 PUSH1 0x1 SWAP6 JUMPDEST DUP8 DUP8 GT ISZERO PUSH2 0xDEC JUMPI DUP11 DUP11 DUP11 DUP3 MLOAD SWAP2 DUP1 DUP4 ADD DUP2 DUP5 MSTORE DUP3 MLOAD DUP1 SWAP2 MSTORE DUP2 DUP6 DUP6 ADD SWAP6 DUP3 PUSH1 0x5 SHL DUP7 ADD ADD SWAP4 ADD SWAP2 PUSH0 SWAP6 JUMPDEST DUP3 DUP8 LT PUSH2 0xDC0 JUMPI DUP6 DUP6 SUB DUP7 RETURN JUMPDEST SWAP1 SWAP2 SWAP3 SWAP4 DUP3 DUP1 PUSH2 0xDDC PUSH1 0x1 SWAP4 PUSH1 0x3F NOT DUP11 DUP3 SUB ADD DUP7 MSTORE DUP9 MLOAD PUSH2 0x120B JUMP JUMPDEST SWAP7 ADD SWAP3 ADD SWAP7 ADD SWAP6 SWAP3 SWAP2 SWAP1 SWAP3 PUSH2 0xDB3 JUMP JUMPDEST DUP7 PUSH0 MSTORE DUP2 DUP11 MSTORE DUP11 PUSH0 KECCAK256 SLOAD SWAP1 DUP11 DUP13 PUSH1 0xFF DUP5 PUSH1 0xA0 SHR AND ISZERO PUSH2 0xEC0 JUMPI SWAP1 DUP9 DUP3 PUSH0 PUSH2 0xE85 SWAP7 SWAP6 SWAP5 MLOAD DUP1 SWAP7 PUSH4 0xD06CA61F PUSH1 0xE0 SHL DUP3 MSTORE DUP11 DUP13 DUP4 ADD MSTORE DUP4 PUSH1 0x24 DUP4 ADD MSTORE DUP2 DUP14 DUP2 PUSH2 0xE37 PUSH1 0x44 DUP3 ADD DUP10 PUSH2 0x18B1 JUMP JUMPDEST SUB SWAP3 AND GAS STATICCALL PUSH0 SWAP6 DUP2 PUSH2 0xEA4 JUMPI JUMPDEST POP PUSH2 0xE8B JUMPI PUSH2 0xE7F SWAP5 POP PUSH0 DUP2 MLOAD SWAP4 PUSH2 0xE5B DUP6 PUSH2 0x12D0 JUMP JUMPDEST DUP14 DUP6 MSTORE DUP5 ADD MSTORE DUP3 ADD MSTORE PUSH2 0xE6E DUP3 DUP14 PUSH2 0x14FF JUMP JUMPDEST MSTORE PUSH2 0xE79 DUP2 DUP13 PUSH2 0x14FF JUMP JUMPDEST POP PUSH2 0x1587 JUMP JUMPDEST SWAP7 PUSH2 0x1587 JUMP JUMPDEST SWAP6 PUSH2 0xD88 JUMP JUMPDEST PUSH2 0xE97 PUSH2 0xE7F SWAP6 PUSH2 0x14EF JUMP JUMPDEST MLOAD DUP2 MLOAD SWAP4 PUSH2 0xE5B DUP6 PUSH2 0x12D0 JUMP JUMPDEST PUSH2 0xEB9 SWAP2 SWAP7 POP RETURNDATASIZE DUP1 PUSH0 DUP4 RETURNDATACOPY PUSH2 0x643 DUP2 DUP4 PUSH2 0x1300 JUMP JUMPDEST SWAP5 PUSH0 PUSH2 0xE44 JUMP JUMPDEST POP POP SWAP7 PUSH2 0xE85 SWAP2 POP PUSH2 0x1587 JUMP JUMPDEST PUSH2 0xED5 PUSH2 0x1513 JUMP JUMPDEST DUP3 DUP3 DUP13 ADD ADD MSTORE ADD DUP10 SWAP1 PUSH2 0xD78 JUMP JUMPDEST DUP1 PUSH0 MSTORE DUP6 DUP10 MSTORE PUSH1 0xFF DUP11 PUSH0 KECCAK256 SLOAD PUSH1 0xA0 SHR AND PUSH2 0xF06 JUMPI JUMPDEST PUSH2 0xF01 SWAP1 PUSH2 0x1587 JUMP JUMPDEST PUSH2 0xD47 JUMP JUMPDEST SWAP7 PUSH2 0xF13 PUSH2 0xF01 SWAP2 PUSH2 0x1587 JUMP JUMPDEST SWAP8 SWAP1 POP PUSH2 0xEF8 JUMP JUMPDEST DUP3 CALLVALUE PUSH2 0x16C JUMPI PUSH2 0xF4A SWAP1 PUSH2 0xF37 PUSH2 0xF31 CALLDATASIZE PUSH2 0x1263 JUMP JUMPDEST SWAP2 PUSH2 0x18ED JUMP JUMPDEST SWAP1 MLOAD SWAP2 DUP3 SWAP2 PUSH1 0x20 DUP4 MSTORE PUSH1 0x20 DUP4 ADD SWAP1 PUSH2 0x120B JUMP JUMPDEST SUB SWAP1 RETURN JUMPDEST POP SWAP1 CALLVALUE PUSH2 0x16C JUMPI PUSH1 0x80 CALLDATASIZE PUSH1 0x3 NOT ADD SLT PUSH2 0x16C JUMPI PUSH2 0xF69 PUSH2 0x119A JUMP JUMPDEST SWAP2 PUSH2 0xF72 PUSH2 0x11B0 JUMP JUMPDEST SWAP3 PUSH1 0x64 CALLDATALOAD SWAP4 PUSH8 0xFFFFFFFFFFFFFFFF DUP6 GT PUSH2 0x16C JUMPI PUSH2 0xF99 PUSH2 0xF37 SWAP4 PUSH2 0xF4A SWAP7 CALLDATASIZE SWAP2 ADD PUSH2 0x11DA JUMP JUMPDEST SWAP3 SWAP1 SWAP2 PUSH1 0x44 CALLDATALOAD SWAP2 PUSH2 0x15D8 JUMP JUMPDEST POP CALLVALUE PUSH2 0x16C JUMPI PUSH1 0xC0 CALLDATASIZE PUSH1 0x3 NOT ADD SLT PUSH2 0x16C JUMPI PUSH2 0xFBF PUSH2 0x119A JUMP JUMPDEST SWAP2 PUSH2 0xFC8 PUSH2 0x11B0 JUMP JUMPDEST PUSH1 0x44 CALLDATALOAD SWAP1 PUSH1 0x64 CALLDATALOAD SWAP5 PUSH1 0x84 CALLDATALOAD SWAP5 PUSH1 0xA4 CALLDATALOAD PUSH8 0xFFFFFFFFFFFFFFFF DUP2 GT PUSH2 0x16C JUMPI PUSH2 0xFF3 SWAP1 CALLDATASIZE SWAP1 DUP4 ADD PUSH2 0x11DA JUMP JUMPDEST PUSH2 0xFFB PUSH2 0x1ABC JUMP JUMPDEST PUSH2 0x1007 TIMESTAMP DUP10 LT ISZERO PUSH2 0x1322 JUMP JUMPDEST PUSH2 0x1014 DUP2 DUP4 DUP9 DUP9 DUP9 PUSH2 0x15D8 JUMP JUMPDEST SWAP8 PUSH1 0x20 SWAP10 PUSH2 0x1027 DUP2 DUP13 DUP13 ADD MLOAD LT ISZERO PUSH2 0x1361 JUMP JUMPDEST DUP10 DUP7 PUSH2 0x10AA DUP14 DUP13 DUP13 PUSH2 0x2710 PUSH2 0x103D DUP13 SLOAD DUP4 PUSH2 0x13AD JUMP JUMPDEST DIV SWAP2 PUSH2 0x1049 DUP4 DUP4 PUSH2 0x13D4 JUMP JUMPDEST SWAP7 PUSH1 0x1 PUSH1 0x1 PUSH1 0xA0 SHL SUB SWAP7 DUP9 SWAP5 SWAP1 DUP9 AND SWAP4 PUSH2 0x1065 SWAP1 ADDRESS CALLER DUP8 PUSH2 0x1ADF JUMP JUMPDEST DUP1 PUSH2 0x1185 JUMPI JUMPDEST POP MLOAD PUSH0 MSTORE PUSH1 0x2 DUP5 MSTORE PUSH0 DUP13 DUP8 DUP4 DUP4 KECCAK256 SLOAD AND SWAP3 MLOAD SWAP7 DUP8 SWAP6 DUP7 SWAP5 DUP6 SWAP4 PUSH4 0x95EA7B3 PUSH1 0xE0 SHL DUP6 MSTORE DUP5 ADD PUSH1 0x20 SWAP1 SWAP4 SWAP3 SWAP2 SWAP4 PUSH1 0x40 DUP2 ADD SWAP5 PUSH1 0x1 DUP1 PUSH1 0xA0 SHL SUB AND DUP2 MSTORE ADD MSTORE JUMP JUMPDEST SUB SWAP3 GAS CALL DUP1 ISZERO PUSH2 0x117B JUMPI SWAP2 PUSH1 0x2 DUP16 DUP16 PUSH0 SWAP10 SWAP9 SWAP8 SWAP7 SWAP5 DUP11 SWAP7 PUSH2 0x115E JUMPI JUMPDEST POP MLOAD DUP6 MSTORE MSTORE DUP13 DUP4 KECCAK256 SLOAD AND SWAP4 PUSH2 0x1101 DUP14 MLOAD SWAP9 DUP10 SWAP8 DUP9 SWAP7 DUP8 SWAP6 PUSH4 0x38ED1739 PUSH1 0xE0 SHL DUP8 MSTORE DUP14 DUP8 ADD MSTORE PUSH1 0x24 DUP7 ADD MSTORE PUSH1 0xA0 PUSH1 0x44 DUP7 ADD MSTORE PUSH1 0xA4 DUP6 ADD SWAP2 PUSH2 0x148B JUMP JUMPDEST SWAP1 CALLER PUSH1 0x64 DUP5 ADD MSTORE PUSH1 0x84 DUP4 ADD MSTORE SUB SWAP3 GAS CALL SWAP1 DUP2 ISZERO PUSH2 0x651 JUMPI PUSH0 SWAP2 PUSH2 0x62F JUMPI POP DUP1 MLOAD PUSH0 NOT DUP2 ADD SWAP3 SWAP1 DUP4 GT PUSH2 0x61C JUMPI POP PUSH2 0x5D4 PUSH32 0x68EDEBF1045A55566772F499C77F50FCAE79EBDD0534E73DEAD3A12AD2076FD7 SWAP5 SWAP4 SWAP3 PUSH2 0x60F SWAP3 PUSH2 0x14FF JUMP JUMPDEST PUSH2 0x1174 SWAP1 DUP4 RETURNDATASIZE DUP6 GT PUSH2 0x681 JUMPI PUSH2 0x672 DUP2 DUP4 PUSH2 0x1300 JUMP JUMPDEST POP PUSH0 PUSH2 0x10C6 JUMP JUMPDEST DUP13 MLOAD RETURNDATASIZE PUSH0 DUP3 RETURNDATACOPY RETURNDATASIZE SWAP1 REVERT JUMPDEST PUSH2 0x1194 SWAP1 DUP9 PUSH1 0x5 SLOAD AND DUP6 PUSH2 0x1B3A JUMP JUMPDEST PUSH0 PUSH2 0x106B JUMP JUMPDEST PUSH1 0x4 CALLDATALOAD SWAP1 PUSH1 0x1 PUSH1 0x1 PUSH1 0xA0 SHL SUB DUP3 AND DUP3 SUB PUSH2 0x16C JUMPI JUMP JUMPDEST PUSH1 0x24 CALLDATALOAD SWAP1 PUSH1 0x1 PUSH1 0x1 PUSH1 0xA0 SHL SUB DUP3 AND DUP3 SUB PUSH2 0x16C JUMPI JUMP JUMPDEST CALLDATALOAD SWAP1 PUSH1 0x1 PUSH1 0x1 PUSH1 0xA0 SHL SUB DUP3 AND DUP3 SUB PUSH2 0x16C JUMPI JUMP JUMPDEST SWAP2 DUP2 PUSH1 0x1F DUP5 ADD SLT ISZERO PUSH2 0x16C JUMPI DUP3 CALLDATALOAD SWAP2 PUSH8 0xFFFFFFFFFFFFFFFF DUP4 GT PUSH2 0x16C JUMPI PUSH1 0x20 DUP1 DUP6 ADD SWAP5 DUP5 PUSH1 0x5 SHL ADD ADD GT PUSH2 0x16C JUMPI JUMP JUMPDEST PUSH1 0x60 DUP3 ADD DUP2 MLOAD DUP4 MSTORE PUSH1 0x20 PUSH1 0x80 PUSH1 0x40 DUP3 SWAP5 DUP4 DUP2 ADD MLOAD DUP5 DUP9 ADD MSTORE ADD MLOAD SWAP5 PUSH1 0x60 PUSH1 0x40 DUP3 ADD MSTORE DUP6 MLOAD DUP1 SWAP5 MSTORE ADD SWAP4 ADD SWAP2 PUSH0 JUMPDEST DUP3 DUP2 LT PUSH2 0x1246 JUMPI POP POP POP POP SWAP1 JUMP JUMPDEST DUP4 MLOAD PUSH1 0x1 PUSH1 0x1 PUSH1 0xA0 SHL SUB AND DUP6 MSTORE SWAP4 DUP2 ADD SWAP4 SWAP3 DUP2 ADD SWAP3 PUSH1 0x1 ADD PUSH2 0x1238 JUMP JUMPDEST PUSH1 0x60 SWAP1 PUSH1 0x3 NOT ADD SLT PUSH2 0x16C JUMPI PUSH1 0x1 PUSH1 0x1 PUSH1 0xA0 SHL SUB SWAP1 PUSH1 0x4 CALLDATALOAD DUP3 DUP2 AND DUP2 SUB PUSH2 0x16C JUMPI SWAP2 PUSH1 0x24 CALLDATALOAD SWAP1 DUP2 AND DUP2 SUB PUSH2 0x16C JUMPI SWAP1 PUSH1 0x44 CALLDATALOAD SWAP1 JUMP JUMPDEST SWAP1 PUSH1 0x1 DUP3 DUP2 SHR SWAP3 AND DUP1 ISZERO PUSH2 0x12C6 JUMPI JUMPDEST PUSH1 0x20 DUP4 LT EQ PUSH2 0x12B2 JUMPI JUMP JUMPDEST PUSH4 0x4E487B71 PUSH1 0xE0 SHL PUSH0 MSTORE PUSH1 0x22 PUSH1 0x4 MSTORE PUSH1 0x24 PUSH0 REVERT JUMPDEST SWAP2 PUSH1 0x7F AND SWAP2 PUSH2 0x12A7 JUMP JUMPDEST PUSH1 0x60 DUP2 ADD SWAP1 DUP2 LT PUSH8 0xFFFFFFFFFFFFFFFF DUP3 GT OR PUSH2 0x12EC JUMPI PUSH1 0x40 MSTORE JUMP JUMPDEST PUSH4 0x4E487B71 PUSH1 0xE0 SHL PUSH0 MSTORE PUSH1 0x41 PUSH1 0x4 MSTORE PUSH1 0x24 PUSH0 REVERT JUMPDEST SWAP1 PUSH1 0x1F DUP1 NOT SWAP2 ADD AND DUP2 ADD SWAP1 DUP2 LT PUSH8 0xFFFFFFFFFFFFFFFF DUP3 GT OR PUSH2 0x12EC JUMPI PUSH1 0x40 MSTORE JUMP JUMPDEST ISZERO PUSH2 0x1329 JUMPI JUMP JUMPDEST PUSH1 0x40 MLOAD PUSH3 0x461BCD PUSH1 0xE5 SHL DUP2 MSTORE PUSH1 0x20 PUSH1 0x4 DUP3 ADD MSTORE PUSH1 0x10 PUSH1 0x24 DUP3 ADD MSTORE PUSH16 0x4578706972656420646561646C696E65 PUSH1 0x80 SHL PUSH1 0x44 DUP3 ADD MSTORE PUSH1 0x64 SWAP1 REVERT JUMPDEST ISZERO PUSH2 0x1368 JUMPI JUMP JUMPDEST PUSH1 0x40 MLOAD PUSH3 0x461BCD PUSH1 0xE5 SHL DUP2 MSTORE PUSH1 0x20 PUSH1 0x4 DUP3 ADD MSTORE PUSH1 0x1A PUSH1 0x24 DUP3 ADD MSTORE PUSH32 0x496E73756666696369656E74206F757470757420616D6F756E74000000000000 PUSH1 0x44 DUP3 ADD MSTORE PUSH1 0x64 SWAP1 REVERT JUMPDEST DUP2 DUP2 MUL SWAP3 SWAP2 DUP2 ISZERO SWAP2 DUP5 DIV EQ OR ISZERO PUSH2 0x13C0 JUMPI JUMP JUMPDEST PUSH4 0x4E487B71 PUSH1 0xE0 SHL PUSH0 MSTORE PUSH1 0x11 PUSH1 0x4 MSTORE PUSH1 0x24 PUSH0 REVERT JUMPDEST SWAP2 SWAP1 DUP3 SUB SWAP2 DUP3 GT PUSH2 0x13C0 JUMPI JUMP JUMPDEST SWAP1 DUP2 PUSH1 0x20 SWAP2 SUB SLT PUSH2 0x16C JUMPI MLOAD DUP1 ISZERO ISZERO DUP2 SUB PUSH2 0x16C JUMPI SWAP1 JUMP JUMPDEST PUSH8 0xFFFFFFFFFFFFFFFF DUP2 GT PUSH2 0x12EC JUMPI PUSH1 0x5 SHL PUSH1 0x20 ADD SWAP1 JUMP JUMPDEST PUSH1 0x20 SWAP1 DUP2 DUP2 DUP5 SUB SLT PUSH2 0x16C JUMPI DUP1 MLOAD SWAP1 PUSH8 0xFFFFFFFFFFFFFFFF DUP3 GT PUSH2 0x16C JUMPI ADD SWAP2 DUP1 PUSH1 0x1F DUP5 ADD SLT ISZERO PUSH2 0x16C JUMPI DUP3 MLOAD PUSH2 0x1447 DUP2 PUSH2 0x13F9 JUMP JUMPDEST SWAP4 PUSH2 0x1455 PUSH1 0x40 MLOAD SWAP6 DUP7 PUSH2 0x1300 JUMP JUMPDEST DUP2 DUP6 MSTORE DUP4 DUP1 DUP7 ADD SWAP3 PUSH1 0x5 SHL DUP3 ADD ADD SWAP3 DUP4 GT PUSH2 0x16C JUMPI DUP4 ADD SWAP1 JUMPDEST DUP3 DUP3 LT PUSH2 0x147C JUMPI POP POP POP POP SWAP1 JUMP JUMPDEST DUP2 MLOAD DUP2 MSTORE SWAP1 DUP4 ADD SWAP1 DUP4 ADD PUSH2 0x146E JUMP JUMPDEST SWAP2 SWAP1 DUP1 DUP3 MSTORE PUSH1 0x20 DUP1 SWAP3 ADD SWAP3 SWAP2 PUSH0 JUMPDEST DUP3 DUP2 LT PUSH2 0x14A7 JUMPI POP POP POP POP SWAP1 JUMP JUMPDEST SWAP1 SWAP2 SWAP3 SWAP4 DUP3 DUP1 PUSH1 0x1 SWAP3 DUP4 DUP1 PUSH1 0xA0 SHL SUB PUSH2 0x14BF DUP10 PUSH2 0x11C6 JUMP JUMPDEST AND DUP2 MSTORE ADD SWAP6 ADD SWAP4 SWAP3 SWAP2 ADD PUSH2 0x1499 JUMP JUMPDEST DUP1 MLOAD ISZERO PUSH2 0x14DB JUMPI PUSH1 0x20 ADD SWAP1 JUMP JUMPDEST PUSH4 0x4E487B71 PUSH1 0xE0 SHL PUSH0 MSTORE PUSH1 0x32 PUSH1 0x4 MSTORE PUSH1 0x24 PUSH0 REVERT JUMPDEST DUP1 MLOAD PUSH1 0x1 LT ISZERO PUSH2 0x14DB JUMPI PUSH1 0x40 ADD SWAP1 JUMP JUMPDEST DUP1 MLOAD DUP3 LT ISZERO PUSH2 0x14DB JUMPI PUSH1 0x20 SWAP2 PUSH1 0x5 SHL ADD ADD SWAP1 JUMP JUMPDEST PUSH1 0x40 MLOAD SWAP1 PUSH2 0x1520 DUP3 PUSH2 0x12D0 JUMP JUMPDEST PUSH1 0x60 PUSH1 0x40 DUP4 PUSH0 DUP2 MSTORE PUSH0 PUSH1 0x20 DUP3 ADD MSTORE ADD MSTORE JUMP JUMPDEST ISZERO PUSH2 0x1539 JUMPI JUMP JUMPDEST PUSH1 0x40 MLOAD PUSH3 0x461BCD PUSH1 0xE5 SHL DUP2 MSTORE PUSH1 0x20 PUSH1 0x4 DUP3 ADD MSTORE PUSH1 0x12 PUSH1 0x24 DUP3 ADD MSTORE PUSH18 0x416D6F756E74206D757374206265203E203 PUSH1 0x74 SHL PUSH1 0x44 DUP3 ADD MSTORE PUSH1 0x64 SWAP1 REVERT JUMPDEST CALLDATALOAD PUSH1 0x1 PUSH1 0x1 PUSH1 0xA0 SHL SUB DUP2 AND DUP2 SUB PUSH2 0x16C JUMPI SWAP1 JUMP JUMPDEST PUSH0 NOT DUP2 EQ PUSH2 0x13C0 JUMPI PUSH1 0x1 ADD SWAP1 JUMP JUMPDEST ISZERO PUSH2 0x159C JUMPI JUMP JUMPDEST PUSH1 0x40 MLOAD PUSH3 0x461BCD PUSH1 0xE5 SHL DUP2 MSTORE PUSH1 0x20 PUSH1 0x4 DUP3 ADD MSTORE PUSH1 0x14 PUSH1 0x24 DUP3 ADD MSTORE PUSH20 0x139BC81D985B1A59081C9BDD5D1948199BDD5B99 PUSH1 0x62 SHL PUSH1 0x44 DUP3 ADD MSTORE PUSH1 0x64 SWAP1 REVERT JUMPDEST SWAP4 SWAP3 SWAP1 PUSH2 0x15E3 PUSH2 0x1513 JUMP JUMPDEST POP PUSH2 0x15EF DUP4 ISZERO ISZERO PUSH2 0x1532 JUMP JUMPDEST PUSH1 0x2 DUP1 DUP6 LT PUSH2 0x187D JUMPI DUP5 ISZERO PUSH2 0x14DB JUMPI PUSH2 0x1607 DUP4 PUSH2 0x1573 JUMP JUMPDEST PUSH1 0x1 PUSH1 0x1 PUSH1 0xA0 SHL SUB SWAP7 DUP8 AND SWAP1 DUP8 AND SUB PUSH2 0x1838 JUMPI PUSH0 NOT SWAP2 DUP6 DUP4 ADD DUP7 DUP2 GT PUSH2 0x13C0 JUMPI DUP7 DUP2 LT ISZERO PUSH2 0x14DB JUMPI DUP8 PUSH2 0x163F DUP2 SWAP3 PUSH1 0x5 SHL DUP8 ADD PUSH2 0x1573 JUMP JUMPDEST SWAP3 AND SWAP2 AND SUB PUSH2 0x17F3 JUMPI PUSH0 SWAP4 PUSH0 SWAP7 PUSH1 0x1 SWAP3 PUSH1 0x3 SLOAD SWAP4 JUMPDEST DUP5 DUP2 GT ISZERO PUSH2 0x16DC JUMPI POP POP POP POP POP POP PUSH2 0x166D DUP5 ISZERO ISZERO PUSH2 0x1595 JUMP JUMPDEST PUSH1 0x40 MLOAD SWAP4 PUSH2 0x167A DUP6 PUSH2 0x12D0 JUMP JUMPDEST DUP5 MSTORE PUSH1 0x20 SWAP2 PUSH1 0x20 DUP6 ADD MSTORE PUSH2 0x168D DUP4 PUSH2 0x13F9 JUMP JUMPDEST SWAP3 PUSH2 0x169B PUSH1 0x40 MLOAD SWAP5 DUP6 PUSH2 0x1300 JUMP JUMPDEST DUP1 DUP5 MSTORE PUSH1 0x20 DUP5 ADD SWAP1 PUSH1 0x5 SHL DUP3 ADD SWAP2 CALLDATASIZE DUP4 GT PUSH2 0x16C JUMPI SWAP1 JUMPDEST DUP3 DUP3 LT PUSH2 0x16C5 JUMPI POP POP POP POP PUSH1 0x40 DUP3 ADD MSTORE SWAP1 JUMP JUMPDEST DUP4 DUP1 SWAP2 PUSH2 0x16D1 DUP5 PUSH2 0x11C6 JUMP JUMPDEST DUP2 MSTORE ADD SWAP2 ADD SWAP1 PUSH2 0x16B2 JUMP JUMPDEST DUP1 PUSH0 MSTORE DUP2 PUSH1 0x20 MSTORE DUP4 PUSH1 0x40 DUP9 DUP2 PUSH0 KECCAK256 SLOAD DUP13 PUSH1 0xFF DUP3 PUSH1 0xA0 SHR AND ISZERO PUSH2 0x17E5 JUMPI SWAP2 PUSH0 SWAP2 DUP5 SWAP4 DUP10 PUSH2 0x172B SWAP7 MLOAD DUP1 SWAP8 DUP2 SWAP6 DUP3 SWAP5 PUSH4 0xD06CA61F PUSH1 0xE0 SHL DUP5 MSTORE PUSH1 0x4 SWAP12 DUP13 DUP6 ADD MSTORE PUSH1 0x24 SWAP10 DUP11 DUP6 ADD MSTORE PUSH1 0x44 DUP5 ADD SWAP2 PUSH2 0x148B JUMP JUMPDEST SUB SWAP3 AND GAS STATICCALL PUSH0 SWAP3 DUP2 PUSH2 0x17C9 JUMPI JUMPDEST POP PUSH2 0x174E JUMPI POP POP POP PUSH2 0x1749 SWAP1 PUSH2 0x1587 JUMP JUMPDEST PUSH2 0x1654 JUMP JUMPDEST DUP2 MLOAD DUP10 DUP2 ADD SWAP1 DUP2 GT PUSH2 0x17B6 JUMPI PUSH2 0x1765 DUP13 SWAP2 DUP5 PUSH2 0x14FF JUMP JUMPDEST MLOAD GT PUSH2 0x1778 JUMPI JUMPDEST POP POP POP PUSH2 0x1749 SWAP1 PUSH2 0x1587 JUMP JUMPDEST SWAP2 SWAP4 SWAP10 POP DUP1 SWAP3 SWAP12 POP MLOAD SWAP3 DUP8 DUP5 ADD SWAP4 DUP5 GT PUSH2 0x17A5 JUMPI POP POP SWAP1 PUSH2 0x1798 SWAP2 PUSH2 0x14FF JUMP JUMPDEST MLOAD SWAP6 DUP9 PUSH2 0x1749 PUSH0 DUP1 PUSH2 0x176C JUMP JUMPDEST PUSH1 0x11 SWAP1 PUSH4 0x4E487B71 PUSH1 0xE0 SHL PUSH0 MSTORE MSTORE PUSH0 REVERT JUMPDEST POP PUSH4 0x4E487B71 PUSH1 0xE0 SHL PUSH0 SWAP1 DUP2 MSTORE PUSH1 0x11 DUP5 MSTORE REVERT JUMPDEST PUSH2 0x17DE SWAP2 SWAP4 POP RETURNDATASIZE DUP1 PUSH0 DUP4 RETURNDATACOPY PUSH2 0x643 DUP2 DUP4 PUSH2 0x1300 JUMP JUMPDEST SWAP2 PUSH0 PUSH2 0x1738 JUMP JUMPDEST POP POP POP POP POP PUSH2 0x1749 SWAP1 PUSH2 0x1587 JUMP JUMPDEST PUSH1 0x40 MLOAD PUSH3 0x461BCD PUSH1 0xE5 SHL DUP2 MSTORE PUSH1 0x20 PUSH1 0x4 DUP3 ADD MSTORE PUSH1 0x1B PUSH1 0x24 DUP3 ADD MSTORE PUSH32 0x50617468206D75737420656E64207769746820746F6B656E4F75740000000000 PUSH1 0x44 DUP3 ADD MSTORE PUSH1 0x64 SWAP1 REVERT JUMPDEST PUSH1 0x40 MLOAD PUSH3 0x461BCD PUSH1 0xE5 SHL DUP2 MSTORE PUSH1 0x20 PUSH1 0x4 DUP3 ADD MSTORE PUSH1 0x1C PUSH1 0x24 DUP3 ADD MSTORE PUSH32 0x50617468206D757374207374617274207769746820746F6B656E496E00000000 PUSH1 0x44 DUP3 ADD MSTORE PUSH1 0x64 SWAP1 REVERT JUMPDEST PUSH1 0x40 MLOAD PUSH3 0x461BCD PUSH1 0xE5 SHL DUP2 MSTORE PUSH1 0x20 PUSH1 0x4 DUP3 ADD MSTORE PUSH1 0xC PUSH1 0x24 DUP3 ADD MSTORE PUSH12 0x92DCECC2D8D2C840E0C2E8D PUSH1 0xA3 SHL PUSH1 0x44 DUP3 ADD MSTORE PUSH1 0x64 SWAP1 REVERT JUMPDEST SWAP1 DUP2 MLOAD DUP1 DUP3 MSTORE PUSH1 0x20 DUP1 DUP1 SWAP4 ADD SWAP4 ADD SWAP2 PUSH0 JUMPDEST DUP3 DUP2 LT PUSH2 0x18D0 JUMPI POP POP POP POP SWAP1 JUMP JUMPDEST DUP4 MLOAD PUSH1 0x1 PUSH1 0x1 PUSH1 0xA0 SHL SUB AND DUP6 MSTORE SWAP4 DUP2 ADD SWAP4 SWAP3 DUP2 ADD SWAP3 PUSH1 0x1 ADD PUSH2 0x18C2 JUMP JUMPDEST SWAP2 PUSH2 0x18F6 PUSH2 0x1513 JUMP JUMPDEST POP PUSH2 0x1902 DUP2 ISZERO ISZERO PUSH2 0x1532 JUMP JUMPDEST PUSH1 0x40 SWAP1 DUP2 MLOAD SWAP3 PUSH2 0x1911 DUP5 PUSH2 0x12D0 JUMP JUMPDEST PUSH1 0x2 SWAP5 PUSH1 0x2 DUP6 MSTORE PUSH1 0x20 SWAP2 DUP5 CALLDATASIZE PUSH1 0x20 DUP9 ADD CALLDATACOPY PUSH2 0x192B DUP7 PUSH2 0x14CE JUMP JUMPDEST PUSH1 0x1 PUSH1 0x1 PUSH1 0xA0 SHL SUB SWAP3 DUP4 AND SWAP1 MSTORE DUP2 PUSH2 0x1942 DUP8 PUSH2 0x14EF JUMP JUMPDEST SWAP2 AND SWAP1 MSTORE PUSH0 SWAP3 PUSH0 SWAP7 PUSH1 0x1 SWAP4 PUSH1 0x3 SLOAD SWAP5 JUMPDEST DUP6 DUP2 GT ISZERO PUSH2 0x1984 JUMPI POP POP POP POP POP POP PUSH2 0x196B DUP5 ISZERO ISZERO PUSH2 0x1595 JUMP JUMPDEST DUP2 MLOAD SWAP4 PUSH2 0x1977 DUP6 PUSH2 0x12D0 JUMP JUMPDEST DUP5 MSTORE PUSH1 0x20 DUP5 ADD MSTORE DUP3 ADD MSTORE SWAP1 JUMP JUMPDEST DUP1 PUSH0 MSTORE DUP3 DUP3 MSTORE DUP9 DUP9 PUSH0 KECCAK256 SLOAD PUSH1 0xFF DUP2 PUSH1 0xA0 SHR AND ISZERO PUSH2 0x1A3B JUMPI PUSH2 0x19CA SWAP2 PUSH0 SWAP2 DUP12 DUP10 DUP2 MLOAD DUP1 SWAP7 DUP2 SWAP6 DUP3 SWAP5 PUSH4 0xD06CA61F PUSH1 0xE0 SHL DUP5 MSTORE DUP14 PUSH1 0x4 DUP6 ADD MSTORE PUSH1 0x24 DUP5 ADD MSTORE PUSH1 0x44 DUP4 ADD SWAP1 PUSH2 0x18B1 JUMP JUMPDEST SUB SWAP3 AND GAS STATICCALL PUSH0 SWAP2 DUP2 PUSH2 0x1A1F JUMPI JUMPDEST POP PUSH2 0x19EB JUMPI POP PUSH2 0x19E6 SWAP1 PUSH2 0x1587 JUMP JUMPDEST PUSH2 0x1952 JUMP JUMPDEST DUP8 PUSH2 0x19F5 DUP3 PUSH2 0x14EF JUMP JUMPDEST MLOAD GT PUSH2 0x1A06 JUMPI JUMPDEST POP PUSH2 0x19E6 SWAP1 PUSH2 0x1587 JUMP JUMPDEST SWAP1 SWAP10 POP PUSH2 0x1A14 SWAP2 SWAP7 POP PUSH2 0x14EF JUMP JUMPDEST MLOAD SWAP5 DUP9 PUSH2 0x19E6 PUSH2 0x19FC JUMP JUMPDEST PUSH2 0x1A34 SWAP2 SWAP3 POP RETURNDATASIZE DUP1 PUSH0 DUP4 RETURNDATACOPY PUSH2 0x643 DUP2 DUP4 PUSH2 0x1300 JUMP JUMPDEST SWAP1 PUSH0 PUSH2 0x19D7 JUMP JUMPDEST POP POP PUSH2 0x19E6 SWAP1 PUSH2 0x1587 JUMP JUMPDEST ISZERO PUSH2 0x1A4D JUMPI JUMP JUMPDEST PUSH1 0x40 MLOAD PUSH3 0x461BCD PUSH1 0xE5 SHL DUP2 MSTORE PUSH1 0x20 PUSH1 0x4 DUP3 ADD MSTORE PUSH1 0xE PUSH1 0x24 DUP3 ADD MSTORE PUSH14 0x125B9D985B1A5908111156081251 PUSH1 0x92 SHL PUSH1 0x44 DUP3 ADD MSTORE PUSH1 0x64 SWAP1 REVERT JUMPDEST SWAP2 SWAP3 PUSH1 0x80 SWAP4 PUSH2 0x1AA8 SWAP3 SWAP8 SWAP7 SWAP6 SWAP8 DUP5 MSTORE PUSH1 0x20 DUP5 ADD MSTORE PUSH1 0xA0 PUSH1 0x40 DUP5 ADD MSTORE PUSH1 0xA0 DUP4 ADD SWAP1 PUSH2 0x18B1 JUMP JUMPDEST PUSH1 0x1 PUSH1 0x1 PUSH1 0xA0 SHL SUB SWAP1 SWAP6 AND PUSH1 0x60 DUP3 ADD MSTORE ADD MSTORE JUMP JUMPDEST PUSH1 0x2 PUSH1 0x1 SLOAD EQ PUSH2 0x1ACD JUMPI PUSH1 0x2 PUSH1 0x1 SSTORE JUMP JUMPDEST PUSH1 0x40 MLOAD PUSH4 0x3EE5AEB5 PUSH1 0xE0 SHL DUP2 MSTORE PUSH1 0x4 SWAP1 REVERT JUMPDEST PUSH1 0x40 MLOAD PUSH4 0x23B872DD PUSH1 0xE0 SHL PUSH1 0x20 DUP3 ADD MSTORE PUSH1 0x1 PUSH1 0x1 PUSH1 0xA0 SHL SUB SWAP3 DUP4 AND PUSH1 0x24 DUP3 ADD MSTORE SWAP3 SWAP1 SWAP2 AND PUSH1 0x44 DUP4 ADD MSTORE PUSH1 0x64 DUP1 DUP4 ADD SWAP4 SWAP1 SWAP4 MSTORE SWAP2 DUP2 MSTORE PUSH1 0xA0 DUP2 ADD SWAP2 DUP2 DUP4 LT PUSH8 0xFFFFFFFFFFFFFFFF DUP5 GT OR PUSH2 0x12EC JUMPI PUSH2 0x1B38 SWAP3 PUSH1 0x40 MSTORE PUSH2 0x1BA6 JUMP JUMPDEST JUMP JUMPDEST PUSH1 0x40 MLOAD PUSH4 0xA9059CBB PUSH1 0xE0 SHL PUSH1 0x20 DUP3 ADD MSTORE PUSH1 0x1 PUSH1 0x1 PUSH1 0xA0 SHL SUB SWAP3 SWAP1 SWAP3 AND PUSH1 0x24 DUP4 ADD MSTORE PUSH1 0x44 DUP1 DUP4 ADD SWAP4 SWAP1 SWAP4 MSTORE SWAP2 DUP2 MSTORE PUSH2 0x1B38 SWAP2 PUSH2 0x1B76 PUSH1 0x64 DUP4 PUSH2 0x1300 JUMP JUMPDEST PUSH2 0x1BA6 JUMP JUMPDEST PUSH0 SLOAD PUSH1 0x1 PUSH1 0x1 PUSH1 0xA0 SHL SUB AND CALLER SUB PUSH2 0x1B8E JUMPI JUMP JUMPDEST PUSH1 0x40 MLOAD PUSH4 0x118CDAA7 PUSH1 0xE0 SHL DUP2 MSTORE CALLER PUSH1 0x4 DUP3 ADD MSTORE PUSH1 0x24 SWAP1 REVERT JUMPDEST SWAP1 PUSH0 PUSH1 0x20 SWAP2 DUP3 DUP2 MLOAD SWAP2 ADD DUP3 DUP6 GAS CALL ISZERO PUSH2 0x1C00 JUMPI PUSH0 MLOAD RETURNDATASIZE PUSH2 0x1BF7 JUMPI POP PUSH1 0x1 PUSH1 0x1 PUSH1 0xA0 SHL SUB DUP2 AND EXTCODESIZE ISZERO JUMPDEST PUSH2 0x1BD5 JUMPI POP JUMP JUMPDEST PUSH1 0x40 MLOAD PUSH4 0x5274AFE7 PUSH1 0xE0 SHL DUP2 MSTORE PUSH1 0x1 PUSH1 0x1 PUSH1 0xA0 SHL SUB SWAP1 SWAP2 AND PUSH1 0x4 DUP3 ADD MSTORE PUSH1 0x24 SWAP1 REVERT JUMPDEST PUSH1 0x1 EQ ISZERO PUSH2 0x1BCE JUMP JUMPDEST PUSH1 0x40 MLOAD RETURNDATASIZE PUSH0 DUP3 RETURNDATACOPY RETURNDATASIZE SWAP1 REVERT INVALID LOG2 PUSH5 0x6970667358 0x22 SLT KECCAK256 0xD1 0xD6 0xD5 0xA6 DELEGATECALL PUSH31 0x6E7036913603940F2294F46EC659A8DA26410108697EEE4DB87264736F6C63 NUMBER STOP ADDMOD XOR STOP CALLER "},"methodIdentifiers":{"addDEX(address,string)":"dcbe43d9","dexCount()":"ab304695","dexes(uint256)":"6338a7c0","emergencyWithdraw(address,uint256)":"95ccea67","feeCollector()":"c415b95c","feePercentage()":"a001ecdd","getAllQuotes(address,address,uint256)":"2e4e8438","getBestQuote(address,address,uint256)":"228c04b8","getBestQuoteWithPath(address,address,uint256,address[])":"1045ef53","owner()":"8da5cb5b","renounceOwnership()":"715018a6","setDEXStatus(uint256,bool)":"4d541a5e","setFeeCollector(address)":"a42dce80","setFeePercentage(uint256)":"ae06c1b7","swapOnSpecificDEX(uint256,address,address,uint256,uint256,uint256)":"6a65f8af","swapWithBestRate(address,address,uint256,uint256,uint256)":"cc449693","swapWithBestRateAndPath(address,address,uint256,uint256,uint256,address[])":"09f1578c","transferOwnership(address)":"f2fde38b"}}}}}