{
  "_format": "hh-sol-artifact-1",
  "contractName": "TWAPOracle",
  "sourceName": "contracts/TWAPOracle.sol",
  "abi": [
    {
      "inputs": [
        {
          "internalType": "address",
          "name": "_pair",
          "type": "address"
        }
      ],
      "stateMutability": "nonpayable",
      "type": "constructor"
    },
    {
      "anonymous": false,
      "inputs": [
        {
          "indexed": false,
          "internalType": "uint256",
          "name": "timestamp",
          "type": "uint256"
        },
        {
          "indexed": false,
          "internalType": "uint256",
          "name": "price0Cumulative",
          "type": "uint256"
        },
        {
          "indexed": false,
          "internalType": "uint256",
          "name": "price1Cumulative",
          "type": "uint256"
        }
      ],
      "name": "ObservationRecorded",
      "type": "event"
    },
    {
      "inputs": [],
      "name": "MAX_OBSERVATIONS",
      "outputs": [
        {
          "internalType": "uint256",
          "name": "",
          "type": "uint256"
        }
      ],
      "stateMutability": "view",
      "type": "function"
    },
    {
      "inputs": [],
      "name": "MIN_UPDATE_INTERVAL",
      "outputs": [
        {
          "internalType": "uint256",
          "name": "",
          "type": "uint256"
        }
      ],
      "stateMutability": "view",
      "type": "function"
    },
    {
      "inputs": [],
      "name": "WINDOW_SIZE",
      "outputs": [
        {
          "internalType": "uint256",
          "name": "",
          "type": "uint256"
        }
      ],
      "stateMutability": "view",
      "type": "function"
    },
    {
      "inputs": [
        {
          "internalType": "address",
          "name": "token",
          "type": "address"
        },
        {
          "internalType": "uint256",
          "name": "amountIn",
          "type": "uint256"
        }
      ],
      "name": "consult",
      "outputs": [
        {
          "internalType": "uint256",
          "name": "amountOut",
          "type": "uint256"
        }
      ],
      "stateMutability": "view",
      "type": "function"
    },
    {
      "inputs": [],
      "name": "getLatestObservation",
      "outputs": [
        {
          "internalType": "uint256",
          "name": "timestamp",
          "type": "uint256"
        },
        {
          "internalType": "uint256",
          "name": "price0Cumulative",
          "type": "uint256"
        },
        {
          "internalType": "uint256",
          "name": "price1Cumulative",
          "type": "uint256"
        }
      ],
      "stateMutability": "view",
      "type": "function"
    },
    {
      "inputs": [],
      "name": "getObservationsLength",
      "outputs": [
        {
          "internalType": "uint256",
          "name": "",
          "type": "uint256"
        }
      ],
      "stateMutability": "view",
      "type": "function"
    },
    {
      "inputs": [],
      "name": "observationIndex",
      "outputs": [
        {
          "internalType": "uint256",
          "name": "",
          "type": "uint256"
        }
      ],
      "stateMutability": "view",
      "type": "function"
    },
    {
      "inputs": [
        {
          "internalType": "uint256",
          "name": "",
          "type": "uint256"
        }
      ],
      "name": "observations",
      "outputs": [
        {
          "internalType": "uint256",
          "name": "timestamp",
          "type": "uint256"
        },
        {
          "internalType": "uint256",
          "name": "price0Cumulative",
          "type": "uint256"
        },
        {
          "internalType": "uint256",
          "name": "price1Cumulative",
          "type": "uint256"
        }
      ],
      "stateMutability": "view",
      "type": "function"
    },
    {
      "inputs": [],
      "name": "pair",
      "outputs": [
        {
          "internalType": "contract ISimpleLiquidityPool",
          "name": "",
          "type": "address"
        }
      ],
      "stateMutability": "view",
      "type": "function"
    },
    {
      "inputs": [],
      "name": "token0",
      "outputs": [
        {
          "internalType": "address",
          "name": "",
          "type": "address"
        }
      ],
      "stateMutability": "view",
      "type": "function"
    },
    {
      "inputs": [],
      "name": "token1",
      "outputs": [
        {
          "internalType": "address",
          "name": "",
          "type": "address"
        }
      ],
      "stateMutability": "view",
      "type": "function"
    },
    {
      "inputs": [],
      "name": "update",
      "outputs": [
        {
          "internalType": "bool",
          "name": "",
          "type": "bool"
        }
      ],
      "stateMutability": "nonpayable",
      "type": "function"
    }
  ],
  "bytecode": "0x60e0604081815234620002335762000d3a8038038091620000218286620002a9565b84396001600160a01b039283916200003d9190810190620002e1565b1680608052815192838092630dfe168160e01b8252602095869160049586915afa9081156200027d575f9162000287575b5060a0528184826080511685519283809263d21220a760e01b82525afa9081156200027d5791849184935f9162000249575b5060c05260805116815192838092630240bc6b60e21b82525afa9081156200023f575f905f9262000200575b5015159081620001f5575b5015620001c557428155815190606082016001600160401b03811183821017620001b25783524282528382015f8152838301915f83525f5490680100000000000000008210156200019f5760018201805f558210156200018c5750600360029495965f80525f20910201935184555160018401555191015551610a3790816200030382396080518181816101550152610681015260a05181818161027601526104d3015260c05181818160f6015261042e0152f35b603290634e487b7160e01b5f525260245ffd5b604190634e487b7160e01b5f525260245ffd5b604182634e487b7160e01b5f525260245ffd5b82606492519162461bcd60e51b8352820152600c60248201526b4e6f206c697175696469747960a01b6044820152fd5b905015155f620000d7565b809250848092503d831162000237575b6200021c8183620002a9565b810103126200023357838151910151905f620000cc565b5f80fd5b503d62000210565b83513d5f823e3d90fd5b6200026e9150873d891162000275575b620002658183620002a9565b810190620002e1565b5f620000a0565b503d62000259565b84513d5f823e3d90fd5b620002a29150853d87116200027557620002658183620002a9565b5f6200006e565b601f909101601f19168101906001600160401b03821190821017620002cd57604052565b634e487b7160e01b5f52604160045260245ffd5b908160209103126200023357516001600160a01b038116810362000233579056fe6080604090808252600480361015610015575f80fd5b5f3560e01c9182630dfe1681146104c157508163252c09d7146104735781633ca52526146104585781633ddac95314610249578163509ef27c1461022c5781638091a1c7146101a957508063a2e6204514610184578063a8aa1b3114610141578063bd3be27c14610125578063d21220a7146100e2578063d6cf0c37146100c45763d7150180146100a4575f80fd5b346100c0575f3660031901126100c0576020905f549051908152f35b5f80fd5b50346100c0575f3660031901126100c0576020906001549051908152f35b50346100c0575f3660031901126100c057517f00000000000000000000000000000000000000000000000000000000000000006001600160a01b03168152602090f35b50346100c0575f3660031901126100c057602090516102588152f35b50346100c0575f3660031901126100c057517f00000000000000000000000000000000000000000000000000000000000000006001600160a01b03168152602090f35b50346100c0575f3660031901126100c0576020906101a061062a565b90519015158152f35b9050346100c0575f3660031901126100c0575f549060908211156102015750506101dd6101d7600154610502565b5061059e565b80516020808301519284015193519182528101919091526040810191909152606090f35b5f19820191821161021957506101d76101dd91610502565b601190634e487b7160e01b5f525260245ffd5b82346100c0575f3660031901126100c05760209051620151808152f35b82346100c057806003193601126100c0576001600160a01b038235818116908190036100c05760243590827f0000000000000000000000000000000000000000000000000000000000000000168114908193821561042c575b5050156103f9575f5460018111156103b6576102bc6108c2565b90609081111561038c57506102d56101d7600154610502565b6102e2815183519061054d565b936102588510610349576020965085901561032757509261031161031692878061031c9701519101519061054d565b6105c6565b906105e4565b60701c905b51908152f35b610316928161031192610340979401519101519061054d565b60701c90610321565b855162461bcd60e51b8152602081890152601960248201527f496e73756666696369656e742074696d6520656c6170736564000000000000006044820152606490fd5b5f1981019081116103a3576101d76102d591610502565b601186634e487b7160e01b5f525260245ffd5b835162461bcd60e51b8152602081870152601960248201527f496e73756666696369656e74206f62736572766174696f6e73000000000000006044820152606490fd5b825162461bcd60e51b8152602081860152600d60248201526c24b73b30b634b2103a37b5b2b760991b6044820152606490fd5b7f00000000000000000000000000000000000000000000000000000000000000001614905085806102a2565b82346100c0575f3660031901126100c0576020905160908152f35b9050346100c05760203660031901126100c057355f548110156100c05761049990610502565b5080546001820154600290920154925190815260208101919091526040810191909152606090f35b346100c0575f3660031901126100c0577f00000000000000000000000000000000000000000000000000000000000000006001600160a01b03168152602090f35b5f54811015610539576003905f8052027f290decd9548b62a8d60345a988386fc84ba6bc95484008f6362f93160ef3e56301905f90565b634e487b7160e01b5f52603260045260245ffd5b9190820391821161055a57565b634e487b7160e01b5f52601160045260245ffd5b6060810190811067ffffffffffffffff82111761058a57604052565b634e487b7160e01b5f52604160045260245ffd5b906040516105ab8161056e565b60406002829480548452600181015460208501520154910152565b81156105d0570490565b634e487b7160e01b5f52601260045260245ffd5b8181029291811591840414171561055a57565b919061061757604081600292518455602081015160018501550151910155565b634e487b7160e01b5f525f60045260245ffd5b5f545f19810181811161055a576101d761064391610502565b51610258810180911161055a5742106108bd57600461066381544261054d565b80156108b65760408051630240bc6b60e21b815290939091848385817f00000000000000000000000000000000000000000000000000000000000000006001600160a01b03165afa80156108ac575f935f9161084e575b5083151580610845575b1561081357906106f082826106de8760909660701b6105c6565b0260025401958660025560701b6105c6565b02600354019182600355428555105f146107ac575050600254906003548351926107198461056e565b4284526020840152838301525f54906801000000000000000082101561079957507f5d2f23d17c4ad5347ae00f7c12f3c1b984d44422cecfcba0009c80d996899f72929161076f82600161077594015f55610502565b906105f7565b600254600354915142815260208101919091526040810191909152606090a1600190565b604190634e487b7160e01b5f525260245ffd5b9091600154906001820180921161021957509161076f61080e9260907f5d2f23d17c4ad5347ae00f7c12f3c1b984d44422cecfcba0009c80d996899f7296950690816001558551936107fd8561056e565b428552602085015285840152610502565b610775565b855162461bcd60e51b8152602081870152600c60248201526b4e6f206c697175696469747960a01b6044820152606490fd5b508015156106c4565b935050843d86116108a5575b601f8101601f1916840167ffffffffffffffff81118582101761089257869185918352810103126100c057602083519301515f6106ba565b604186634e487b7160e01b5f525260245ffd5b503d61085a565b85513d5f823e3d90fd5b5050505f90565b505f90565b5f604080516108d08161056e565b82815282602082015201525f5460909060908111156109765750600180546001810180911161055a57609090066109096101d782610502565b9262015180908161091b86514261054d565b111561096f5760015b81811061093357505050505090565b80840180851161055a576101d78361094b9206610502565b8361095782514261054d565b111561096557508401610924565b9550505050505090565b5050505090565b905015610539575f805260405161098c8161056e565b7f290decd9548b62a8d60345a988386fc84ba6bc95484008f6362f93160ef3e5635481527f290decd9548b62a8d60345a988386fc84ba6bc95484008f6362f93160ef3e5645460208201527f290decd9548b62a8d60345a988386fc84ba6bc95484008f6362f93160ef3e5655460408201529056fea2646970667358221220b19a7687d6737c7e78532a3ddacc66851c71d65ade18c1f965ac7a0331dea0b564736f6c63430008180033",
  "linkReferences": {},
  "deployedLinkReferences": {}
}