{
  "_format": "hh-sol-artifact-1",
  "contractName": "BianDEXFactory_V3",
  "sourceName": "contracts/BianDEX_V3.sol",
  "abi": [
    {
      "inputs": [],
      "stateMutability": "nonpayable",
      "type": "constructor"
    },
    {
      "inputs": [],
      "name": "EnforcedPause",
      "type": "error"
    },
    {
      "inputs": [],
      "name": "ExpectedPause",
      "type": "error"
    },
    {
      "inputs": [
        {
          "internalType": "address",
          "name": "owner",
          "type": "address"
        }
      ],
      "name": "OwnableInvalidOwner",
      "type": "error"
    },
    {
      "inputs": [
        {
          "internalType": "address",
          "name": "account",
          "type": "address"
        }
      ],
      "name": "OwnableUnauthorizedAccount",
      "type": "error"
    },
    {
      "anonymous": false,
      "inputs": [
        {
          "indexed": true,
          "internalType": "address",
          "name": "previousOwner",
          "type": "address"
        },
        {
          "indexed": true,
          "internalType": "address",
          "name": "newOwner",
          "type": "address"
        }
      ],
      "name": "OwnershipTransferred",
      "type": "event"
    },
    {
      "anonymous": false,
      "inputs": [
        {
          "indexed": true,
          "internalType": "address",
          "name": "token0",
          "type": "address"
        },
        {
          "indexed": true,
          "internalType": "address",
          "name": "token1",
          "type": "address"
        },
        {
          "indexed": false,
          "internalType": "address",
          "name": "pair",
          "type": "address"
        },
        {
          "indexed": false,
          "internalType": "uint256",
          "name": "pairLength",
          "type": "uint256"
        }
      ],
      "name": "PairCreated",
      "type": "event"
    },
    {
      "anonymous": false,
      "inputs": [
        {
          "indexed": false,
          "internalType": "address",
          "name": "account",
          "type": "address"
        }
      ],
      "name": "Paused",
      "type": "event"
    },
    {
      "anonymous": false,
      "inputs": [
        {
          "indexed": false,
          "internalType": "address",
          "name": "account",
          "type": "address"
        }
      ],
      "name": "Unpaused",
      "type": "event"
    },
    {
      "inputs": [
        {
          "internalType": "uint256",
          "name": "",
          "type": "uint256"
        }
      ],
      "name": "allPairs",
      "outputs": [
        {
          "internalType": "address",
          "name": "",
          "type": "address"
        }
      ],
      "stateMutability": "view",
      "type": "function"
    },
    {
      "inputs": [],
      "name": "allPairsLength",
      "outputs": [
        {
          "internalType": "uint256",
          "name": "",
          "type": "uint256"
        }
      ],
      "stateMutability": "view",
      "type": "function"
    },
    {
      "inputs": [
        {
          "internalType": "address",
          "name": "tokenA",
          "type": "address"
        },
        {
          "internalType": "address",
          "name": "tokenB",
          "type": "address"
        }
      ],
      "name": "createPair",
      "outputs": [
        {
          "internalType": "address",
          "name": "pair",
          "type": "address"
        }
      ],
      "stateMutability": "nonpayable",
      "type": "function"
    },
    {
      "inputs": [
        {
          "internalType": "address",
          "name": "",
          "type": "address"
        },
        {
          "internalType": "address",
          "name": "",
          "type": "address"
        }
      ],
      "name": "getPair",
      "outputs": [
        {
          "internalType": "address",
          "name": "",
          "type": "address"
        }
      ],
      "stateMutability": "view",
      "type": "function"
    },
    {
      "inputs": [
        {
          "internalType": "address",
          "name": "",
          "type": "address"
        }
      ],
      "name": "isPair",
      "outputs": [
        {
          "internalType": "bool",
          "name": "",
          "type": "bool"
        }
      ],
      "stateMutability": "view",
      "type": "function"
    },
    {
      "inputs": [],
      "name": "owner",
      "outputs": [
        {
          "internalType": "address",
          "name": "",
          "type": "address"
        }
      ],
      "stateMutability": "view",
      "type": "function"
    },
    {
      "inputs": [],
      "name": "pause",
      "outputs": [],
      "stateMutability": "nonpayable",
      "type": "function"
    },
    {
      "inputs": [],
      "name": "paused",
      "outputs": [
        {
          "internalType": "bool",
          "name": "",
          "type": "bool"
        }
      ],
      "stateMutability": "view",
      "type": "function"
    },
    {
      "inputs": [],
      "name": "renounceOwnership",
      "outputs": [],
      "stateMutability": "nonpayable",
      "type": "function"
    },
    {
      "inputs": [
        {
          "internalType": "address",
          "name": "newOwner",
          "type": "address"
        }
      ],
      "name": "transferOwnership",
      "outputs": [],
      "stateMutability": "nonpayable",
      "type": "function"
    },
    {
      "inputs": [],
      "name": "unpause",
      "outputs": [],
      "stateMutability": "nonpayable",
      "type": "function"
    }
  ],
  "bytecode": "0x60808060405234610078573315610063575f8054336001600160a01b03198216811783556040519290916001600160a01b0316907f8be0079c531659141344cd1fd0a4f28419497f9722a3daafe3b4186f6b6457e09080a3612887908161007d8239f35b631e4fbdf760e01b81525f6004820152602490fd5b5f80fdfe60406080815260048036101562000014575f80fd5b5f3560e01c80631e3dd18b14620005d35780633f4ba83a1462000560578063574f2ba314620005405780635c975abb1462000519578063715018a614620004be5780638456cb59146200045a5780638da5cb5b1462000431578063c9c6539614620001ca578063e5e31b13146200018a578063e6a4390514620001365763f2fde38b14620000a0575f80fd5b34620001325760203660031901126200013257620000bd62000661565b90620000c86200068f565b6001600160a01b039182169283156200011c5750505f54826bffffffffffffffffffffffff60a01b8216175f55167f8be0079c531659141344cd1fd0a4f28419497f9722a3daafe3b4186f6b6457e05f80a3005b905f6024925191631e4fbdf760e01b8352820152fd5b5f80fd5b823462000132578060031936011262000132576020906200015662000661565b6200016062000678565b6001600160a01b039182165f90815260018552838120918316815290845282902054915191168152f35b82346200013257602036600319011262000132576020906001600160a01b03620001b362000661565b165f526003825260ff815f20541690519015158152f35b50346200013257816003193601126200013257620001e762000661565b91620001f262000678565b620001fc620006bb565b6001600160a01b0393818516818616808214620003fb5780151580620003f1575b15620003bf578692911115620003b8575b16805f526020946001865280845f20931692835f52865280845f205416620003875783516121758082019082821067ffffffffffffffff831117620003745786918391620006dd8339858152868a8201520301905ff080156200036a57811694825f5260018752845f20845f528752845f206bffffffffffffffffffffffff60a01b90878282541617905560018852855f20845f52885286865f20918254161790556002549068010000000000000000821015620003575750806001620002f9920160025562000617565b819291549060031b9187831b921b1916179055835f5260038552825f20600160ff198254161790557f0d3648bd0f6ba80134a33ba9275ac585d9d315f0ad8355cddefde31afa28d0e98360025481519087825288820152a351908152f35b604190634e487b7160e01b5f525260245ffd5b84513d5f823e3d90fd5b604188634e487b7160e01b5f525260245ffd5b835162461bcd60e51b8152808601879052600b60248201526a506169722065786973747360a81b6044820152606490fd5b916200022e565b845162461bcd60e51b8152602081880152600c60248201526b5a65726f206164647265737360a01b6044820152606490fd5b508115156200021d565b845162461bcd60e51b8152602081880152601060248201526f4964656e746963616c20746f6b656e7360801b6044820152606490fd5b823462000132575f36600319011262000132575f5490516001600160a01b039091168152602090f35b823462000132575f366003190112620001325760207f62e78cea01bee320cd4e420270b5ea74000d11b0c9f74754ebdbfc544b05a258916200049b6200068f565b620004a5620006bb565b5f805460ff60a01b1916600160a01b17905551338152a1005b3462000132575f3660031901126200013257620004da6200068f565b5f80546001600160a01b0319811682556001600160a01b03167f8be0079c531659141344cd1fd0a4f28419497f9722a3daafe3b4186f6b6457e08280a3005b823462000132575f366003190112620001325760209060ff5f5460a01c1690519015158152f35b823462000132575f36600319011262000132576020906002549051908152f35b50903462000132575f36600319011262000132576200057e6200068f565b5f549160ff8360a01c1615620005c55760ff60a01b1983165f5581513381527f5db9ee0a495bf2e6ff9c91a7834c1ba4fdd244a5e8aa4e537bd38aeae4b073aa90602090a1005b9051638dfc202b60e01b8152fd5b5034620001325760203660031901126200013257359060025482101562000132576200060160209262000617565b905491519160018060a01b039160031b1c168152f35b6002548110156200064d5760025f527f405787fa12a823e0f2b7631cc41b3ba8828b3321ca811111fa75cd3aa3bb5ace01905f90565b634e487b7160e01b5f52603260045260245ffd5b600435906001600160a01b03821682036200013257565b602435906001600160a01b03821682036200013257565b5f546001600160a01b03163303620006a357565b60405163118cdaa760e01b8152336004820152602490fd5b60ff5f5460a01c16620006ca57565b60405163d93c066560e01b8152600490fdfe60c034620004e157601f9062002175906001600160401b03601f1938849003858101821684019083821185831017620003ee5780859160409788948552833981010312620004e157620000528362000505565b62000061602080950162000505565b926200006c620004e5565b90600d82526c4269616e444558204c5020563360981b8683015262000090620004e5565b97600a895269534445582d4c502d563360b01b878a0152825190828211620003ee5760039182546001958682811c92168015620004d6575b8b831014620004c25781848493116200046f575b508a908483116001146200040e575f9262000402575b50505f1982851b1c191690851b1782555b8951928311620003ee5760049586548581811c91168015620003e3575b8a821014620003d05782811162000388575b508891841160011462000322575082939495969798995f9362000316575b505082841b925f19911b1c19161783555b6005553315620003005760068054336001600160a01b0319821681179092558651946001600160a01b03939092849283167f8be0079c531659141344cd1fd0a4f28419497f9722a3daafe3b4186f6b6457e05f80a3169384151580620002f4575b15620002c4575016928383146200028f57838310156200025f57505060805260a05251611c5a90816200051b82396080518181816101930152818161036a015281816106be0152818161085001528181610df301526114db015260a0518181816101da0152818161039701528181610661015281816107c1015281816108a00152818161098901528181610b9901528181610bc50152610e200152f35b845162461bcd60e51b815291820152600b60248201526a2a37b5b2b71037b93232b960a91b604482015260649150fd5b845162461bcd60e51b815291820152601060248201526f4964656e746963616c20746f6b656e7360801b604482015260649150fd5b62461bcd60e51b8152838101869052600c60248201526b5a65726f206164647265737360a01b6044820152606490fd5b508282161515620001c2565b8451631e4fbdf760e01b81525f81840152602490fd5b015191505f8062000150565b5f8781528981209392918516905b8181106200037257509a84869798999a9b9c1062000358575b50505050811b01835562000161565b01519060f8845f19921b161c191690555f80808062000349565b8c830151855593860193918a01918a0162000330565b875f52895f208380870160051c8201928c8810620003c6575b0160051c019086905b828110620003ba57505062000132565b5f8155018690620003aa565b92508192620003a1565b602288634e487b7160e01b5f525260245ffd5b90607f169062000120565b634e487b7160e01b5f52604160045260245ffd5b015190505f80620000f2565b908988941691865f528c5f20928d5f905b8282106200045757505084116200043f575b505050811b01825562000103565b01515f1983871b60f8161c191690555f808062000431565b8385015186558b979095019493840193018e6200041f565b909150845f528a5f208480850160051c8201928d8610620004b8575b918991869594930160051c01915b828110620004a9575050620000dc565b5f815585945089910162000499565b925081926200048b565b634e487b7160e01b5f52602260045260245ffd5b91607f1691620000c8565b5f80fd5b60408051919082016001600160401b03811183821017620003ee57604052565b51906001600160a01b0382168203620004e15756fe6080604081815260049182361015610015575f80fd5b5f3560e01c90816306fdde03146115d5575080630902f1ac146115b2578063095ea7b31461150a5780630dfe1681146114c757806318160ddd146114a957806323b872dd146113b7578063313ce5671461139c5780633f4ba83a1461132d57806341cd47bf14611312578063443cb4bc146112f45780635a76f25e146112d65780635c975abb146112b057806370a082311461127a578063715018a61461121f5780638456cb59146111c05780638da5cb5b1461119857806395d89b4114611096578063a360501c14610c5c578063a9059cbb14610c2c578063acf0ae03146107eb578063ba9a7a5614610648578063ca706bcf14610690578063d21220a71461064d578063d73792a914610648578063dd62ed3e146105ff578063f2fde38b14610570578063f88bf15a146102975763fff6cae914610153575f80fd5b34610247575f3660031901126102475761016b611a31565b80516370a0823160e01b80825230828501526001600160a01b039390919060209081836024817f00000000000000000000000000000000000000000000000000000000000000008a165afa92831561028d575f9361025b575b50602482939486519788938492835230908301527f0000000000000000000000000000000000000000000000000000000000000000165afa92831561025257505f9261021c575b6102158383611ad0565b6001600555005b90915082813d831161024b575b6102338183611757565b81010312610247576102159151905f61020b565b5f80fd5b503d610229565b513d5f823e3d90fd5b9180935082813d8311610286575b6102738183611757565b81010312610247579051919060246101c4565b503d610269565b85513d5f823e3d90fd5b5090346102475760803660031901126102475780356102b4611a31565b6102c242606435101561178d565b801561053957600254916102f16102e4846102df600754866117ee565b611801565b936102df600854856117ee565b9161030060243585101561181f565b61030e604435841015611862565b331561052357335f526020915f8352855f20548281106104f7578290335f525f855203865f205581600254036002555f86518381527fddf252ad1be2c89b69c2b068fc378daa952ba7f163c4a11628f55a4df523b3ef853392a37f000000000000000000000000000000000000000000000000000000000000000090610395863384611b73565b7f0000000000000000000000000000000000000000000000000000000000000000916103c2863385611b73565b87516370a0823160e01b80825230828501526001600160a01b0393919287908490602490829088165afa9384156104ed5787935f956104b9575b50906024918b51968794859384523090840152165afa9081156104af575f9161047e575b61042a9250611ad0565b7f1dc8bb69df2b8e91fbdcbfcf93d951b3f0000f085a95fe3f7946d6161439245d85518061046c33948789846040919493926060820195825260208201520152565b0390a260016005558351928352820152f35b90508382813d83116104a8575b6104958183611757565b810103126102475761042a915190610420565b503d61048b565b87513d5f823e3d90fd5b848193959296503d83116104e6575b6104d28183611757565b8101031261024757519286929060246103fc565b503d6104c8565b8a513d5f823e3d90fd5b865163391434e360e21b8152339281019283526020830191909152604082019290925281906060010390fd5b8451634b637e8f60e11b81525f81840152602490fd5b506020606492519162461bcd60e51b83528201526011602482015270496e76616c6964206c697175696469747960781b6044820152fd5b5090346102475760203660031901126102475761058b61170f565b90610594611a05565b6001600160a01b039182169283156105e9575050600654826bffffffffffffffffffffffff60a01b821617600655167f8be0079c531659141344cd1fd0a4f28419497f9722a3daafe3b4186f6b6457e05f80a3005b905f6024925191631e4fbdf760e01b8352820152fd5b503461024757806003193601126102475760209061061b61170f565b610623611725565b9060018060a01b038091165f5260018452825f2091165f528252805f20549051908152f35b61173b565b5034610247575f36600319011261024757517f00000000000000000000000000000000000000000000000000000000000000006001600160a01b03168152602090f35b50346102475780600319360112610247576106a961170f565b91602435926106f160018060a01b03809216827f000000000000000000000000000000000000000000000000000000000000000016811490819382156107bf575b50506118a5565b6106fc8415156118e1565b156107b357600754600854915b8115948515806107aa575b1561076e5761072561072c916117c3565b93846117ee565b946103e880840293840414171561075b57509261074e6107549260209561191e565b90611801565b9051908152f35b601190634e487b7160e01b5f525260245ffd5b845162461bcd60e51b81526020818401526016602482015275496e73756666696369656e74206c697175696469747960501b6044820152606490fd5b50831515610714565b60085460075491610709565b7f0000000000000000000000000000000000000000000000000000000000000000161490505f806106ea565b5090346102475760a03660031901126102475761080661170f565b9160249283356064359360018060a01b03808616938487036102475761082a611a31565b610832611a54565b61084042608435101561178d565b84151580610c22575b15610bec577f0000000000000000000000000000000000000000000000000000000000000000928280851692169361088c83861480968115610bc0575b506118a5565b6108978615156118e1565b8415610b9557977f00000000000000000000000000000000000000000000000000000000000000005b8515610b8857600754996008549a5b6108d8896117c3565b6108e28d826117ee565b916103e890818102918183041490151715610b7657610905929161074e9161191e565b9a6044358c10610b3e578b15159081610b34575b5015610b0157918a91610933896109389530903390611a75565b611b73565b610947600754600854906117ee565b988751998a936370a0823160e01b908186523085870152858460209e8f935afa9485156104ed57908c915f96610ad0575b50838b5180988193825230888301527f0000000000000000000000000000000000000000000000000000000000000000165afa948515610ac6575f95610a97575b506109c485856117ee565b10610a61575050906109d591611ad0565b15610a215782519081525f858201525f838201528360608201527fd78ad95fa46c994b6551d0da85fc275fe613ce37657fb8d5e3d130840159d82260803392a35b600160055551908152f35b8251905f82528582015283838201525f60608201527fd78ad95fa46c994b6551d0da85fc275fe613ce37657fb8d5e3d130840159d82260803392a3610a16565b875162461bcd60e51b81529182018a90526011908201527012c81d985b1d5948191958dc99585cd959607a1b6044820152606490fd5b9094508a81813d8311610abf575b610aaf8183611757565b810103126102475751935f6109b9565b503d610aa5565b89513d5f823e3d90fd5b8281939297503d8311610afa575b610ae88183611757565b81010312610247578b9051945f610978565b503d610ade565b895162461bcd60e51b8152602081860152600e818e01526d125b9d985b1a59081bdd5d1c1d5d60921b6044820152606490fd5b90508b105f610919565b8a5162461bcd60e51b81526020818701526013818f015272125b9cdd59999a58da595b9d081bdd5d1c1d5d606a1b6044820152606490fd5b8e601188634e487b7160e01b5f52525ffd5b600854996007549a6108cf565b50827f00000000000000000000000000000000000000000000000000000000000000001697826108c0565b9050857f000000000000000000000000000000000000000000000000000000000000000016145f610886565b855162461bcd60e51b81526020818501526011818a015270125b9d985b1a59081c9958da5c1a595b9d607a1b6044820152606490fd5b5030851415610849565b5034610247578060031936011261024757602090610c55610c4b61170f565b602435903361192b565b5160018152f35b5090346102475760a03660031901126102475760249182358235610c7e611a31565b610c86611a54565b610c9442608435101561178d565b8015158061108d575b156110595760075460085490801580611051575b15610d9657505090610cc2916117ee565b5f6003821115610d7f5750806001908060011c60018101809111610d6d579291905b828410610d4d5750506103e891505b1115610d0c575f90519163ec442f0560e01b8352820152fd5b6064926020601e92519362461bcd60e51b85528401528201527f496e73756666696369656e7420696e697469616c206c697175696469747900006044820152fd5b909150610d6383610d5e8184611801565b61191e565b821c929190610ce4565b86601187634e487b7160e01b5f52525ffd5b90610d8e575b6103e890610cf3565b506001610d85565b909491610da7826102df88846117ee565b9380851161100f5750610de090610dc2606435861015611862565b93955b6102df610dd9600254946102df86896117ee565b93886117ee565b8082101561100857505b938415610fc6577f0000000000000000000000000000000000000000000000000000000000000000610e1e84303384611a75565b7f000000000000000000000000000000000000000000000000000000000000000092610e4c83303387611a75565b3315610fb157610e5e8760025461191e565b600255335f526020975f8952865f2088815401905586518881525f7fddf252ad1be2c89b69c2b068fc378daa952ba7f163c4a11628f55a4df523b3ef8b3393a386516370a0823160e01b808252308483015290936001600160a01b03908b9086908590829085165afa948515610ac657908b949392915f96610f80575b508951978894859384523090840152165afa92831561028d57908692915f94610f4b575b507f64b83944e79c3ce8d4c297411de637c3e102d064677aac0c163976ebdcd6f50e93610f2b91611ad0565b8451938452602084015260408301523391606090a2600160055551908152f35b935091508683813d8111610f79575b610f648183611757565b81010312610247579151918591610f2b610eff565b503d610f5a565b8581969297503d8311610faa575b610f988183611757565b81010312610247578a9351945f610edb565b503d610f8e565b87905f87519163ec442f0560e01b8352820152fd5b835162461bcd60e51b8152602081840152601d818801527f496e73756666696369656e74206c6971756964697479206d696e7465640000006044820152606490fd5b9050610dea565b935061101f866102df84876117ee565b90811161103f57610de09061103860443582101561181f565b9395610dc5565b86600184634e487b7160e01b5f52525ffd5b508115610cb1565b825162461bcd60e51b8152602081860152600f818701526e496e76616c696420616d6f756e747360881b6044820152606490fd5b50811515610c9d565b5034610247575f366003190112610247578051905f9280549060018260011c916001841693841561118e575b602094858510811461117b578488529081156111595750600114611100575b6110fc86866110f2828b0383611757565b51918291826116c8565b0390f35b5f9081529295507f8a35acfbc15ff81a39ae7d344fd709f28e8600b4aa8c65c6b64bfe7fe36bd19b5b82841061114657505050826110fc946110f292820101945f6110e1565b8054868501880152928601928101611129565b60ff191687860152505050151560051b83010192506110f2826110fc5f6110e1565b602283634e487b7160e01b5f525260245ffd5b92607f16926110c2565b5034610247575f3660031901126102475760065490516001600160a01b039091168152602090f35b5034610247575f3660031901126102475760207f62e78cea01bee320cd4e420270b5ea74000d11b0c9f74754ebdbfc544b05a258916111fd611a05565b611205611a54565b6006805460ff60a01b1916600160a01b17905551338152a1005b34610247575f36600319011261024757611237611a05565b600680546001600160a01b031981169091555f906001600160a01b03167f8be0079c531659141344cd1fd0a4f28419497f9722a3daafe3b4186f6b6457e08280a3005b5034610247576020366003190112610247576020906001600160a01b0361129f61170f565b165f525f8252805f20549051908152f35b5034610247575f3660031901126102475760209060ff60065460a01c1690519015158152f35b5034610247575f366003190112610247576020906008549051908152f35b5034610247575f366003190112610247576020906007549051908152f35b5034610247575f366003190112610247576020905160038152f35b5034610247575f36600319011261024757611346611a05565b6006549160ff8360a01c161561138e5760ff60a01b19831660065581513381527f5db9ee0a495bf2e6ff9c91a7834c1ba4fdd244a5e8aa4e537bd38aeae4b073aa90602090a1005b9051638dfc202b60e01b8152fd5b5034610247575f366003190112610247576020905160128152f35b509034610247576060366003190112610247576113d261170f565b6113da611725565b906044359260018060a01b038216805f526001602052855f20335f52602052855f2054915f198310611415575b602087610c5588888861192b565b85831061147d57811561146757331561145157505f90815260016020908152868220338352815290869020918590039091558290610c55611407565b6024905f885191634a1406b160e11b8352820152fd5b6024905f88519163e602df0560e01b8352820152fd5b8651637dc7a0d960e11b8152339181019182526020820193909352604081018690528291506060010390fd5b5034610247575f366003190112610247576020906002549051908152f35b5034610247575f36600319011261024757517f00000000000000000000000000000000000000000000000000000000000000006001600160a01b03168152602090f35b503461024757806003193601126102475761152361170f565b60243590331561159c576001600160a01b03169081156115865760209350335f5260018452825f20825f52845280835f205582519081527f8c5be1e5ebec7d5bd14f71427d1e84f3dd0314c0f7b2291e5b200ac8c7c3b925843392a35160018152f35b8251634a1406b160e11b81525f81860152602490fd5b825163e602df0560e01b81525f81860152602490fd5b5034610247575f3660031901126102475760075460085482519182526020820152f35b91905034610247575f366003190112610247575f9260035460018160011c916001811680156116be575b60209485851082146116ab575083875290811561168b5750600114611631575b5050506110f2826110fc940383611757565b60035f9081529295507fc2575a0e9e593c00f959f8c92f12db2869c3395a3b0502d05e2516446f71f85b5b82841061167857505050826110fc946110f2928201019461161f565b805486850188015292860192810161165c565b60ff1916868501525050151560051b83010192506110f2826110fc61161f565b602290634e487b7160e01b5f525260245ffd5b92607f16926115ff565b602080825282518183018190529093925f5b8281106116fb57505060409293505f838284010152601f8019910116010190565b8181018601518482016040015285016116da565b600435906001600160a01b038216820361024757565b602435906001600160a01b038216820361024757565b34610247575f3660031901126102475760206040516103e88152f35b90601f8019910116810190811067ffffffffffffffff82111761177957604052565b634e487b7160e01b5f52604160045260245ffd5b1561179457565b60405162461bcd60e51b8152602060048201526007602482015266115e1c1a5c995960ca1b6044820152606490fd5b906103e5918281029281840414901517156117da57565b634e487b7160e01b5f52601160045260245ffd5b818102929181159184041417156117da57565b811561180b570490565b634e487b7160e01b5f52601260045260245ffd5b1561182657565b60405162461bcd60e51b81526020600482015260146024820152730496e73756666696369656e7420616d6f756e74360641b6044820152606490fd5b1561186957565b60405162461bcd60e51b8152602060048201526014602482015273496e73756666696369656e7420616d6f756e743160601b6044820152606490fd5b156118ac57565b60405162461bcd60e51b815260206004820152600d60248201526c24b73b30b634b2103a37b5b2b760991b6044820152606490fd5b156118e857565b60405162461bcd60e51b815260206004820152600e60248201526d125b9d985b1a5908185b5bdd5b9d60921b6044820152606490fd5b919082018092116117da57565b916001600160a01b038084169283156119ed57169283156119d557825f525f60205260405f2054908282106119a35750817fddf252ad1be2c89b69c2b068fc378daa952ba7f163c4a11628f55a4df523b3ef92602092855f525f84520360405f2055845f5260405f20818154019055604051908152a3565b60405163391434e360e21b81526001600160a01b03919091166004820152602481019190915260448101829052606490fd5b60405163ec442f0560e01b81525f6004820152602490fd5b604051634b637e8f60e11b81525f6004820152602490fd5b6006546001600160a01b03163303611a1957565b60405163118cdaa760e01b8152336004820152602490fd5b600260055414611a42576002600555565b604051633ee5aeb560e01b8152600490fd5b60ff60065460a01c16611a6357565b60405163d93c066560e01b8152600490fd5b6040516323b872dd60e01b60208201526001600160a01b03928316602482015292909116604483015260648083019390935291815260a081019181831067ffffffffffffffff84111761177957611ace92604052611bbf565b565b906dffffffffffffffffffffffffffff808311159081611b68575b5015611b3857816040917fcf2aa50876cdfbb541206f89af0ee78d44a2abf8d328e37fa4917f982149848a9360075580600855611b2881836117ee565b60095582519182526020820152a1565b60405162461bcd60e51b81526020600482015260086024820152674f766572666c6f7760c01b6044820152606490fd5b90508111155f611aeb565b60405163a9059cbb60e01b60208201526001600160a01b039092166024830152604480830193909352918152608081019167ffffffffffffffff83118284101761177957611ace926040525b905f602091828151910182855af115611c19575f513d611c1057506001600160a01b0381163b155b611bee5750565b604051635274afe760e01b81526001600160a01b039091166004820152602490fd5b60011415611be7565b6040513d5f823e3d90fdfea2646970667358221220e169524975257360c0cb680cbd88ebf29ec876f3065039b8996d93dfb9eb759764736f6c63430008180033a2646970667358221220a2ddc87fe24e485cce3c7c0744f8c2df09afe23c6322436205e4b8024aa2536964736f6c63430008180033",
  "linkReferences": {},
  "deployedLinkReferences": {}
}