{
  "_format": "hh-sol-artifact-1",
  "contractName": "BianDEXRouter",
  "sourceName": "contracts/BianDEXRouter.sol",
  "abi": [
    {
      "inputs": [
        {
          "internalType": "address",
          "name": "_factory",
          "type": "address"
        },
        {
          "internalType": "address",
          "name": "_wbnb",
          "type": "address"
        }
      ],
      "stateMutability": "nonpayable",
      "type": "constructor"
    },
    {
      "inputs": [
        {
          "internalType": "address",
          "name": "owner",
          "type": "address"
        }
      ],
      "name": "OwnableInvalidOwner",
      "type": "error"
    },
    {
      "inputs": [
        {
          "internalType": "address",
          "name": "account",
          "type": "address"
        }
      ],
      "name": "OwnableUnauthorizedAccount",
      "type": "error"
    },
    {
      "inputs": [],
      "name": "ReentrancyGuardReentrantCall",
      "type": "error"
    },
    {
      "inputs": [
        {
          "internalType": "address",
          "name": "token",
          "type": "address"
        }
      ],
      "name": "SafeERC20FailedOperation",
      "type": "error"
    },
    {
      "anonymous": false,
      "inputs": [
        {
          "indexed": true,
          "internalType": "address",
          "name": "tokenA",
          "type": "address"
        },
        {
          "indexed": true,
          "internalType": "address",
          "name": "tokenB",
          "type": "address"
        },
        {
          "indexed": true,
          "internalType": "address",
          "name": "provider",
          "type": "address"
        },
        {
          "indexed": false,
          "internalType": "uint256",
          "name": "amountA",
          "type": "uint256"
        },
        {
          "indexed": false,
          "internalType": "uint256",
          "name": "amountB",
          "type": "uint256"
        },
        {
          "indexed": false,
          "internalType": "uint256",
          "name": "liquidity",
          "type": "uint256"
        }
      ],
      "name": "LiquidityAdded",
      "type": "event"
    },
    {
      "anonymous": false,
      "inputs": [
        {
          "indexed": true,
          "internalType": "address",
          "name": "tokenA",
          "type": "address"
        },
        {
          "indexed": true,
          "internalType": "address",
          "name": "tokenB",
          "type": "address"
        },
        {
          "indexed": true,
          "internalType": "address",
          "name": "provider",
          "type": "address"
        },
        {
          "indexed": false,
          "internalType": "uint256",
          "name": "amountA",
          "type": "uint256"
        },
        {
          "indexed": false,
          "internalType": "uint256",
          "name": "amountB",
          "type": "uint256"
        },
        {
          "indexed": false,
          "internalType": "uint256",
          "name": "liquidity",
          "type": "uint256"
        }
      ],
      "name": "LiquidityRemoved",
      "type": "event"
    },
    {
      "anonymous": false,
      "inputs": [
        {
          "indexed": true,
          "internalType": "address",
          "name": "previousOwner",
          "type": "address"
        },
        {
          "indexed": true,
          "internalType": "address",
          "name": "newOwner",
          "type": "address"
        }
      ],
      "name": "OwnershipTransferred",
      "type": "event"
    },
    {
      "anonymous": false,
      "inputs": [
        {
          "indexed": true,
          "internalType": "address",
          "name": "user",
          "type": "address"
        },
        {
          "indexed": false,
          "internalType": "address[]",
          "name": "path",
          "type": "address[]"
        },
        {
          "indexed": false,
          "internalType": "uint256",
          "name": "amountIn",
          "type": "uint256"
        },
        {
          "indexed": false,
          "internalType": "uint256",
          "name": "amountOut",
          "type": "uint256"
        }
      ],
      "name": "SwapExecuted",
      "type": "event"
    },
    {
      "inputs": [
        {
          "internalType": "address",
          "name": "tokenA",
          "type": "address"
        },
        {
          "internalType": "address",
          "name": "tokenB",
          "type": "address"
        },
        {
          "internalType": "uint256",
          "name": "amountADesired",
          "type": "uint256"
        },
        {
          "internalType": "uint256",
          "name": "amountBDesired",
          "type": "uint256"
        },
        {
          "internalType": "uint256",
          "name": "amountAMin",
          "type": "uint256"
        },
        {
          "internalType": "uint256",
          "name": "amountBMin",
          "type": "uint256"
        },
        {
          "internalType": "address",
          "name": "to",
          "type": "address"
        },
        {
          "internalType": "uint256",
          "name": "deadline",
          "type": "uint256"
        }
      ],
      "name": "addLiquidity",
      "outputs": [
        {
          "internalType": "uint256",
          "name": "amountA",
          "type": "uint256"
        },
        {
          "internalType": "uint256",
          "name": "amountB",
          "type": "uint256"
        },
        {
          "internalType": "uint256",
          "name": "liquidity",
          "type": "uint256"
        }
      ],
      "stateMutability": "nonpayable",
      "type": "function"
    },
    {
      "inputs": [
        {
          "internalType": "address",
          "name": "token",
          "type": "address"
        },
        {
          "internalType": "uint256",
          "name": "amountTokenDesired",
          "type": "uint256"
        },
        {
          "internalType": "uint256",
          "name": "amountTokenMin",
          "type": "uint256"
        },
        {
          "internalType": "uint256",
          "name": "amountBNBMin",
          "type": "uint256"
        },
        {
          "internalType": "address",
          "name": "to",
          "type": "address"
        },
        {
          "internalType": "uint256",
          "name": "deadline",
          "type": "uint256"
        }
      ],
      "name": "addLiquidityBNB",
      "outputs": [
        {
          "internalType": "uint256",
          "name": "amountToken",
          "type": "uint256"
        },
        {
          "internalType": "uint256",
          "name": "amountBNB",
          "type": "uint256"
        },
        {
          "internalType": "uint256",
          "name": "liquidity",
          "type": "uint256"
        }
      ],
      "stateMutability": "payable",
      "type": "function"
    },
    {
      "inputs": [],
      "name": "factory",
      "outputs": [
        {
          "internalType": "contract IBianDEXFactory",
          "name": "",
          "type": "address"
        }
      ],
      "stateMutability": "view",
      "type": "function"
    },
    {
      "inputs": [
        {
          "internalType": "uint256",
          "name": "amountIn",
          "type": "uint256"
        },
        {
          "internalType": "address[]",
          "name": "path",
          "type": "address[]"
        }
      ],
      "name": "getAmountsOut",
      "outputs": [
        {
          "internalType": "uint256[]",
          "name": "amounts",
          "type": "uint256[]"
        }
      ],
      "stateMutability": "view",
      "type": "function"
    },
    {
      "inputs": [
        {
          "internalType": "address",
          "name": "tokenIn",
          "type": "address"
        },
        {
          "internalType": "address",
          "name": "tokenOut",
          "type": "address"
        }
      ],
      "name": "getOptimalPath",
      "outputs": [
        {
          "internalType": "address[]",
          "name": "path",
          "type": "address[]"
        },
        {
          "internalType": "bool",
          "name": "exists",
          "type": "bool"
        }
      ],
      "stateMutability": "view",
      "type": "function"
    },
    {
      "inputs": [],
      "name": "owner",
      "outputs": [
        {
          "internalType": "address",
          "name": "",
          "type": "address"
        }
      ],
      "stateMutability": "view",
      "type": "function"
    },
    {
      "inputs": [
        {
          "internalType": "address",
          "name": "tokenA",
          "type": "address"
        },
        {
          "internalType": "address",
          "name": "tokenB",
          "type": "address"
        },
        {
          "internalType": "uint256",
          "name": "liquidity",
          "type": "uint256"
        },
        {
          "internalType": "uint256",
          "name": "amountAMin",
          "type": "uint256"
        },
        {
          "internalType": "uint256",
          "name": "amountBMin",
          "type": "uint256"
        },
        {
          "internalType": "address",
          "name": "to",
          "type": "address"
        },
        {
          "internalType": "uint256",
          "name": "deadline",
          "type": "uint256"
        }
      ],
      "name": "removeLiquidity",
      "outputs": [
        {
          "internalType": "uint256",
          "name": "amountA",
          "type": "uint256"
        },
        {
          "internalType": "uint256",
          "name": "amountB",
          "type": "uint256"
        }
      ],
      "stateMutability": "nonpayable",
      "type": "function"
    },
    {
      "inputs": [
        {
          "internalType": "address",
          "name": "token",
          "type": "address"
        },
        {
          "internalType": "uint256",
          "name": "liquidity",
          "type": "uint256"
        },
        {
          "internalType": "uint256",
          "name": "amountTokenMin",
          "type": "uint256"
        },
        {
          "internalType": "uint256",
          "name": "amountBNBMin",
          "type": "uint256"
        },
        {
          "internalType": "address",
          "name": "to",
          "type": "address"
        },
        {
          "internalType": "uint256",
          "name": "deadline",
          "type": "uint256"
        }
      ],
      "name": "removeLiquidityBNB",
      "outputs": [
        {
          "internalType": "uint256",
          "name": "amountToken",
          "type": "uint256"
        },
        {
          "internalType": "uint256",
          "name": "amountBNB",
          "type": "uint256"
        }
      ],
      "stateMutability": "nonpayable",
      "type": "function"
    },
    {
      "inputs": [],
      "name": "renounceOwnership",
      "outputs": [],
      "stateMutability": "nonpayable",
      "type": "function"
    },
    {
      "inputs": [
        {
          "internalType": "uint256",
          "name": "amountOutMin",
          "type": "uint256"
        },
        {
          "internalType": "address[]",
          "name": "path",
          "type": "address[]"
        },
        {
          "internalType": "address",
          "name": "to",
          "type": "address"
        },
        {
          "internalType": "uint256",
          "name": "deadline",
          "type": "uint256"
        }
      ],
      "name": "swapExactBNBForTokens",
      "outputs": [
        {
          "internalType": "uint256[]",
          "name": "amounts",
          "type": "uint256[]"
        }
      ],
      "stateMutability": "payable",
      "type": "function"
    },
    {
      "inputs": [
        {
          "internalType": "uint256",
          "name": "amountIn",
          "type": "uint256"
        },
        {
          "internalType": "uint256",
          "name": "amountOutMin",
          "type": "uint256"
        },
        {
          "internalType": "address[]",
          "name": "path",
          "type": "address[]"
        },
        {
          "internalType": "address",
          "name": "to",
          "type": "address"
        },
        {
          "internalType": "uint256",
          "name": "deadline",
          "type": "uint256"
        }
      ],
      "name": "swapExactTokensForBNB",
      "outputs": [
        {
          "internalType": "uint256[]",
          "name": "amounts",
          "type": "uint256[]"
        }
      ],
      "stateMutability": "nonpayable",
      "type": "function"
    },
    {
      "inputs": [
        {
          "internalType": "uint256",
          "name": "amountIn",
          "type": "uint256"
        },
        {
          "internalType": "uint256",
          "name": "amountOutMin",
          "type": "uint256"
        },
        {
          "internalType": "address[]",
          "name": "path",
          "type": "address[]"
        },
        {
          "internalType": "address",
          "name": "to",
          "type": "address"
        },
        {
          "internalType": "uint256",
          "name": "deadline",
          "type": "uint256"
        }
      ],
      "name": "swapExactTokensForTokens",
      "outputs": [
        {
          "internalType": "uint256[]",
          "name": "amounts",
          "type": "uint256[]"
        }
      ],
      "stateMutability": "nonpayable",
      "type": "function"
    },
    {
      "inputs": [
        {
          "internalType": "address",
          "name": "newOwner",
          "type": "address"
        }
      ],
      "name": "transferOwnership",
      "outputs": [],
      "stateMutability": "nonpayable",
      "type": "function"
    },
    {
      "inputs": [],
      "name": "wbnb",
      "outputs": [
        {
          "internalType": "contract WBNB",
          "name": "",
          "type": "address"
        }
      ],
      "stateMutability": "view",
      "type": "function"
    },
    {
      "stateMutability": "payable",
      "type": "receive"
    }
  ],
  "bytecode": "0x60c0346200018357601f620028e138819003918201601f19168301916001600160401b038311848410176200018757808492604094855283398101031262000183576200005a602062000052836200019b565b92016200019b565b9060015f5533156200016b5760018054336001600160a01b031982168117909255604051936001600160a01b03939092849283167f8be0079c531659141344cd1fd0a4f28419497f9722a3daafe3b4186f6b6457e05f80a3166080521660a0526127309081620001b182396080518181816102a501528181610a5601528181610ef801528181611001015281816112aa0152818161135c01528181611e9c015281816121c401526123b4015260a051818181601a015281816101de015281816102210152818161027a01528181610400015281816104f701528181610575015281816105c00152818161092a01528181610fca01528181611543015281816116e5015281816117ca0152611ef50152f35b604051631e4fbdf760e01b81525f6004820152602490fd5b5f80fd5b634e487b7160e01b5f52604160045260245ffd5b51906001600160a01b0382168203620001835756fe60806040526004361015610083575b3615610018575f80fd5b7f00000000000000000000000000000000000000000000000000000000000000006001600160a01b0316330361004a57005b60405162461bcd60e51b81526020600482015260116024820152702937baba32b91d1027b7363c902ba1272160791b6044820152606490fd5b5f803560e01c806338ed17391461199b5780635d616c5b14611771578063715018a6146117145780638d72647e146116cf5780638da5cb5b146116a65780639cf68911146114d3578063baa2abde146112d9578063c45a015514611294578063d06ca61f14611238578063d64fc859146111bc578063e058848814610f82578063e8e33700146109d9578063eaaed442146101b95763f2fde38b14610128575061000e565b346101b65760203660031901126101b657610141611aab565b610149612602565b6001600160a01b0390811690811561019d57600154826bffffffffffffffffffffffff60a01b821617600155167f8be0079c531659141344cd1fd0a4f28419497f9722a3daafe3b4186f6b6457e05f80a380f35b604051631e4fbdf760e01b815260048101849052602490fd5b80fd5b506101c336611c2d565b94939592906101d442871015611c6d565b6101dc612147565b7f00000000000000000000000000000000000000000000000000000000000000006001600160a01b03163b156109d557604051630d0e30db60e41b81528481600481347f00000000000000000000000000000000000000000000000000000000000000006001600160a01b03165af18015610995579085916109c1575b505060405163e6a4390560e01b81526001600160a01b0386811660048301527f0000000000000000000000000000000000000000000000000000000000000000811660248301529091907f000000000000000000000000000000000000000000000000000000000000000016602083604481845afa9283156109005786936109a0575b506001600160a01b0383161561090b575b5060408051630240bc6b60e21b815290816004816001600160a01b0387165afa90811561090057869087926108ce575b50604051630dfe168160e01b8152909190819083906020816004816001600160a01b038b165afa9081156108c3578a916108a4575b506001600160a01b038b8116911603610899575b5050811580610891575b156107a35750503497965b6103908830336001600160a01b038b1661234d565b60405163095ea7b360e01b8082526001600160a01b0385166004830152602482018a905290602081806044810103818b6001600160a01b038e165af1801561079857610779575b506040519081526001600160a01b0384166004820152346024820152602081806044810103818a7f00000000000000000000000000000000000000000000000000000000000000006001600160a01b03165af1801561073f5761074a575b50604051630dfe168160e01b81526020816004816001600160a01b0388165afa90811561073f57928a9288928b989796958491610710575b506001600160a01b03908116908b16036106935760209697916104a791604051998a9889978896637973141360e01b885260048801612116565b03926001600160a01b03165af1908115610688578291610652575b50915b843411610569575b60408051858152602081018790529081018490526105659392600192909133916001600160a01b037f00000000000000000000000000000000000000000000000000000000000000008116929116907f43c967b388d3a4ccad3f7ab80167852e322e5a3fde9893f530252281b2ae8b709080606081015b0390a455604051938493846040919493926060820195825260208201520152565b0390f35b6105738534611cee565b7f00000000000000000000000000000000000000000000000000000000000000006001600160a01b03163b1561064e57604051632e1a7d4d60e01b815260048101919091528281602481837f00000000000000000000000000000000000000000000000000000000000000006001600160a01b03165af180156106435790839161062b575b508080806106068934611cee565b818115610622575b3390f16104cd5750604051903d90823e3d90fd5b506108fc61060e565b61063490611b75565b61063f57815f6105f8565b5080fd5b6040513d85823e3d90fd5b8280fd5b90506020813d602011610680575b8161066d60209383611b9d565b8101031261067c57515f6104c2565b5f80fd5b3d9150610660565b6040513d84823e3d90fd5b604051637973141360e01b8152976020978997889687956106bc95909490939160048801612116565b03926001600160a01b03165af19081156106885782916106de575b50916104c5565b90506020813d602011610708575b816106f960209383611b9d565b8101031261067c57515f6106d7565b3d91506106ec565b610732915060203d602011610738575b61072a8183611b9d565b810190611de6565b5f61046d565b503d610720565b6040513d89823e3d90fd5b61076b9060203d602011610772575b6107638183611b9d565b8101906120fe565b505f610435565b503d610759565b6107919060203d602011610772576107638183611b9d565b505f6103d7565b6040513d8a823e3d90fd5b6107b6826107b1838d61266f565b612682565b913483116108135750508481106107ce57979661037b565b60405162461bcd60e51b815260206004820152601d60248201527f526f757465723a20494e53554646494349454e545f425f414d4f554e540000006044820152606490fd5b61082292506107b1903461266f565b97881161087d578288106108385734979661037b565b60405162461bcd60e51b815260206004820152601d60248201527f526f757465723a20494e53554646494349454e545f415f414d4f554e540000006044820152606490fd5b634e487b7160e01b85526001600452602485fd5b508015610370565b915091505f80610366565b6108bd915060203d6020116107385761072a8183611b9d565b5f610352565b6040513d8c823e3d90fd5b90506108f2915060403d6040116108f9575b6108ea8183611b9d565b810190611e4a565b905f61031d565b503d6108e0565b6040513d88823e3d90fd5b6040516364e329cb60e11b81526001600160a01b0388811660048301527f00000000000000000000000000000000000000000000000000000000000000001660248201529192506020908290604490829089905af1908115610995578591610976575b50905f6102ed565b61098f915060203d6020116107385761072a8183611b9d565b5f61096e565b6040513d87823e3d90fd5b6109ba91935060203d6020116107385761072a8183611b9d565b915f6102dc565b6109ca90611b75565b6109d557835f610259565b8380fd5b50346101b6576101003660031901126101b6576109f4611aab565b6109fc611ac1565b60c4356001600160a01b038116900361067c57610a1d4260e4351015611c6d565b610a25612147565b60405163e6a4390560e01b81526001600160a01b0380841660048301528216602482015291602083806044810103817f00000000000000000000000000000000000000000000000000000000000000006001600160a01b03165afa928315610f56578493610f61575b506001600160a01b03831615610ec4575b60408051630240bc6b60e21b815290816004816001600160a01b0388165afa9081156109955785908692610ea2575b50604051630dfe168160e01b8152909190819083906020816004816001600160a01b038c165afa908115610e97578991610e78575b506001600160a01b03868116911603610e6d575b5050811580610e65575b15610df457505060643593604435935b610b468530336001600160a01b03871661234d565b610b5b8630336001600160a01b03881661234d565b60405163095ea7b360e01b81526001600160a01b03821660048201526024810186905260208180604481010381866001600160a01b0389165af1801561064357610dd5575b5060405163095ea7b360e01b81526001600160a01b03821660048201526024810187905260208180604481010381866001600160a01b038a165af1801561064357610db6575b50604051630dfe168160e01b81526020816004816001600160a01b0386165afa908115610643578391610d97575b506001600160a01b0390811690841603610d065760206040518092637973141360e01b8252818581610c5a8c8c60c4359160e4359160a435916084359160048801612116565b03926001600160a01b03165af1908115610688578291610cd0575b509061056593600192935b60408051888152602081018a9052908101869052339260a086901b8690039081169216907f43c967b388d3a4ccad3f7ab80167852e322e5a3fde9893f530252281b2ae8b70908060608101610544565b9190506020823d602011610cfe575b81610cec60209383611b9d565b8101031261067c579051610565610c75565b3d9150610cdf565b60206040518092637973141360e01b8252818581610d3760c4358d8d60e435916084359160a4359160048801612116565b03926001600160a01b03165af1908115610688578291610d61575b50906105659360019293610c80565b9190506020823d602011610d8f575b81610d7d60209383611b9d565b8101031261067c579051610565610d52565b3d9150610d70565b610db0915060203d6020116107385761072a8183611b9d565b5f610c14565b610dce9060203d602011610772576107638183611b9d565b505f610be6565b610ded9060203d602011610772576107638183611b9d565b505f610ba0565b610e04826107b18360443561266f565b916064358311610e2357505060a43581106107ce579360443593610b31565b610e3492506107b19060643561266f565b936044358511610e51576084358510610838576064359493610b31565b634e487b7160e01b81526001600452602490fd5b508015610b21565b915091505f80610b17565b610e91915060203d6020116107385761072a8183611b9d565b5f610b03565b6040513d8b823e3d90fd5b9050610ebd915060403d6040116108f9576108ea8183611b9d565b905f610ace565b6040516364e329cb60e11b81526001600160a01b0380831660048301528316602482015290925060208180604481010381877f00000000000000000000000000000000000000000000000000000000000000006001600160a01b03165af1908115610f56578491610f37575b5091610a9f565b610f50915060203d6020116107385761072a8183611b9d565b5f610f30565b6040513d86823e3d90fd5b610f7b91935060203d6020116107385761072a8183611b9d565b915f610a8e565b50346101b65780610f9236611c2d565b9291939590610fa342851015611c6d565b610fab612147565b60405163e6a4390560e01b81526001600160a01b0387811660048301527f0000000000000000000000000000000000000000000000000000000000000000811660248301819052919691959094916020886044817f00000000000000000000000000000000000000000000000000000000000000008a165afa90811561099557856040948c9a829461119b575b506110538b8a86169561104c871515611e05565b338761234d565b8551634e9ed27f60e01b8152600481019d909d5260248d015260448c019190915260648b01929092523060848b0152899160a4918391905af19586156106885782978397611174575b508316926110ab88838661262e565b843b1561064e57604051632e1a7d4d60e01b815260048101889052908382602481838a5af1908115610f56578492899261115b575b50908293839283918315611151575b1690f1156109955791604095916001937fd765e08eef31c0983ecca03ecd166297ac485ecd5dd69e291c848f0a020333c188518061114133968a8c846040919493926060820195825260208201520152565b0390a45582519182526020820152f35b6108fc92506110ef565b61116791939250611b75565b61064e578683915f6110e0565b84985061119191975060403d6040116108f9576108ea8183611b9d565b979097969061109c565b6111b591945060203d6020116107385761072a8183611b9d565b925f611038565b50346101b65760403660031901126101b6576111e76111d9611aab565b6111e1611ac1565b90611e60565b9190604051916040830160408452825180915260608401926020809101925b82811061121b57861515602087015285850386f35b83516001600160a01b031685529381019392810192600101611206565b50346101b65760403660031901126101b6576024359067ffffffffffffffff82116101b657366023830112156101b65761056561128861128036600486013560248701611bd7565b600435612168565b60405191829182611b3a565b50346101b657806003193601126101b6576040517f00000000000000000000000000000000000000000000000000000000000000006001600160a01b03168152602090f35b50346101b65760e03660031901126101b6576112f3611aab565b6112fb611ac1565b60a43592604435926001600160a01b0392909190838616860361067c5760c43561132742821015611c6d565b61132f612147565b60405163e6a4390560e01b81526001600160a01b03858116600483015283166024820152906020826044817f00000000000000000000000000000000000000000000000000000000000000008a165afa918215610f5657916114009697989160409386926114b2575b506113b38a8a8416936113ac851515611e05565b338561234d565b8351634e9ed27f60e01b8152600481018b9052606480356024830152608480356044840152908201929092526001600160a01b0390931690830152909586919082908690829060a4820190565b03925af19283156106885760409683958495611466575b507fd765e08eef31c0983ecca03ecd166297ac485ecd5dd69e291c848f0a020333c161114160019697988a51918183923398169616948a8c846040919493926060820195825260208201520152565b611141979650600195506114a77fd765e08eef31c0983ecca03ecd166297ac485ecd5dd69e291c848f0a020333c1918a3d8c116108f9576108ea8183611b9d565b979850969550611417565b6114cc91925060203d6020116107385761072a8183611b9d565b905f611398565b5060803660031901126101b65760243567ffffffffffffffff811161063f57611500903690600401611a7a565b6001600160a01b0391604435838116810361067c576064359361152542861015611c6d565b61152d612147565b831561169257859061156d61154185611d78565b7f0000000000000000000000000000000000000000000000000000000000000000831692168214611cab565b803b1561063f578160049160405192838092630d0e30db60e41b825234905af180156106885761167a575b50506115ae6115a8368585611bd7565b34612168565b938451915f199283810190811161166657906115dd6115ee93926115d5600435918a611d18565b511015611d2c565b6115e8368787611bd7565b876123a8565b835190810190811161165257917ff92b09d2fd27caac9cce5304737168eb96ecc53b30790ccef297934bd1acd887610565959261162d60019587611d18565b51906116426040519283923396349185611d8c565b0390a25560405191829182611b3a565b634e487b7160e01b85526011600452602485fd5b634e487b7160e01b88526011600452602488fd5b61168390611b75565b61168e57845f611598565b8480fd5b634e487b7160e01b86526032600452602486fd5b50346101b657806003193601126101b6576001546040516001600160a01b039091168152602090f35b50346101b657806003193601126101b6576040517f00000000000000000000000000000000000000000000000000000000000000006001600160a01b03168152602090f35b50346101b657806003193601126101b65761172d612602565b600180546001600160a01b031981169091555f906001600160a01b03167f8be0079c531659141344cd1fd0a4f28419497f9722a3daafe3b4186f6b6457e08280a380f35b503461067c5761178036611aeb565b6117909593949542821015611c6d565b611798612147565b5f1991838301918483116119735784831015611987576117bf6117f69360051b8801611d78565b6001600160a01b03937f00000000000000000000000000000000000000000000000000000000000000008516929185168314611cab565b61180a61180436888b611bd7565b88612168565b98895190868201918211611973576115d5611825928c611d18565b85156119875761185990611847888661183d8c611d78565b163090339061234d565b3061185336898c611bd7565b8b6123a8565b87518481019081116119735761186f9089611d18565b51813b1561067c575f91602483926040519485938492632e1a7d4d60e01b845260048401525af1801561196857611955575b5086518381019081116119415788809381936118be83948c611d18565b519183918315611937575b1690f115610995578451908101908111611923576105659592600194926116426119147ff92b09d2fd27caac9cce5304737168eb96ecc53b30790ccef297934bd1acd8879489611d18565b51604051938493339785611d8c565b634e487b7160e01b86526011600452602486fd5b6108fc92506118c9565b634e487b7160e01b89526011600452602489fd5b611960919850611b75565b5f965f6118a1565b6040513d5f823e3d90fd5b634e487b7160e01b5f52601160045260245ffd5b634e487b7160e01b5f52603260045260245ffd5b3461067c576119a936611aeb565b939194906119b942861015611c6d565b6119c1612147565b6119ce6002871015611cab565b6119e26119dc368887611bd7565b83612168565b9485515f1994858201918211611973576115d56119ff9289611d18565b861561198757611a2991611a1e846001600160a01b0361183d89611d78565b6115e8368988611bd7565b83519182019182116119735761056594611a676119147ff92b09d2fd27caac9cce5304737168eb96ecc53b30790ccef297934bd1acd8879487611d18565b0390a260015f5560405191829182611b3a565b9181601f8401121561067c5782359167ffffffffffffffff831161067c576020808501948460051b01011161067c57565b600435906001600160a01b038216820361067c57565b602435906001600160a01b038216820361067c57565b35906001600160a01b038216820361067c57565b60a060031982011261067c5760043591602435916044359067ffffffffffffffff821161067c57611b1e91600401611a7a565b90916064356001600160a01b038116810361067c579060843590565b60209060206040818301928281528551809452019301915f5b828110611b61575050505090565b835185529381019392810192600101611b53565b67ffffffffffffffff8111611b8957604052565b634e487b7160e01b5f52604160045260245ffd5b90601f8019910116810190811067ffffffffffffffff821117611b8957604052565b67ffffffffffffffff8111611b895760051b60200190565b9291611be282611bbf565b91611bf06040519384611b9d565b829481845260208094019160051b810192831161067c57905b828210611c165750505050565b838091611c2284611ad7565b815201910190611c09565b60c090600319011261067c576001600160a01b03600435818116810361067c5791602435916044359160643591608435908116810361067c579060a43590565b15611c7457565b60405162461bcd60e51b815260206004820152600f60248201526e149bdd5d195c8e8811561412549151608a1b6044820152606490fd5b15611cb257565b60405162461bcd60e51b81526020600482015260146024820152730a4deeae8cae47440929cac82989288bea082a8960631b6044820152606490fd5b9190820391821161197357565b8051156119875760200190565b8051600110156119875760400190565b80518210156119875760209160051b010190565b15611d3357565b60405162461bcd60e51b815260206004820152601b60248201527f526f757465723a20494e53554646494349454e545f4f555450555400000000006044820152606490fd5b356001600160a01b038116810361067c5790565b9194939294806060840160608552526080830191905f5b818110611dbb57505050906040919460208201520152565b91929091906001906001600160a01b03611dd486611ad7565b16815260209081019401929101611da3565b9081602091031261067c57516001600160a01b038116810361067c5790565b15611e0c57565b60405162461bcd60e51b8152602060048201526016602482015275149bdd5d195c8e881410525497d393d517d193d5539160521b6044820152606490fd5b919082604091031261067c576020825192015190565b6040805163e6a4390560e01b8082526001600160a01b0384811660048085019190915286821660248501526060969495919493909291906020907f00000000000000000000000000000000000000000000000000000000000000008716908281604481855afa90811561204f579088915f916120e1575b50166120825787518481526001600160a01b038085168783019081527f00000000000000000000000000000000000000000000000000000000000000008a1691821660208201529095908490839081906040010381865afa918215612078579084915f93612059575b508a519081526001600160a01b03808816898301908152908a166020820152909384918290819060400103915afa91821561204f579088915f9361202e575b50811615159182612022575b5050611f9d5750505050505050905f90565b9091929394958097505196608088019088821067ffffffffffffffff83111761200f575260038752606090369088013784611fd787611cfb565b91169052611fe485611d08565b52835160021015611ffc575016606082015290600190565b603290634e487b7160e01b5f525260245ffd5b604186634e487b7160e01b5f525260245ffd5b1615159050865f611f8b565b8291935061204890853d87116107385761072a8183611b9d565b9290611f7f565b89513d5f823e3d90fd5b612071919350823d84116107385761072a8183611b9d565b915f611f40565b8a513d5f823e3d90fd5b50915092949182519687019087821067ffffffffffffffff8311176120ce57508252600286523690860137816120b785611cfb565b911690526120c483611d08565b9116905290600190565b604190634e487b7160e01b5f525260245ffd5b6120f89150843d86116107385761072a8183611b9d565b5f611ed7565b9081602091031261067c5751801515810361067c5790565b94919260a0949197969360c087019887526020870152604086015260608501526080840152600180831b0316910152565b60025f54146121565760025f55565b604051633ee5aeb560e01b8152600490fd5b919091612179600284511015611cab565b82519061218582611bbf565b906121a16040936121996040519485611b9d565b808452611bbf565b60209190601f1901368484013782906121b984611cfb565b526001600160a01b037f000000000000000000000000000000000000000000000000000000000000000081169690915f5b82515f1981019081116119735781101561234357836122098285611d18565b511660018201908183116119735761225e87876122268589611d18565b51168d8c51808095819463e6a4390560e01b835260049889840190602090939293604083019460018060a01b03809216845216910152565b03915afa90811561207857918789926122ce9695945f91612326575b5016612287811515611e05565b88612292868a611d18565b511661229e868d611d18565b518d5163ca706bcf60e01b81526001600160a01b0390921693820193845260208401529586928391829160400190565b03915afa92831561204f575f936122f5575b50916122ee60019389611d18565b52016121ea565b92508683813d831161231f575b61230c8183611b9d565b8101031261067c579151916122ee6122e0565b503d612302565b61233d9150843d86116107385761072a8183611b9d565b5f61227a565b5096505050505050565b6040516323b872dd60e01b60208201526001600160a01b03928316602482015292909116604483015260648083019390935291815260a081019181831067ffffffffffffffff841117611b89576123a6926040526126a0565b565b6001600160a01b0394937f000000000000000000000000000000000000000000000000000000000000000086169390915f5b84515f198101908111611973578110156125f857876123f98287611d18565b511690600181019182821161197357896124138489611d18565b5116906124208486611d18565b516040805163e6a4390560e01b81526001600160a01b038085166004830152851660248201529192602092919083838e81806044810103915afa9283156125ee578f85915f956125c9575b50906124b79185169461247f861515611e05565b6124898a8d611d18565b51855163095ea7b360e01b81526001600160a01b039092166004830152602482015291829081906044820190565b03815f865af180156125bf576125a2575b508b51600119810190811161197357608485925f8c968f948f908d90811084146125955761250491506124fd309f5b8b611d18565b5199611d18565b51948751988996879563193d924960e31b875260048701526024860152604485015260648401525af190811561258c5750612563575b5050600193308c821603612552575b505050016123da565b61255b9261262e565b5f8080612549565b813d8311612585575b6125768183611b9d565b8101031261067c575f8061253a565b503d61256c565b513d5f823e3d90fd5b6124fd612504929f6124f7565b6125b890853d8711610772576107638183611b9d565b505f6124c8565b83513d5f823e3d90fd5b829195506125e6906124b7933d84116107385761072a8183611b9d565b94909161246b565b82513d5f823e3d90fd5b5050505050509050565b6001546001600160a01b0316330361261657565b60405163118cdaa760e01b8152336004820152602490fd5b60405163a9059cbb60e01b60208201526001600160a01b039290921660248301526044808301939093529181526123a69161266a606483611b9d565b6126a0565b8181029291811591840414171561197357565b811561268c570490565b634e487b7160e01b5f52601260045260245ffd5b905f602091828151910182855af115611968575f513d6126f157506001600160a01b0381163b155b6126cf5750565b604051635274afe760e01b81526001600160a01b039091166004820152602490fd5b600114156126c856fea264697066735822122042a625f71138629e21f60f713d84416066d56801dfe21d97f623a92844f4dc1e64736f6c63430008180033",
  "linkReferences": {},
  "deployedLinkReferences": {}
}