{
  "_format": "hh-sol-artifact-1",
  "contractName": "DEXAggregator",
  "sourceName": "contracts/advanced/DEXAggregator.sol",
  "abi": [
    {
      "inputs": [
        {
          "internalType": "address",
          "name": "_feeCollector",
          "type": "address"
        }
      ],
      "stateMutability": "nonpayable",
      "type": "constructor"
    },
    {
      "inputs": [
        {
          "internalType": "address",
          "name": "owner",
          "type": "address"
        }
      ],
      "name": "OwnableInvalidOwner",
      "type": "error"
    },
    {
      "inputs": [
        {
          "internalType": "address",
          "name": "account",
          "type": "address"
        }
      ],
      "name": "OwnableUnauthorizedAccount",
      "type": "error"
    },
    {
      "inputs": [],
      "name": "ReentrancyGuardReentrantCall",
      "type": "error"
    },
    {
      "inputs": [
        {
          "internalType": "address",
          "name": "token",
          "type": "address"
        }
      ],
      "name": "SafeERC20FailedOperation",
      "type": "error"
    },
    {
      "anonymous": false,
      "inputs": [
        {
          "indexed": true,
          "internalType": "uint256",
          "name": "dexId",
          "type": "uint256"
        },
        {
          "indexed": false,
          "internalType": "address",
          "name": "router",
          "type": "address"
        },
        {
          "indexed": false,
          "internalType": "string",
          "name": "name",
          "type": "string"
        }
      ],
      "name": "DEXAdded",
      "type": "event"
    },
    {
      "anonymous": false,
      "inputs": [
        {
          "indexed": true,
          "internalType": "uint256",
          "name": "dexId",
          "type": "uint256"
        },
        {
          "indexed": false,
          "internalType": "bool",
          "name": "isActive",
          "type": "bool"
        }
      ],
      "name": "DEXUpdated",
      "type": "event"
    },
    {
      "anonymous": false,
      "inputs": [
        {
          "indexed": true,
          "internalType": "address",
          "name": "previousOwner",
          "type": "address"
        },
        {
          "indexed": true,
          "internalType": "address",
          "name": "newOwner",
          "type": "address"
        }
      ],
      "name": "OwnershipTransferred",
      "type": "event"
    },
    {
      "anonymous": false,
      "inputs": [
        {
          "indexed": true,
          "internalType": "address",
          "name": "user",
          "type": "address"
        },
        {
          "indexed": false,
          "internalType": "uint256",
          "name": "dexId",
          "type": "uint256"
        },
        {
          "indexed": false,
          "internalType": "address",
          "name": "tokenIn",
          "type": "address"
        },
        {
          "indexed": false,
          "internalType": "address",
          "name": "tokenOut",
          "type": "address"
        },
        {
          "indexed": false,
          "internalType": "uint256",
          "name": "amountIn",
          "type": "uint256"
        },
        {
          "indexed": false,
          "internalType": "uint256",
          "name": "amountOut",
          "type": "uint256"
        }
      ],
      "name": "SwapExecuted",
      "type": "event"
    },
    {
      "inputs": [
        {
          "internalType": "address",
          "name": "router",
          "type": "address"
        },
        {
          "internalType": "string",
          "name": "name",
          "type": "string"
        }
      ],
      "name": "addDEX",
      "outputs": [],
      "stateMutability": "nonpayable",
      "type": "function"
    },
    {
      "inputs": [],
      "name": "dexCount",
      "outputs": [
        {
          "internalType": "uint256",
          "name": "",
          "type": "uint256"
        }
      ],
      "stateMutability": "view",
      "type": "function"
    },
    {
      "inputs": [
        {
          "internalType": "uint256",
          "name": "",
          "type": "uint256"
        }
      ],
      "name": "dexes",
      "outputs": [
        {
          "internalType": "address",
          "name": "router",
          "type": "address"
        },
        {
          "internalType": "bool",
          "name": "isActive",
          "type": "bool"
        },
        {
          "internalType": "string",
          "name": "name",
          "type": "string"
        }
      ],
      "stateMutability": "view",
      "type": "function"
    },
    {
      "inputs": [
        {
          "internalType": "address",
          "name": "token",
          "type": "address"
        },
        {
          "internalType": "uint256",
          "name": "amount",
          "type": "uint256"
        }
      ],
      "name": "emergencyWithdraw",
      "outputs": [],
      "stateMutability": "nonpayable",
      "type": "function"
    },
    {
      "inputs": [],
      "name": "feeCollector",
      "outputs": [
        {
          "internalType": "address",
          "name": "",
          "type": "address"
        }
      ],
      "stateMutability": "view",
      "type": "function"
    },
    {
      "inputs": [],
      "name": "feePercentage",
      "outputs": [
        {
          "internalType": "uint256",
          "name": "",
          "type": "uint256"
        }
      ],
      "stateMutability": "view",
      "type": "function"
    },
    {
      "inputs": [
        {
          "internalType": "address",
          "name": "tokenIn",
          "type": "address"
        },
        {
          "internalType": "address",
          "name": "tokenOut",
          "type": "address"
        },
        {
          "internalType": "uint256",
          "name": "amountIn",
          "type": "uint256"
        }
      ],
      "name": "getAllQuotes",
      "outputs": [
        {
          "components": [
            {
              "internalType": "uint256",
              "name": "dexId",
              "type": "uint256"
            },
            {
              "internalType": "uint256",
              "name": "amountOut",
              "type": "uint256"
            },
            {
              "internalType": "address[]",
              "name": "path",
              "type": "address[]"
            }
          ],
          "internalType": "struct DEXAggregator.Quote[]",
          "name": "quotes",
          "type": "tuple[]"
        }
      ],
      "stateMutability": "view",
      "type": "function"
    },
    {
      "inputs": [
        {
          "internalType": "address",
          "name": "tokenIn",
          "type": "address"
        },
        {
          "internalType": "address",
          "name": "tokenOut",
          "type": "address"
        },
        {
          "internalType": "uint256",
          "name": "amountIn",
          "type": "uint256"
        }
      ],
      "name": "getBestQuote",
      "outputs": [
        {
          "components": [
            {
              "internalType": "uint256",
              "name": "dexId",
              "type": "uint256"
            },
            {
              "internalType": "uint256",
              "name": "amountOut",
              "type": "uint256"
            },
            {
              "internalType": "address[]",
              "name": "path",
              "type": "address[]"
            }
          ],
          "internalType": "struct DEXAggregator.Quote",
          "name": "bestQuote",
          "type": "tuple"
        }
      ],
      "stateMutability": "view",
      "type": "function"
    },
    {
      "inputs": [
        {
          "internalType": "address",
          "name": "tokenIn",
          "type": "address"
        },
        {
          "internalType": "address",
          "name": "tokenOut",
          "type": "address"
        },
        {
          "internalType": "uint256",
          "name": "amountIn",
          "type": "uint256"
        },
        {
          "internalType": "address[]",
          "name": "customPath",
          "type": "address[]"
        }
      ],
      "name": "getBestQuoteWithPath",
      "outputs": [
        {
          "components": [
            {
              "internalType": "uint256",
              "name": "dexId",
              "type": "uint256"
            },
            {
              "internalType": "uint256",
              "name": "amountOut",
              "type": "uint256"
            },
            {
              "internalType": "address[]",
              "name": "path",
              "type": "address[]"
            }
          ],
          "internalType": "struct DEXAggregator.Quote",
          "name": "bestQuote",
          "type": "tuple"
        }
      ],
      "stateMutability": "view",
      "type": "function"
    },
    {
      "inputs": [],
      "name": "owner",
      "outputs": [
        {
          "internalType": "address",
          "name": "",
          "type": "address"
        }
      ],
      "stateMutability": "view",
      "type": "function"
    },
    {
      "inputs": [],
      "name": "renounceOwnership",
      "outputs": [],
      "stateMutability": "nonpayable",
      "type": "function"
    },
    {
      "inputs": [
        {
          "internalType": "uint256",
          "name": "dexId",
          "type": "uint256"
        },
        {
          "internalType": "bool",
          "name": "isActive",
          "type": "bool"
        }
      ],
      "name": "setDEXStatus",
      "outputs": [],
      "stateMutability": "nonpayable",
      "type": "function"
    },
    {
      "inputs": [
        {
          "internalType": "address",
          "name": "newCollector",
          "type": "address"
        }
      ],
      "name": "setFeeCollector",
      "outputs": [],
      "stateMutability": "nonpayable",
      "type": "function"
    },
    {
      "inputs": [
        {
          "internalType": "uint256",
          "name": "newFee",
          "type": "uint256"
        }
      ],
      "name": "setFeePercentage",
      "outputs": [],
      "stateMutability": "nonpayable",
      "type": "function"
    },
    {
      "inputs": [
        {
          "internalType": "uint256",
          "name": "dexId",
          "type": "uint256"
        },
        {
          "internalType": "address",
          "name": "tokenIn",
          "type": "address"
        },
        {
          "internalType": "address",
          "name": "tokenOut",
          "type": "address"
        },
        {
          "internalType": "uint256",
          "name": "amountIn",
          "type": "uint256"
        },
        {
          "internalType": "uint256",
          "name": "minAmountOut",
          "type": "uint256"
        },
        {
          "internalType": "uint256",
          "name": "deadline",
          "type": "uint256"
        }
      ],
      "name": "swapOnSpecificDEX",
      "outputs": [
        {
          "internalType": "uint256",
          "name": "amountOut",
          "type": "uint256"
        }
      ],
      "stateMutability": "nonpayable",
      "type": "function"
    },
    {
      "inputs": [
        {
          "internalType": "address",
          "name": "tokenIn",
          "type": "address"
        },
        {
          "internalType": "address",
          "name": "tokenOut",
          "type": "address"
        },
        {
          "internalType": "uint256",
          "name": "amountIn",
          "type": "uint256"
        },
        {
          "internalType": "uint256",
          "name": "minAmountOut",
          "type": "uint256"
        },
        {
          "internalType": "uint256",
          "name": "deadline",
          "type": "uint256"
        }
      ],
      "name": "swapWithBestRate",
      "outputs": [
        {
          "internalType": "uint256",
          "name": "amountOut",
          "type": "uint256"
        }
      ],
      "stateMutability": "nonpayable",
      "type": "function"
    },
    {
      "inputs": [
        {
          "internalType": "address",
          "name": "tokenIn",
          "type": "address"
        },
        {
          "internalType": "address",
          "name": "tokenOut",
          "type": "address"
        },
        {
          "internalType": "uint256",
          "name": "amountIn",
          "type": "uint256"
        },
        {
          "internalType": "uint256",
          "name": "minAmountOut",
          "type": "uint256"
        },
        {
          "internalType": "uint256",
          "name": "deadline",
          "type": "uint256"
        },
        {
          "internalType": "address[]",
          "name": "customPath",
          "type": "address[]"
        }
      ],
      "name": "swapWithBestRateAndPath",
      "outputs": [
        {
          "internalType": "uint256",
          "name": "amountOut",
          "type": "uint256"
        }
      ],
      "stateMutability": "nonpayable",
      "type": "function"
    },
    {
      "inputs": [
        {
          "internalType": "address",
          "name": "newOwner",
          "type": "address"
        }
      ],
      "name": "transferOwnership",
      "outputs": [],
      "stateMutability": "nonpayable",
      "type": "function"
    }
  ],
  "bytecode": "0x6080346100cb57601f611d2538819003918201601f19168301916001600160401b038311848410176100cf578084926020946040528339810103126100cb57516001600160a01b0390818116908190036100cb5733156100b3575f5460018060a01b03199033828216175f55604051933391167f8be0079c531659141344cd1fd0a4f28419497f9722a3daafe3b4186f6b6457e05f80a360018055600a6004556005541617600555611c4190816100e48239f35b604051631e4fbdf760e01b81525f6004820152602490fd5b5f80fd5b634e487b7160e01b5f52604160045260245ffdfe604060808152600480361015610013575f80fd5b5f3560e01c806309f1578c14610fa55780631045ef5314610f4e578063228c04b814610f1b5780632e4e843814610cec5780634d541a5e14610c4f5780636338a7c014610b1b5780636a65f8af14610897578063715018a6146108405780638da5cb5b1461081957806395ccea67146107e0578063a001ecdd146107c3578063a42dce8014610748578063ab3046951461072a578063ae06c1b7146106cf578063c415b95c146106a7578063cc44969314610452578063dcbe43d9146101705763f2fde38b146100e1575f80fd5b3461016c57602036600319011261016c576100fa61119a565b90610103611b7b565b6001600160a01b039182169283156101565750505f54826bffffffffffffffffffffffff60a01b8216175f55167f8be0079c531659141344cd1fd0a4f28419497f9722a3daafe3b4186f6b6457e05f80a3005b905f6024925191631e4fbdf760e01b8352820152fd5b5f80fd5b50903461016c578060031936011261016c5761018a61119a565b67ffffffffffffffff929060243584811161016c573660238201121561016c57808301359085821161016c576024810190602483369201011161016c576101cf611b7b565b6001600160a01b0392831692831561041e57908592916003546101f190611587565b80600355845190610201826112d0565b8682526020978893848401936001948592838252601f199586601f8c01169b898d9a82519b01610231908c611300565b8c8b528c8c828d01378c8b01015f905284019889525f5260028d528d5f209251166bffffffffffffffffffffffff60a01b83541617825551151561028d90829081549060ff60a01b90151560a01b169060ff60a01b1916179055565b0193519081519b8c1161040b57508a6102a68554611298565b601f81116103c3575b50508891601f8c11600114610338575093606097969592938b807f26990cd2b13dcf3ef97299f3913751ca0b41d1ae4ca019c7273d5587969bb5cd9c9d8b9787965f9a8b9461032d575b50501b9188199060031b1c19161790555b816003549b8080519b8c9a8b528a015288015283870137840101528101030190a2005b015192505f806102f9565b8b92919b169a845f52895f209b5f5b8181106103ae575093837f26990cd2b13dcf3ef97299f3913751ca0b41d1ae4ca019c7273d5587969bb5cd9c9d5f989460609c9b9a979488978e9a9610610396575b505050811b01905561030a565b0151891960f88460031b161c191690555f8080610389565b838301518e559c85019c928b01928b01610347565b855f528a5f20908b601f840160051c83019310610401575b601f0160051c019084905b8281106103f657508c91506102af565b5f81550184906103e6565b90915081906103db565b604190634e487b7160e01b5f525260245ffd5b855162461bcd60e51b8152602081870152600e60248201526d24b73b30b634b2103937baba32b960911b6044820152606490fd5b503461016c5760a036600319011261016c5761046c61119a565b916104756111b0565b604435906064359460843594610489611abc565b61049542871015611322565b6104a08484846118ed565b956020976104b3818a8a01511015611361565b6127106104c18454886113ad565b04906104cd82886113d4565b916001600160a01b0390610538908c908590898516906104ef8d303385611adf565b80610692575b508d515f908152600284528d8120548e5163095ea7b360e01b81529087166001600160a01b03168b82019081526020810194909452948593849291839160400190565b03925af1801561068857905f9493929161065b575b508a51845260028c52898420541690838a8c0151916105828c51978896879586946338ed173960e01b865233928d8701611a83565b03925af1908115610651575f9161062f575b5080515f1981019290831161061c57506105d47f68edebf1045a55566772f499c77f50fcae79ebdd0534e73dead3a12ad2076fd794939261060f926114ff565b51965186519081526001600160a01b0392831660208201529290911660408301526060820193909352608081018590523392819060a0820190565b0390a26001805551908152f35b601190634e487b7160e01b5f525260245ffd5b61064b91503d805f833e6106438183611300565b810190611411565b5f610594565b86513d5f823e3d90fd5b61067a908d803d10610681575b6106728183611300565b8101906113e1565b505f61054d565b503d610668565b8a513d5f823e3d90fd5b6106a190866005541683611b3a565b5f6104f5565b823461016c575f36600319011261016c5760055490516001600160a01b039091168152602090f35b503461016c57602036600319011261016c578035916106ec611b7b565b606483116106f8575055005b906020606492519162461bcd60e51b8352820152600c60248201526b08ccaca40e8dede40d0d2ced60a31b6044820152fd5b823461016c575f36600319011261016c576020906003549051908152f35b503461016c57602036600319011261016c5761076261119a565b61076a611b7b565b6001600160a01b031691821561078e57600580546001600160a01b03191684179055005b906020606492519162461bcd60e51b8352820152600f60248201526e496e76616c6964206164647265737360881b6044820152fd5b50903461016c575f36600319011261016c57602091549051908152f35b823461016c5736600319011261016c576108176107fb61119a565b610803611b7b565b6024359033906001600160a01b0316611b3a565b005b823461016c575f36600319011261016c575f5490516001600160a01b039091168152602090f35b3461016c575f36600319011261016c57610858611b7b565b5f80546001600160a01b0319811682556001600160a01b03167f8be0079c531659141344cd1fd0a4f28419497f9722a3daafe3b4186f6b6457e08280a3005b503461016c5760c036600319011261016c578035916108b46111b0565b6001600160a01b0393604435858116949192909185830361016c576064359560a435906108df611abc565b85151580610b0f575b6108f190611a46565b855f5260209860028a5260ff885f205460a01c1615610adb576109739061091a42851015611322565b6109ba8b8b8b519561092b876112d0565b600287528c368489013761093e876114ce565b90858b1680925261094e886114ef565b5261271061095d8a54846113ad565b0461096881846113d4565b968793303385611adf565b80610ac6575b505f8c8152600284528d8120548e5163095ea7b360e01b81529087166001600160a01b03168b82019081526020810194909452948593849291839160400190565b03925af18015610688575f949260028e610a039896948894610aa9575b508c8452528b82205416928b51968795869485936338ed173960e01b85523391608435908d8701611a83565b03925af1908115610651575f91610a8f575b5080515f1981019290831161061c5750610a557f68edebf1045a55566772f499c77f50fcae79ebdd0534e73dead3a12ad2076fd794939261060f926114ff565b5186519586526001600160a01b039283166020870152919092166040850152606084019590955260808301859052339290819060a0820190565b610aa391503d805f833e6106438183611300565b5f610a15565b610abf90823d8411610681576106728183611300565b505f6109d7565b610ad590866005541683611b3a565b5f610979565b875162461bcd60e51b81528085018b9052600e60248201526d444558206e6f742061637469766560901b6044820152606490fd5b506003548611156108e8565b503461016c576020908160031936011261016c57355f5260028152815f2090815492600180930181519384915f91815491610b5583611298565b92838652876001821691825f14610c29575050600114610bea575b50505091610b8660609260ff9795940386611300565b805195869460018060a01b038116865260a01c161515838501528301528251908160608401525f935b828510610bd1575050608092505f838284010152601f80199101168101030190f35b8481018201518686016080015293810193859350610baf565b8693505f92919252825f20915f925b828410610c115750505082010181610b866060610b70565b8054848a018601528895508794909301928101610bf9565b60ff19168782015293151560051b86019093019350849250610b86915060609050610b70565b503461016c578160031936011261016c57359060243580151580820361016c577f8aec059dffcbe4e23758754ff21af91bd5fa84f758e08398cf230769d2f2986892610cd9602093610c9f611b7b565b86151580610ce0575b610cb190611a46565b5f87815260028652839020805460ff60a01b191691151560a01b60ff60a01b16919091179055565b51908152a2005b50600354871115610ca8565b503461016c57610cfb36611263565b9092918451610d09816112d0565b60029160028252602095873688850137610d22836114ce565b6001600160a01b03928316905281610d39846114ef565b911690525f94600194600354955b86811115610ee35750610d71610d5c886113f9565b97610d698b51998a611300565b8089526113f9565b601f1901885f5b828110610ecd575050505f946001955b87871115610dec578a8a8a825191808301818452825180915281858501958260051b8601019301915f955b828710610dc05785850386f35b909192938280610ddc600193603f198a8203018652885161120b565b9601920196019592919092610db3565b865f52818a528a5f2054908a8c60ff8460a01c1615610ec0579088825f610e8596959451809663d06ca61f60e01b82528a8c830152836024830152818d81610e3760448201896118b1565b0392165afa5f9581610ea4575b50610e8b57610e7f94505f815193610e5b856112d0565b8d8552840152820152610e6e828d6114ff565b52610e79818c6114ff565b50611587565b96611587565b95610d88565b610e97610e7f956114ef565b51815193610e5b856112d0565b610eb99196503d805f833e6106438183611300565b945f610e44565b505096610e859150611587565b610ed5611513565b82828c010152018990610d78565b805f5285895260ff8a5f205460a01c16610f06575b610f0190611587565b610d47565b96610f13610f0191611587565b979050610ef8565b823461016c57610f4a90610f37610f3136611263565b916118ed565b905191829160208352602083019061120b565b0390f35b50903461016c57608036600319011261016c57610f6961119a565b91610f726111b0565b926064359367ffffffffffffffff851161016c57610f99610f3793610f4a963691016111da565b929091604435916115d8565b503461016c5760c036600319011261016c57610fbf61119a565b91610fc86111b0565b60443590606435946084359460a43567ffffffffffffffff811161016c57610ff390369083016111da565b610ffb611abc565b61100742891015611322565b61101481838888886115d8565b97602099611027818c8c01511015611361565b89866110aa8d8c8c61271061103d8c54836113ad565b049161104983836113d4565b966001600160a01b039688949088169361106590303387611adf565b80611185575b50515f52600284525f8c87838320541692519687958694859363095ea7b360e01b8552840160209093929193604081019460018060a01b031681520152565b03925af1801561117b579160028f8f5f99989796948a9661115e575b50518552528c83205416936111018d51988997889687956338ed173960e01b87528d870152602486015260a0604486015260a485019161148b565b90336064840152608483015203925af1908115610651575f9161062f575080515f1981019290831161061c57506105d47f68edebf1045a55566772f499c77f50fcae79ebdd0534e73dead3a12ad2076fd794939261060f926114ff565b61117490833d8511610681576106728183611300565b505f6110c6565b8c513d5f823e3d90fd5b61119490886005541685611b3a565b5f61106b565b600435906001600160a01b038216820361016c57565b602435906001600160a01b038216820361016c57565b35906001600160a01b038216820361016c57565b9181601f8401121561016c5782359167ffffffffffffffff831161016c576020808501948460051b01011161016c57565b606082018151835260206080604082948381015184880152015194606060408201528551809452019301915f5b828110611246575050505090565b83516001600160a01b031685529381019392810192600101611238565b606090600319011261016c576001600160a01b0390600435828116810361016c5791602435908116810361016c579060443590565b90600182811c921680156112c6575b60208310146112b257565b634e487b7160e01b5f52602260045260245ffd5b91607f16916112a7565b6060810190811067ffffffffffffffff8211176112ec57604052565b634e487b7160e01b5f52604160045260245ffd5b90601f8019910116810190811067ffffffffffffffff8211176112ec57604052565b1561132957565b60405162461bcd60e51b815260206004820152601060248201526f4578706972656420646561646c696e6560801b6044820152606490fd5b1561136857565b60405162461bcd60e51b815260206004820152601a60248201527f496e73756666696369656e74206f757470757420616d6f756e740000000000006044820152606490fd5b818102929181159184041417156113c057565b634e487b7160e01b5f52601160045260245ffd5b919082039182116113c057565b9081602091031261016c5751801515810361016c5790565b67ffffffffffffffff81116112ec5760051b60200190565b602090818184031261016c5780519067ffffffffffffffff821161016c57019180601f8401121561016c578251611447816113f9565b936114556040519586611300565b818552838086019260051b82010192831161016c578301905b82821061147c575050505090565b8151815290830190830161146e565b9190808252602080920192915f5b8281106114a7575050505090565b909192938280600192838060a01b036114bf896111c6565b16815201950193929101611499565b8051156114db5760200190565b634e487b7160e01b5f52603260045260245ffd5b8051600110156114db5760400190565b80518210156114db5760209160051b010190565b60405190611520826112d0565b60606040835f81525f60208201520152565b1561153957565b60405162461bcd60e51b81526020600482015260126024820152710416d6f756e74206d757374206265203e20360741b6044820152606490fd5b356001600160a01b038116810361016c5790565b5f1981146113c05760010190565b1561159c57565b60405162461bcd60e51b8152602060048201526014602482015273139bc81d985b1a59081c9bdd5d1948199bdd5b9960621b6044820152606490fd5b9392906115e3611513565b506115ef831515611532565b600280851061187d5784156114db5761160783611573565b6001600160a01b0396871690871603611838575f19918583018681116113c057868110156114db578761163f819260051b8701611573565b92169116036117f3575f935f96600192600354935b848111156116dc5750505050505061166d841515611595565b6040519361167a856112d0565b8452602091602085015261168d836113f9565b9261169b6040519485611300565b808452602084019060051b82019136831161016c57905b8282106116c55750505050604082015290565b8380916116d1846111c6565b8152019101906116b2565b805f528160205283604088815f20548c60ff8260a01c16156117e557915f9184938961172b965180978195829463d06ca61f60e01b845260049b8c8501526024998a850152604484019161148b565b0392165afa5f92816117c9575b5061174e5750505061174990611587565b611654565b81518981019081116117b6576117658c91846114ff565b5111611778575b50505061174990611587565b9193995080929b5051928784019384116117a557505090611798916114ff565b5195886117495f8061176c565b601190634e487b7160e01b5f52525ffd5b50634e487b7160e01b5f90815260118452fd5b6117de9193503d805f833e6106438183611300565b915f611738565b505050505061174990611587565b60405162461bcd60e51b815260206004820152601b60248201527f50617468206d75737420656e64207769746820746f6b656e4f757400000000006044820152606490fd5b60405162461bcd60e51b815260206004820152601c60248201527f50617468206d757374207374617274207769746820746f6b656e496e000000006044820152606490fd5b60405162461bcd60e51b815260206004820152600c60248201526b092dcecc2d8d2c840e0c2e8d60a31b6044820152606490fd5b9081518082526020808093019301915f5b8281106118d0575050505090565b83516001600160a01b0316855293810193928101926001016118c2565b916118f6611513565b50611902811515611532565b604090815192611911846112d0565b600294600285526020918436602088013761192b866114ce565b6001600160a01b03928316905281611942876114ef565b911690525f925f96600193600354945b858111156119845750505050505061196b841515611595565b815193611977856112d0565b8452602084015282015290565b805f5282825288885f205460ff8160a01c1615611a3b576119ca915f918b89815180968195829463d06ca61f60e01b84528d6004850152602484015260448301906118b1565b0392165afa5f9181611a1f575b506119eb57506119e690611587565b611952565b876119f5826114ef565b5111611a06575b506119e690611587565b909950611a149196506114ef565b5194886119e66119fc565b611a349192503d805f833e6106438183611300565b905f6119d7565b50506119e690611587565b15611a4d57565b60405162461bcd60e51b815260206004820152600e60248201526d125b9d985b1a590811115608125160921b6044820152606490fd5b9192608093611aa892979695978452602084015260a0604084015260a08301906118b1565b6001600160a01b0390951660608201520152565b600260015414611acd576002600155565b604051633ee5aeb560e01b8152600490fd5b6040516323b872dd60e01b60208201526001600160a01b03928316602482015292909116604483015260648083019390935291815260a081019181831067ffffffffffffffff8411176112ec57611b3892604052611ba6565b565b60405163a9059cbb60e01b60208201526001600160a01b03929092166024830152604480830193909352918152611b3891611b76606483611300565b611ba6565b5f546001600160a01b03163303611b8e57565b60405163118cdaa760e01b8152336004820152602490fd5b905f602091828151910182855af115611c00575f513d611bf757506001600160a01b0381163b155b611bd55750565b604051635274afe760e01b81526001600160a01b039091166004820152602490fd5b60011415611bce565b6040513d5f823e3d90fdfea2646970667358221220d1d6d5a6f47e6e7036913603940f2294f46ec659a8da26410108697eee4db87264736f6c63430008180033",
  "linkReferences": {},
  "deployedLinkReferences": {}
}