{
  "_format": "hh-sol-artifact-1",
  "contractName": "LPMining",
  "sourceName": "contracts/LPMining.sol",
  "abi": [
    {
      "inputs": [
        {
          "internalType": "contract IERC20",
          "name": "_rewardToken",
          "type": "address"
        },
        {
          "internalType": "uint256",
          "name": "_rewardPerBlock",
          "type": "uint256"
        },
        {
          "internalType": "uint256",
          "name": "_startBlock",
          "type": "uint256"
        }
      ],
      "stateMutability": "nonpayable",
      "type": "constructor"
    },
    {
      "inputs": [
        {
          "internalType": "address",
          "name": "owner",
          "type": "address"
        }
      ],
      "name": "OwnableInvalidOwner",
      "type": "error"
    },
    {
      "inputs": [
        {
          "internalType": "address",
          "name": "account",
          "type": "address"
        }
      ],
      "name": "OwnableUnauthorizedAccount",
      "type": "error"
    },
    {
      "inputs": [],
      "name": "ReentrancyGuardReentrantCall",
      "type": "error"
    },
    {
      "inputs": [
        {
          "internalType": "address",
          "name": "token",
          "type": "address"
        }
      ],
      "name": "SafeERC20FailedOperation",
      "type": "error"
    },
    {
      "anonymous": false,
      "inputs": [
        {
          "indexed": true,
          "internalType": "address",
          "name": "user",
          "type": "address"
        },
        {
          "indexed": true,
          "internalType": "uint256",
          "name": "pid",
          "type": "uint256"
        },
        {
          "indexed": false,
          "internalType": "uint256",
          "name": "amount",
          "type": "uint256"
        }
      ],
      "name": "Deposit",
      "type": "event"
    },
    {
      "anonymous": false,
      "inputs": [
        {
          "indexed": true,
          "internalType": "address",
          "name": "user",
          "type": "address"
        },
        {
          "indexed": true,
          "internalType": "uint256",
          "name": "pid",
          "type": "uint256"
        },
        {
          "indexed": false,
          "internalType": "uint256",
          "name": "amount",
          "type": "uint256"
        }
      ],
      "name": "EmergencyWithdraw",
      "type": "event"
    },
    {
      "anonymous": false,
      "inputs": [
        {
          "indexed": true,
          "internalType": "address",
          "name": "user",
          "type": "address"
        },
        {
          "indexed": true,
          "internalType": "uint256",
          "name": "pid",
          "type": "uint256"
        },
        {
          "indexed": false,
          "internalType": "uint256",
          "name": "amount",
          "type": "uint256"
        }
      ],
      "name": "Harvest",
      "type": "event"
    },
    {
      "anonymous": false,
      "inputs": [
        {
          "indexed": true,
          "internalType": "address",
          "name": "previousOwner",
          "type": "address"
        },
        {
          "indexed": true,
          "internalType": "address",
          "name": "newOwner",
          "type": "address"
        }
      ],
      "name": "OwnershipTransferred",
      "type": "event"
    },
    {
      "anonymous": false,
      "inputs": [
        {
          "indexed": true,
          "internalType": "address",
          "name": "user",
          "type": "address"
        },
        {
          "indexed": true,
          "internalType": "uint256",
          "name": "pid",
          "type": "uint256"
        },
        {
          "indexed": false,
          "internalType": "uint256",
          "name": "amount",
          "type": "uint256"
        }
      ],
      "name": "Withdraw",
      "type": "event"
    },
    {
      "inputs": [
        {
          "internalType": "uint256",
          "name": "_allocPoint",
          "type": "uint256"
        },
        {
          "internalType": "contract IERC20",
          "name": "_lpToken",
          "type": "address"
        },
        {
          "internalType": "bool",
          "name": "_withUpdate",
          "type": "bool"
        }
      ],
      "name": "addPool",
      "outputs": [],
      "stateMutability": "nonpayable",
      "type": "function"
    },
    {
      "inputs": [
        {
          "internalType": "uint256",
          "name": "_pid",
          "type": "uint256"
        },
        {
          "internalType": "uint256",
          "name": "_amount",
          "type": "uint256"
        }
      ],
      "name": "deposit",
      "outputs": [],
      "stateMutability": "nonpayable",
      "type": "function"
    },
    {
      "inputs": [
        {
          "internalType": "uint256",
          "name": "_pid",
          "type": "uint256"
        }
      ],
      "name": "emergencyWithdraw",
      "outputs": [],
      "stateMutability": "nonpayable",
      "type": "function"
    },
    {
      "inputs": [
        {
          "internalType": "uint256",
          "name": "_pid",
          "type": "uint256"
        }
      ],
      "name": "harvest",
      "outputs": [],
      "stateMutability": "nonpayable",
      "type": "function"
    },
    {
      "inputs": [],
      "name": "massUpdatePools",
      "outputs": [],
      "stateMutability": "nonpayable",
      "type": "function"
    },
    {
      "inputs": [],
      "name": "owner",
      "outputs": [
        {
          "internalType": "address",
          "name": "",
          "type": "address"
        }
      ],
      "stateMutability": "view",
      "type": "function"
    },
    {
      "inputs": [
        {
          "internalType": "uint256",
          "name": "_pid",
          "type": "uint256"
        },
        {
          "internalType": "address",
          "name": "_user",
          "type": "address"
        }
      ],
      "name": "pendingReward",
      "outputs": [
        {
          "internalType": "uint256",
          "name": "",
          "type": "uint256"
        }
      ],
      "stateMutability": "view",
      "type": "function"
    },
    {
      "inputs": [
        {
          "internalType": "uint256",
          "name": "",
          "type": "uint256"
        }
      ],
      "name": "poolInfo",
      "outputs": [
        {
          "internalType": "contract IERC20",
          "name": "lpToken",
          "type": "address"
        },
        {
          "internalType": "uint256",
          "name": "allocPoint",
          "type": "uint256"
        },
        {
          "internalType": "uint256",
          "name": "lastRewardBlock",
          "type": "uint256"
        },
        {
          "internalType": "uint256",
          "name": "accRewardPerShare",
          "type": "uint256"
        },
        {
          "internalType": "uint256",
          "name": "totalStaked",
          "type": "uint256"
        }
      ],
      "stateMutability": "view",
      "type": "function"
    },
    {
      "inputs": [],
      "name": "poolLength",
      "outputs": [
        {
          "internalType": "uint256",
          "name": "",
          "type": "uint256"
        }
      ],
      "stateMutability": "view",
      "type": "function"
    },
    {
      "inputs": [],
      "name": "renounceOwnership",
      "outputs": [],
      "stateMutability": "nonpayable",
      "type": "function"
    },
    {
      "inputs": [],
      "name": "rewardPerBlock",
      "outputs": [
        {
          "internalType": "uint256",
          "name": "",
          "type": "uint256"
        }
      ],
      "stateMutability": "view",
      "type": "function"
    },
    {
      "inputs": [],
      "name": "rewardToken",
      "outputs": [
        {
          "internalType": "contract IERC20",
          "name": "",
          "type": "address"
        }
      ],
      "stateMutability": "view",
      "type": "function"
    },
    {
      "inputs": [
        {
          "internalType": "uint256",
          "name": "_pid",
          "type": "uint256"
        },
        {
          "internalType": "uint256",
          "name": "_allocPoint",
          "type": "uint256"
        },
        {
          "internalType": "bool",
          "name": "_withUpdate",
          "type": "bool"
        }
      ],
      "name": "setAllocPoint",
      "outputs": [],
      "stateMutability": "nonpayable",
      "type": "function"
    },
    {
      "inputs": [],
      "name": "startBlock",
      "outputs": [
        {
          "internalType": "uint256",
          "name": "",
          "type": "uint256"
        }
      ],
      "stateMutability": "view",
      "type": "function"
    },
    {
      "inputs": [],
      "name": "totalAllocPoint",
      "outputs": [
        {
          "internalType": "uint256",
          "name": "",
          "type": "uint256"
        }
      ],
      "stateMutability": "view",
      "type": "function"
    },
    {
      "inputs": [
        {
          "internalType": "address",
          "name": "newOwner",
          "type": "address"
        }
      ],
      "name": "transferOwnership",
      "outputs": [],
      "stateMutability": "nonpayable",
      "type": "function"
    },
    {
      "inputs": [
        {
          "internalType": "uint256",
          "name": "_pid",
          "type": "uint256"
        }
      ],
      "name": "updatePool",
      "outputs": [],
      "stateMutability": "nonpayable",
      "type": "function"
    },
    {
      "inputs": [
        {
          "internalType": "uint256",
          "name": "",
          "type": "uint256"
        },
        {
          "internalType": "address",
          "name": "",
          "type": "address"
        }
      ],
      "name": "userInfo",
      "outputs": [
        {
          "internalType": "uint256",
          "name": "amount",
          "type": "uint256"
        },
        {
          "internalType": "uint256",
          "name": "rewardDebt",
          "type": "uint256"
        },
        {
          "internalType": "uint256",
          "name": "pendingRewards",
          "type": "uint256"
        }
      ],
      "stateMutability": "view",
      "type": "function"
    },
    {
      "inputs": [
        {
          "internalType": "uint256",
          "name": "_pid",
          "type": "uint256"
        },
        {
          "internalType": "uint256",
          "name": "_amount",
          "type": "uint256"
        }
      ],
      "name": "withdraw",
      "outputs": [],
      "stateMutability": "nonpayable",
      "type": "function"
    }
  ],
  "bytecode": "0x6080346100d857601f610e8a38819003918201601f19168301916001600160401b038311848410176100dc578084926060946040528339810103126100d85780516001600160a01b0391828216918290036100d857604060208201519101519133156100c0575f5460018060a01b03199033828216175f55604051953391167f8be0079c531659141344cd1fd0a4f28419497f9722a3daafe3b4186f6b6457e05f80a3600180556002541617600255600355600455610d9990816100f18239f35b604051631e4fbdf760e01b81525f6004820152602490fd5b5f80fd5b634e487b7160e01b5f52604160045260245ffdfe6080604090808252600480361015610015575f80fd5b5f3560e01c918263081e3eda14610aa2575081631526fe2714610a3e57816317caf6f114610a20578163441a3e70146108e257816348cd4cb1146108c657816351eb05a6146108ab5781635312ea8e14610808578163630b5ba1146107ee578163715018a6146107975781637abceffd146106715781638ae39cac146106535781638da5cb5b1461062c57816393f1a40b146105d657816398969e82146104a3578163a0f9920314610437578163ddc6326214610324578163e2bbb158146101ab578163f2fde38b1461011c575063f7c618c1146100f1575f80fd5b34610118575f3660031901126101185760025490516001600160a01b039091168152602090f35b5f80fd5b8234610118576020366003190112610118576001600160a01b038235818116939192908490036101185761014e610cd3565b83156101955750505f54826bffffffffffffffffffffffff60a01b8216175f55167f8be0079c531659141344cd1fd0a4f28419497f9722a3daafe3b4186f6b6457e05f80a3005b905f6024925191631e4fbdf760e01b8352820152fd5b8234610118576101ba36610b09565b9190926101c5610c4a565b6101ce84610abc565b50845f526007602052825f20335f52602052825f20916101ed86610ba3565b8254806102e3575b508461024a575b5064e8d4a510006102166001926003855491015490610b44565b04910155519081527f90890809c654f11d6e72a28fa60149770a0d11ec6c92319d6ceb2bb0a4ea1a1560203392a360018055005b815484516323b872dd60e01b602082015233602482015230604482015260648082018890528152906001600160a01b031660a0820167ffffffffffffffff8111838210176102d057926102ac610216936001969364e8d4a51000968a52610cfe565b6102b7888754610b96565b865581016102c6888254610b96565b90559250506101fc565b604184634e487b7160e01b5f525260245ffd5b64e8d4a510006102fb61030792600386015490610b44565b04600185015490610b89565b80156101f55761031c60028501918254610b96565b9055866101f5565b90503461011857602036600319011261011857803591610342610c4a565b61034b83610abc565b50835f526007602052815f20335f52602052815f209061036a85610ba3565b6003825491019064e8d4a510009182610384825484610b44565b04936103a6600261039b6001840197885490610b89565b920191825490610b96565b96871561040757505f9055546103bb91610b44565b0490556002546103d790839033906001600160a01b0316610c6d565b519081527f71bab65ced2e5750775a0613be067df48ef06cf92a496ebf7663ae066092495460203392a360018055005b606490602088519162461bcd60e51b8352820152600a6024820152694e6f207265776172647360b01b6044820152fd5b34610118576060366003190112610118573560016104916024359261045a610b1f565b610462610cd3565b610496575b610489846104846005548661047b86610abc565b50015490610b89565b610b96565b600555610abc565b500155005b61049e610c28565b610467565b82346101185780600319360112610118578135916104bf610b2e565b6104c884610abc565b50935f526007602052825f209060018060a01b03165f52602052815f209260038101549180820154916002810154804311806105cd575b61053d575b60208661053689600261052d64e8d4a510006105218c8554610b44565b04600184015490610b89565b91015490610b96565b9051908152f35b61056e91600161055c6105536105659443610b89565b60035490610b44565b91015490610b44565b60055490610b6b565b9064e8d4a51000918281029281840414901517156105ba575061052d64e8d4a510006105216105af610536966105a960209a97600297610b6b565b90610b96565b955050839650610504565b601190634e487b7160e01b5f525260245ffd5b508315156104ff565b82346101185780600319360112610118576060916105f2610b2e565b90355f526007602052815f209060018060a01b03165f52602052805f20805491600260018301549201549181519384526020840152820152f35b8234610118575f366003190112610118575f5490516001600160a01b039091168152602090f35b8234610118575f366003190112610118576020906003549051908152f35b905034610118576060366003190112610118576001600160a01b0360243581811693833591859003610118576106a5610b1f565b6106ad610cd3565b61078a575b83548043115f14610784575043905b6106cd83600554610b96565b60055580519560a0870187811067ffffffffffffffff821117610771578252865260208601928352850190815260608501915f835260808601935f8552600654680100000000000000008110156107715780600161072e9201600655610abc565b97909761075f575187546001600160a01b031916911617865551600186015551600285015551600384015551910155005b5f87634e487b7160e01b82525260245ffd5b604187634e487b7160e01b5f525260245ffd5b906106c1565b610792610c28565b6106b2565b34610118575f366003190112610118576107af610cd3565b5f80546001600160a01b0319811682556001600160a01b03167f8be0079c531659141344cd1fd0a4f28419497f9722a3daafe3b4186f6b6457e08280a3005b34610118575f36600319011261011857610806610c28565b005b82346101185760203660031901126101185760029061087b83359361082b610c4a565b61083485610abc565b50855f526007602052835f20335f52602052835f20915f835496848289965582600182015501558101610868838254610b89565b90555433906001600160a01b0316610c6d565b519081527fbb757047c2b5f3974fe26b7c10f732e7bce710b0952a71082702781e62ae059560203392a360018055005b34610118576020366003190112610118576108069035610ba3565b8234610118575f36600319011261011857602091549051908152f35b8234610118576108f136610b09565b9190926108fc610c4a565b61090584610abc565b50845f526007602052825f20335f52602052825f20848154106109e6576109779061092f87610ba3565b80549060038401918764e8d4a51000958661094b865485610b44565b049761095d60018601998a5490610b89565b806109cf575b50826109aa575b5050505054905490610b44565b049055519081527ff279e6a1f5e320cca91135676d9cb6e44ca8a08c0b88342bcdb1144f6511b56860203392a360018055005b6109b7836109c695610b89565b85558101610868838254610b89565b8887818061096a565b6109de60028701918254610b96565b90558c610963565b835162461bcd60e51b81526020818501526014602482015273496e73756666696369656e742062616c616e636560601b6044820152606490fd5b8234610118575f366003190112610118576020906005549051908152f35b9050346101185760203660031901126101185780359160065483101561011857610a6960a093610abc565b50600180851b03815416926001820154926002830154916003840154930154938151958652602086015284015260608301526080820152f35b34610118575f366003190112610118576020906006548152f35b600654811015610af55760059060065f52027ff652222313e28459528d920b65115c16c04f3efc82aaedc97be59f3f377c0d3f01905f90565b634e487b7160e01b5f52603260045260245ffd5b6040906003190112610118576004359060243590565b60443590811515820361011857565b602435906001600160a01b038216820361011857565b81810292918115918404141715610b5757565b634e487b7160e01b5f52601160045260245ffd5b8115610b75570490565b634e487b7160e01b5f52601260045260245ffd5b91908203918211610b5757565b91908201809211610b5757565b610bac90610abc565b5060028101908154431115610c245760048101548015610c1d57610be5610565610bda610553865443610b89565b600185015490610b44565b9064e8d4a5100091828102928184041490151715610b5757610c0c600391610c1693610b6b565b9201918254610b96565b9055439055565b5050439055565b5050565b6006545f5b818110610c38575050565b80610c44600192610ba3565b01610c2d565b600260015414610c5b576002600155565b604051633ee5aeb560e01b8152600490fd5b60405163a9059cbb60e01b60208201526001600160a01b039092166024830152604480830193909352918152608081019167ffffffffffffffff831182841017610cbf57610cbd92604052610cfe565b565b634e487b7160e01b5f52604160045260245ffd5b5f546001600160a01b03163303610ce657565b60405163118cdaa760e01b8152336004820152602490fd5b905f602091828151910182855af115610d58575f513d610d4f57506001600160a01b0381163b155b610d2d5750565b604051635274afe760e01b81526001600160a01b039091166004820152602490fd5b60011415610d26565b6040513d5f823e3d90fdfea2646970667358221220623eab6b4ec82ec53ace81e948ad0c13232083a79e5fe34eccde1ebf389764b564736f6c63430008180033",
  "linkReferences": {},
  "deployedLinkReferences": {}
}