{
  "_format": "hh-sol-artifact-1",
  "contractName": "FeeDistributor",
  "sourceName": "contracts/FeeDistributor.sol",
  "abi": [
    {
      "inputs": [
        {
          "internalType": "address",
          "name": "_lpToken",
          "type": "address"
        },
        {
          "internalType": "address",
          "name": "_rewardToken",
          "type": "address"
        }
      ],
      "stateMutability": "nonpayable",
      "type": "constructor"
    },
    {
      "inputs": [
        {
          "internalType": "address",
          "name": "owner",
          "type": "address"
        }
      ],
      "name": "OwnableInvalidOwner",
      "type": "error"
    },
    {
      "inputs": [
        {
          "internalType": "address",
          "name": "account",
          "type": "address"
        }
      ],
      "name": "OwnableUnauthorizedAccount",
      "type": "error"
    },
    {
      "inputs": [],
      "name": "ReentrancyGuardReentrantCall",
      "type": "error"
    },
    {
      "inputs": [
        {
          "internalType": "address",
          "name": "token",
          "type": "address"
        }
      ],
      "name": "SafeERC20FailedOperation",
      "type": "error"
    },
    {
      "anonymous": false,
      "inputs": [
        {
          "indexed": true,
          "internalType": "address",
          "name": "user",
          "type": "address"
        },
        {
          "indexed": false,
          "internalType": "uint256",
          "name": "amount",
          "type": "uint256"
        }
      ],
      "name": "Claim",
      "type": "event"
    },
    {
      "anonymous": false,
      "inputs": [
        {
          "indexed": true,
          "internalType": "address",
          "name": "user",
          "type": "address"
        },
        {
          "indexed": false,
          "internalType": "uint256",
          "name": "amount",
          "type": "uint256"
        }
      ],
      "name": "Deposit",
      "type": "event"
    },
    {
      "anonymous": false,
      "inputs": [
        {
          "indexed": false,
          "internalType": "uint256",
          "name": "amount",
          "type": "uint256"
        }
      ],
      "name": "FeeDistributed",
      "type": "event"
    },
    {
      "anonymous": false,
      "inputs": [
        {
          "indexed": true,
          "internalType": "address",
          "name": "previousOwner",
          "type": "address"
        },
        {
          "indexed": true,
          "internalType": "address",
          "name": "newOwner",
          "type": "address"
        }
      ],
      "name": "OwnershipTransferred",
      "type": "event"
    },
    {
      "anonymous": false,
      "inputs": [
        {
          "indexed": true,
          "internalType": "address",
          "name": "user",
          "type": "address"
        },
        {
          "indexed": false,
          "internalType": "uint256",
          "name": "amount",
          "type": "uint256"
        }
      ],
      "name": "Withdraw",
      "type": "event"
    },
    {
      "inputs": [],
      "name": "PRECISION",
      "outputs": [
        {
          "internalType": "uint256",
          "name": "",
          "type": "uint256"
        }
      ],
      "stateMutability": "view",
      "type": "function"
    },
    {
      "inputs": [],
      "name": "accRewardPerShare",
      "outputs": [
        {
          "internalType": "uint256",
          "name": "",
          "type": "uint256"
        }
      ],
      "stateMutability": "view",
      "type": "function"
    },
    {
      "inputs": [],
      "name": "claim",
      "outputs": [],
      "stateMutability": "nonpayable",
      "type": "function"
    },
    {
      "inputs": [
        {
          "internalType": "uint256",
          "name": "amount",
          "type": "uint256"
        }
      ],
      "name": "deposit",
      "outputs": [],
      "stateMutability": "nonpayable",
      "type": "function"
    },
    {
      "inputs": [
        {
          "internalType": "uint256",
          "name": "amount",
          "type": "uint256"
        }
      ],
      "name": "distributeFees",
      "outputs": [],
      "stateMutability": "nonpayable",
      "type": "function"
    },
    {
      "inputs": [],
      "name": "lpToken",
      "outputs": [
        {
          "internalType": "contract IERC20",
          "name": "",
          "type": "address"
        }
      ],
      "stateMutability": "view",
      "type": "function"
    },
    {
      "inputs": [],
      "name": "owner",
      "outputs": [
        {
          "internalType": "address",
          "name": "",
          "type": "address"
        }
      ],
      "stateMutability": "view",
      "type": "function"
    },
    {
      "inputs": [
        {
          "internalType": "address",
          "name": "_user",
          "type": "address"
        }
      ],
      "name": "pendingReward",
      "outputs": [
        {
          "internalType": "uint256",
          "name": "",
          "type": "uint256"
        }
      ],
      "stateMutability": "view",
      "type": "function"
    },
    {
      "inputs": [],
      "name": "renounceOwnership",
      "outputs": [],
      "stateMutability": "nonpayable",
      "type": "function"
    },
    {
      "inputs": [],
      "name": "rewardToken",
      "outputs": [
        {
          "internalType": "contract IERC20",
          "name": "",
          "type": "address"
        }
      ],
      "stateMutability": "view",
      "type": "function"
    },
    {
      "inputs": [],
      "name": "totalShares",
      "outputs": [
        {
          "internalType": "uint256",
          "name": "",
          "type": "uint256"
        }
      ],
      "stateMutability": "view",
      "type": "function"
    },
    {
      "inputs": [
        {
          "internalType": "address",
          "name": "newOwner",
          "type": "address"
        }
      ],
      "name": "transferOwnership",
      "outputs": [],
      "stateMutability": "nonpayable",
      "type": "function"
    },
    {
      "inputs": [
        {
          "internalType": "address",
          "name": "",
          "type": "address"
        }
      ],
      "name": "userInfo",
      "outputs": [
        {
          "internalType": "uint256",
          "name": "shares",
          "type": "uint256"
        },
        {
          "internalType": "uint256",
          "name": "rewardDebt",
          "type": "uint256"
        },
        {
          "internalType": "uint256",
          "name": "pendingRewards",
          "type": "uint256"
        }
      ],
      "stateMutability": "view",
      "type": "function"
    },
    {
      "inputs": [
        {
          "internalType": "uint256",
          "name": "amount",
          "type": "uint256"
        }
      ],
      "name": "withdraw",
      "outputs": [],
      "stateMutability": "nonpayable",
      "type": "function"
    }
  ],
  "bytecode": "0x60c03461010457601f610b9538819003918201601f19168301916001600160401b0383118484101761010857808492604094855283398101031261010457610052602061004b8361011c565b920161011c565b9033156100ec575f8054336001600160a01b0319821681178355604051946001600160a01b0394909385939192918416907f8be0079c531659141344cd1fd0a4f28419497f9722a3daafe3b4186f6b6457e09080a360018055166080521660a052610a64908161013182396080518181816102030152818161051101526106ef015260a05181818160cd015281816103ef01526105bb0152f35b604051631e4fbdf760e01b81525f6004820152602490fd5b5f80fd5b634e487b7160e01b5f52604160045260245ffd5b51906001600160a01b03821682036101045756fe6080604090808252600480361015610015575f80fd5b5f3560e01c9182631959a002146107d8575081632e1a7d4d146106665781633a98ef39146106485781634e71d92d146105405781635fcbd285146104fd5781636029bf9f146103bc578163715018a6146103655781638da5cb5b1461033e578163939d623714610320578163aaf5eb6814610301578163b6b55f25146101c6578163f2fde38b14610137578163f40f0f5214610100575063f7c618c1146100ba575f80fd5b346100fc575f3660031901126100fc57517f00000000000000000000000000000000000000000000000000000000000000006001600160a01b03168152602090f35b5f80fd5b9050346100fc5760203660031901126100fc5735906001600160a01b03821682036100fc57610130602092610866565b9051908152f35b82346100fc5760203660031901126100fc576001600160a01b038235818116939192908490036100fc57610169610949565b83156101b05750505f54826bffffffffffffffffffffffff60a01b8216175f55167f8be0079c531659141344cd1fd0a4f28419497f9722a3daafe3b4186f6b6457e05f80a3005b905f6024925191631e4fbdf760e01b8352820152fd5b82346100fc5760203660031901126100fc578135916101e36108c0565b82156102cc57335f52602052805f2080548061028d575b506102278330337f0000000000000000000000000000000000000000000000000000000000000000610974565b610232838254610859565b815561024083600254610859565b600255600164e8d4a51000610259835460035490610825565b04910155519081527fe1fffcc4923d04b559f4d29a8bfc6cda04eb5b0d3c460751c2402c5c5cc9109c60203392a260018055005b64e8d4a510006102a36102af9260035490610825565b0460018301549061084c565b80156101fa576102c460028301918254610859565b9055836101fa565b6020606492519162461bcd60e51b8352820152601060248201526f043616e6e6f74206465706f73697420360841b6044820152fd5b82346100fc575f3660031901126100fc576020905164e8d4a510008152f35b82346100fc575f3660031901126100fc576020906003549051908152f35b82346100fc575f3660031901126100fc575f5490516001600160a01b039091168152602090f35b346100fc575f3660031901126100fc5761037d610949565b5f80546001600160a01b0319811682556001600160a01b03167f8be0079c531659141344cd1fd0a4f28419497f9722a3daafe3b4186f6b6457e08280a3005b82346100fc5760203660031901126100fc578135916103d9610949565b82156104c55760025415610497576104138330337f0000000000000000000000000000000000000000000000000000000000000000610974565b64e8d4a51000830264e8d4a50fff198482040161048457600254918215610471577f65fbefa8a319bc4b53d3436a388ac60632281c1ce0b61c4d0d7d2dbd2ad44ec960208686610467878704600354610859565b60035551908152a1005b601290634e487b7160e01b5f525260245ffd5b601182634e487b7160e01b5f525260245ffd5b6020606492519162461bcd60e51b835282015260096024820152684e6f2073686172657360b81b6044820152fd5b6020606492519162461bcd60e51b83528201526013602482015272043616e6e6f742064697374726962757465203606c1b6044820152fd5b82346100fc575f3660031901126100fc57517f00000000000000000000000000000000000000000000000000000000000000006001600160a01b03168152602090f35b82346100fc575f3660031901126100fc576105596108c0565b335f5281602052805f20805464e8d4a51000908161057960035483610825565b049261059a6002610590600184019687549061084c565b9201918254610859565b95861561060f57505f90556003546105b191610825565b0490556105df82337f00000000000000000000000000000000000000000000000000000000000000006108e3565b519081527f47cee97cb7acd717b3c0aa1435d004cd5b3c8c57d70dbceb4e4458bbd60e39d460203392a260018055005b606490602087519162461bcd60e51b835282015260136024820152724e6f207265776172647320746f20636c61696d60681b6044820152fd5b82346100fc575f3660031901126100fc576020906002549051908152f35b82346100fc5760203660031901126100fc578135916106836108c0565b335f5280602052815f2080549184831061079e578415610767575061071d64e8d4a51000916106d786846106b960035488610825565b04956106cb600185019788549061084c565b80610750575b5061084c565b81556106e58660025461084c565b60025561071386337f00000000000000000000000000000000000000000000000000000000000000006108e3565b5460035490610825565b049055519081527f884edad9ce6fa2440d8a54cc123490eb96d2768479d49ff9c7366125a942436460203392a260018055005b61075f60028601918254610859565b9055896106d1565b606490602085519162461bcd60e51b83528201526011602482015270043616e6e6f74207769746864726177203607c1b6044820152fd5b606490602085519162461bcd60e51b83528201526014602482015273496e73756666696369656e742062616c616e636560601b6044820152fd5b83346100fc5760203660031901126100fc5782356001600160a01b03811693908490036100fc576060935f52602052805f2090815491600260018201549101549284526020840152820152f35b8181029291811591840414171561083857565b634e487b7160e01b5f52601160045260245ffd5b9190820391821161083857565b9190820180921161083857565b6001600160a01b03165f90815260046020526040902080549081156108b75760026108ac64e8d4a510006108a06108b49560035490610825565b0460018401549061084c565b910154610859565b90565b60029150015490565b6002600154146108d1576002600155565b604051633ee5aeb560e01b8152600490fd5b60405163a9059cbb60e01b60208201526001600160a01b039092166024830152604480830193909352918152608081019167ffffffffffffffff83118284101761093557610933926040526109c9565b565b634e487b7160e01b5f52604160045260245ffd5b5f546001600160a01b0316330361095c57565b60405163118cdaa760e01b8152336004820152602490fd5b6040516323b872dd60e01b60208201526001600160a01b03928316602482015292909116604483015260648083019390935291815260a081019181831067ffffffffffffffff84111761093557610933926040525b905f602091828151910182855af115610a23575f513d610a1a57506001600160a01b0381163b155b6109f85750565b604051635274afe760e01b81526001600160a01b039091166004820152602490fd5b600114156109f1565b6040513d5f823e3d90fdfea26469706673582212201c463f2e3ad2720e2892b285dde93720850ab4f00cb486f477e36c84b181c83c64736f6c63430008180033",
  "linkReferences": {},
  "deployedLinkReferences": {}
}